{
  "contractName": "ICO",
  "abi": [
    {
      "inputs": [
        {
          "internalType": "address payable",
          "name": "_depositETHAddress",
          "type": "address"
        }
      ],
      "stateMutability": "nonpayable",
      "type": "constructor"
    },
    {
      "anonymous": false,
      "inputs": [
        {
          "indexed": true,
          "internalType": "address",
          "name": "owner",
          "type": "address"
        },
        {
          "indexed": true,
          "internalType": "address",
          "name": "spender",
          "type": "address"
        },
        {
          "indexed": false,
          "internalType": "uint256",
          "name": "tokens",
          "type": "uint256"
        }
      ],
      "name": "Approval",
      "type": "event"
    },
    {
      "anonymous": false,
      "inputs": [
        {
          "indexed": true,
          "internalType": "address",
          "name": "oldOwner",
          "type": "address"
        },
        {
          "indexed": true,
          "internalType": "address",
          "name": "newOwner",
          "type": "address"
        }
      ],
      "name": "NewOwner",
      "type": "event"
    },
    {
      "anonymous": false,
      "inputs": [
        {
          "indexed": false,
          "internalType": "address",
          "name": "_address",
          "type": "address"
        }
      ],
      "name": "State",
      "type": "event"
    },
    {
      "anonymous": false,
      "inputs": [
        {
          "indexed": true,
          "internalType": "address",
          "name": "from",
          "type": "address"
        },
        {
          "indexed": true,
          "internalType": "address",
          "name": "to",
          "type": "address"
        },
        {
          "indexed": false,
          "internalType": "uint256",
          "name": "tokens",
          "type": "uint256"
        }
      ],
      "name": "Transfer",
      "type": "event"
    },
    {
      "inputs": [
        {
          "internalType": "address",
          "name": "_owner",
          "type": "address"
        },
        {
          "internalType": "address",
          "name": "_spender",
          "type": "address"
        }
      ],
      "name": "allowance",
      "outputs": [
        {
          "internalType": "uint256",
          "name": "",
          "type": "uint256"
        }
      ],
      "stateMutability": "view",
      "type": "function",
      "constant": true
    },
    {
      "inputs": [
        {
          "internalType": "address",
          "name": "_spender",
          "type": "address"
        },
        {
          "internalType": "uint256",
          "name": "_tokens",
          "type": "uint256"
        }
      ],
      "name": "approve",
      "outputs": [
        {
          "internalType": "bool",
          "name": "",
          "type": "bool"
        }
      ],
      "stateMutability": "nonpayable",
      "type": "function"
    },
    {
      "inputs": [
        {
          "internalType": "address",
          "name": "_account",
          "type": "address"
        }
      ],
      "name": "balanceOf",
      "outputs": [
        {
          "internalType": "uint256",
          "name": "",
          "type": "uint256"
        }
      ],
      "stateMutability": "view",
      "type": "function",
      "constant": true
    },
    {
      "inputs": [],
      "name": "decimals",
      "outputs": [
        {
          "internalType": "uint8",
          "name": "",
          "type": "uint8"
        }
      ],
      "stateMutability": "pure",
      "type": "function",
      "constant": true
    },
    {
      "inputs": [],
      "name": "name",
      "outputs": [
        {
          "internalType": "string",
          "name": "",
          "type": "string"
        }
      ],
      "stateMutability": "view",
      "type": "function",
      "constant": true
    },
    {
      "inputs": [],
      "name": "nbOfInvestors",
      "outputs": [
        {
          "internalType": "uint256",
          "name": "",
          "type": "uint256"
        }
      ],
      "stateMutability": "view",
      "type": "function",
      "constant": true
    },
    {
      "inputs": [],
      "name": "owner",
      "outputs": [
        {
          "internalType": "address",
          "name": "",
          "type": "address"
        }
      ],
      "stateMutability": "view",
      "type": "function",
      "constant": true
    },
    {
      "inputs": [],
      "name": "raisedAmount",
      "outputs": [
        {
          "internalType": "uint256",
          "name": "",
          "type": "uint256"
        }
      ],
      "stateMutability": "view",
      "type": "function",
      "constant": true
    },
    {
      "inputs": [],
      "name": "rateOfChange",
      "outputs": [
        {
          "internalType": "uint256",
          "name": "",
          "type": "uint256"
        }
      ],
      "stateMutability": "view",
      "type": "function",
      "constant": true
    },
    {
      "inputs": [],
      "name": "renounceOwnership",
      "outputs": [],
      "stateMutability": "nonpayable",
      "type": "function"
    },
    {
      "inputs": [],
      "name": "symbol",
      "outputs": [
        {
          "internalType": "string",
          "name": "",
          "type": "string"
        }
      ],
      "stateMutability": "view",
      "type": "function",
      "constant": true
    },
    {
      "inputs": [],
      "name": "token",
      "outputs": [
        {
          "internalType": "contract ERC20",
          "name": "",
          "type": "address"
        }
      ],
      "stateMutability": "view",
      "type": "function",
      "constant": true
    },
    {
      "inputs": [],
      "name": "totalSupply",
      "outputs": [
        {
          "internalType": "uint256",
          "name": "",
          "type": "uint256"
        }
      ],
      "stateMutability": "view",
      "type": "function",
      "constant": true
    },
    {
      "inputs": [
        {
          "internalType": "address",
          "name": "_to",
          "type": "address"
        },
        {
          "internalType": "uint256",
          "name": "_tokens",
          "type": "uint256"
        }
      ],
      "name": "transfer",
      "outputs": [
        {
          "internalType": "bool",
          "name": "",
          "type": "bool"
        }
      ],
      "stateMutability": "nonpayable",
      "type": "function"
    },
    {
      "inputs": [
        {
          "internalType": "address",
          "name": "_from",
          "type": "address"
        },
        {
          "internalType": "address",
          "name": "_to",
          "type": "address"
        },
        {
          "internalType": "uint256",
          "name": "_tokens",
          "type": "uint256"
        }
      ],
      "name": "transferFrom",
      "outputs": [
        {
          "internalType": "bool",
          "name": "",
          "type": "bool"
        }
      ],
      "stateMutability": "nonpayable",
      "type": "function"
    },
    {
      "inputs": [
        {
          "internalType": "address",
          "name": "_newOwner",
          "type": "address"
        }
      ],
      "name": "transferOwnership",
      "outputs": [],
      "stateMutability": "nonpayable",
      "type": "function"
    }
  ],
  "bytecode": "0x608060405233600560006101000a81548173ffffffffffffffffffffffffffffffffffffffff021916908373ffffffffffffffffffffffffffffffffffffffff16021790555069010f0cf064dd592000006007556103e86008553480156200006657600080fd5b50604051620032af380380620032af83398181016040528101906200008c9190620004ec565b6040518060400160405280601381526020017f5261726520506c6174666f726d20546f6b656e000000000000000000000000008152506040518060400160405280600381526020017f525054000000000000000000000000000000000000000000000000000000000081525081600390805190602001906200011092919062000417565b5080600490805190602001906200012992919062000417565b5050506040516200013a90620004a8565b62000145906200059e565b604051809103906000f08015801562000162573d6000803e3d6000fd5b50600660006101000a81548173ffffffffffffffffffffffffffffffffffffffff021916908373ffffffffffffffffffffffffffffffffffffffff16021790555080600d60006101000a81548173ffffffffffffffffffffffffffffffffffffffff021916908373ffffffffffffffffffffffffffffffffffffffff160217905550620001f8336007546200021c60201b60201c565b662386f26fc10000600a81905550678ac7230489e80000600b8190555050620007e9565b600073ffffffffffffffffffffffffffffffffffffffff168273ffffffffffffffffffffffffffffffffffffffff1614156200028f576040517f08c379a00000000000000000000000000000000000000000000000000000000081526004016200028690620005d5565b60405180910390fd5b620002a360008383620003bd60201b60201c565b620002b760025482620003c260201b60201c565b6002819055506200030f6000808473ffffffffffffffffffffffffffffffffffffffff1673ffffffffffffffffffffffffffffffffffffffff16815260200190815260200160002054600254620003c260201b60201c565b6000808473ffffffffffffffffffffffffffffffffffffffff1673ffffffffffffffffffffffffffffffffffffffff168152602001908152602001600020819055508173ffffffffffffffffffffffffffffffffffffffff16600073ffffffffffffffffffffffffffffffffffffffff167fddf252ad1be2c89b69c2b068fc378daa952ba7f163c4a11628f55a4df523b3ef83604051620003b19190620005f7565b60405180910390a35050565b505050565b6000808284620003d3919062000625565b9050838110156200040d577f4e487b7100000000000000000000000000000000000000000000000000000000600052600160045260246000fd5b8091505092915050565b8280546200042590620006c0565b90600052602060002090601f01602090048101928262000449576000855562000495565b82601f106200046457805160ff191683800117855562000495565b8280016001018555821562000495579182015b828111156200049457825182559160200191906001019062000477565b5b509050620004a49190620004b6565b5090565b6114178062001e9883390190565b5b80821115620004d1576000816000905550600101620004b7565b5090565b600081519050620004e681620007cf565b92915050565b600060208284031215620004ff57600080fd5b60006200050f84828501620004d5565b91505092915050565b60006200052760038362000614565b9150620005348262000754565b602082019050919050565b60006200054e60138362000614565b91506200055b826200077d565b602082019050919050565b600062000575601f8362000614565b91506200058282620007a6565b602082019050919050565b6200059881620006b6565b82525050565b60006040820190508181036000830152620005b9816200053f565b90508181036020830152620005ce8162000518565b9050919050565b60006020820190508181036000830152620005f08162000566565b9050919050565b60006020820190506200060e60008301846200058d565b92915050565b600082825260208201905092915050565b60006200063282620006b6565b91506200063f83620006b6565b9250827fffffffffffffffffffffffffffffffffffffffffffffffffffffffffffffffff03821115620006775762000676620006f6565b5b828201905092915050565b60006200068f8262000696565b9050919050565b600073ffffffffffffffffffffffffffffffffffffffff82169050919050565b6000819050919050565b60006002820490506001821680620006d957607f821691505b60208210811415620006f057620006ef62000725565b5b50919050565b7f4e487b7100000000000000000000000000000000000000000000000000000000600052601160045260246000fd5b7f4e487b7100000000000000000000000000000000000000000000000000000000600052602260045260246000fd5b7f5250540000000000000000000000000000000000000000000000000000000000600082015250565b7f5261726520506c6174666f726d20546f6b656e00000000000000000000000000600082015250565b7f45524332303a206d696e7420746f20746865207a65726f206164647265737300600082015250565b620007da8162000682565b8114620007e657600080fd5b50565b61169f80620007f96000396000f3fe608060405234801561001057600080fd5b50600436106101005760003560e01c80638da5cb5b11610097578063c59ee1dc11610066578063c59ee1dc146102a1578063dd62ed3e146102bf578063f2fde38b146102ef578063fc0c546a1461030b57610100565b80638da5cb5b1461021757806395d89b4114610235578063a9059cbb14610253578063a9442c091461028357610100565b8063313ce567116100d3578063313ce567146101a15780636b0a26d2146101bf57806370a08231146101dd578063715018a61461020d57610100565b806306fdde0314610105578063095ea7b31461012357806318160ddd1461015357806323b872dd14610171575b600080fd5b61010d610329565b60405161011a919061110d565b60405180910390f35b61013d60048036038101906101389190610f07565b6103b7565b60405161014a91906110d7565b60405180910390f35b61015b610588565b604051610168919061120f565b60405180910390f35b61018b60048036038101906101869190610eb8565b610592565b60405161019891906110d7565b60405180910390f35b6101a9610636565b6040516101b6919061122a565b60405180910390f35b6101c761063f565b6040516101d4919061120f565b60405180910390f35b6101f760048036038101906101f29190610e53565b610645565b604051610204919061120f565b60405180910390f35b61021561068d565b005b61021f6107de565b60405161022c91906110bc565b60405180910390f35b61023d610804565b60405161024a919061110d565b60405180910390f35b61026d60048036038101906102689190610f07565b610892565b60405161027a91906110d7565b60405180910390f35b61028b6108a7565b604051610298919061120f565b60405180910390f35b6102a96108ad565b6040516102b6919061120f565b60405180910390f35b6102d960048036038101906102d49190610e7c565b6108b3565b6040516102e6919061120f565b60405180910390f35b61030960048036038101906103049190610e53565b61093a565b005b610313610afa565b60405161032091906110f2565b60405180910390f35b6003805461033690611397565b80601f016020809104026020016040519081016040528092919081815260200182805461036290611397565b80156103af5780601f10610384576101008083540402835291602001916103af565b820191906000526020600020905b81548152906001019060200180831161039257829003601f168201915b505050505081565b60008073ffffffffffffffffffffffffffffffffffffffff163373ffffffffffffffffffffffffffffffffffffffff161415610428576040517f08c379a000000000000000000000000000000000000000000000000000000000815260040161041f906111ef565b60405180910390fd5b600073ffffffffffffffffffffffffffffffffffffffff168373ffffffffffffffffffffffffffffffffffffffff161415610498576040517f08c379a000000000000000000000000000000000000000000000000000000000815260040161048f9061116f565b60405180910390fd5b81600160003373ffffffffffffffffffffffffffffffffffffffff1673ffffffffffffffffffffffffffffffffffffffff16815260200190815260200160002060008573ffffffffffffffffffffffffffffffffffffffff1673ffffffffffffffffffffffffffffffffffffffff168152602001908152602001600020819055508273ffffffffffffffffffffffffffffffffffffffff163373ffffffffffffffffffffffffffffffffffffffff167f8c5be1e5ebec7d5bd14f71427d1e84f3dd0314c0f7b2291e5b200ac8c7c3b92584604051610576919061120f565b60405180910390a36001905092915050565b6000600254905090565b600080600160008673ffffffffffffffffffffffffffffffffffffffff1673ffffffffffffffffffffffffffffffffffffffff16815260200190815260200160002060003373ffffffffffffffffffffffffffffffffffffffff1673ffffffffffffffffffffffffffffffffffffffff1681526020019081526020016000205490508281101561062157600080fd5b61062c858585610b20565b9150509392505050565b60006012905090565b60085481565b60008060008373ffffffffffffffffffffffffffffffffffffffff1673ffffffffffffffffffffffffffffffffffffffff168152602001908152602001600020549050919050565b600560009054906101000a900473ffffffffffffffffffffffffffffffffffffffff1673ffffffffffffffffffffffffffffffffffffffff163373ffffffffffffffffffffffffffffffffffffffff161461071d576040517f08c379a0000000000000000000000000000000000000000000000000000000008152600401610714906111cf565b60405180910390fd5b600073ffffffffffffffffffffffffffffffffffffffff16600560009054906101000a900473ffffffffffffffffffffffffffffffffffffffff1673ffffffffffffffffffffffffffffffffffffffff167f70aea8d848e8a90fb7661b227dc522eb6395c3dac71b63cb59edd5c9899b236460405160405180910390a36000600560006101000a81548173ffffffffffffffffffffffffffffffffffffffff021916908373ffffffffffffffffffffffffffffffffffffffff160217905550565b600560009054906101000a900473ffffffffffffffffffffffffffffffffffffffff1681565b6004805461081190611397565b80601f016020809104026020016040519081016040528092919081815260200182805461083d90611397565b801561088a5780601f1061085f5761010080835404028352916020019161088a565b820191906000526020600020905b81548152906001019060200180831161086d57829003601f168201915b505050505081565b600061089f338484610b20565b905092915050565b600c5481565b60095481565b6000600160008473ffffffffffffffffffffffffffffffffffffffff1673ffffffffffffffffffffffffffffffffffffffff16815260200190815260200160002060008373ffffffffffffffffffffffffffffffffffffffff1673ffffffffffffffffffffffffffffffffffffffff16815260200190815260200160002054905092915050565b600560009054906101000a900473ffffffffffffffffffffffffffffffffffffffff1673ffffffffffffffffffffffffffffffffffffffff163373ffffffffffffffffffffffffffffffffffffffff16146109ca576040517f08c379a00000000000000000000000000000000000000000000000000000000081526004016109c1906111cf565b60405180910390fd5b600073ffffffffffffffffffffffffffffffffffffffff168173ffffffffffffffffffffffffffffffffffffffff161415610a3a576040517f08c379a0000000000000000000000000000000000000000000000000000000008152600401610a319061114f565b60405180910390fd5b8073ffffffffffffffffffffffffffffffffffffffff16600560009054906101000a900473ffffffffffffffffffffffffffffffffffffffff1673ffffffffffffffffffffffffffffffffffffffff167f70aea8d848e8a90fb7661b227dc522eb6395c3dac71b63cb59edd5c9899b236460405160405180910390a380600560006101000a81548173ffffffffffffffffffffffffffffffffffffffff021916908373ffffffffffffffffffffffffffffffffffffffff16021790555050565b600660009054906101000a900473ffffffffffffffffffffffffffffffffffffffff1681565b60008073ffffffffffffffffffffffffffffffffffffffff168473ffffffffffffffffffffffffffffffffffffffff161415610b91576040517f08c379a0000000000000000000000000000000000000000000000000000000008152600401610b88906111af565b60405180910390fd5b600073ffffffffffffffffffffffffffffffffffffffff168373ffffffffffffffffffffffffffffffffffffffff161415610c01576040517f08c379a0000000000000000000000000000000000000000000000000000000008152600401610bf89061112f565b60405180910390fd5b60008060008673ffffffffffffffffffffffffffffffffffffffff1673ffffffffffffffffffffffffffffffffffffffff16815260200190815260200160002054905082811015610c87576040517f08c379a0000000000000000000000000000000000000000000000000000000008152600401610c7e9061118f565b60405180910390fd5b826000808773ffffffffffffffffffffffffffffffffffffffff1673ffffffffffffffffffffffffffffffffffffffff1681526020019081526020016000206000828254610cd591906112b7565b92505081905550610d246000808673ffffffffffffffffffffffffffffffffffffffff1673ffffffffffffffffffffffffffffffffffffffff1681526020019081526020016000205484610dd7565b6000808673ffffffffffffffffffffffffffffffffffffffff1673ffffffffffffffffffffffffffffffffffffffff168152602001908152602001600020819055508373ffffffffffffffffffffffffffffffffffffffff168573ffffffffffffffffffffffffffffffffffffffff167fddf252ad1be2c89b69c2b068fc378daa952ba7f163c4a11628f55a4df523b3ef85604051610dc3919061120f565b60405180910390a360019150509392505050565b6000808284610de69190611261565b905083811015610e1f577f4e487b7100000000000000000000000000000000000000000000000000000000600052600160045260246000fd5b8091505092915050565b600081359050610e388161163b565b92915050565b600081359050610e4d81611652565b92915050565b600060208284031215610e6557600080fd5b6000610e7384828501610e29565b91505092915050565b60008060408385031215610e8f57600080fd5b6000610e9d85828601610e29565b9250506020610eae85828601610e29565b9150509250929050565b600080600060608486031215610ecd57600080fd5b6000610edb86828701610e29565b9350506020610eec86828701610e29565b9250506040610efd86828701610e3e565b9150509250925092565b60008060408385031215610f1a57600080fd5b6000610f2885828601610e29565b9250506020610f3985828601610e3e565b9150509250929050565b610f4c816112eb565b82525050565b610f5b816112fd565b82525050565b610f6a81611340565b82525050565b6000610f7b82611245565b610f858185611250565b9350610f95818560208601611364565b610f9e81611427565b840191505092915050565b6000610fb6602383611250565b9150610fc182611438565b604082019050919050565b6000610fd9602683611250565b9150610fe482611487565b604082019050919050565b6000610ffc602283611250565b9150611007826114d6565b604082019050919050565b600061101f602683611250565b915061102a82611525565b604082019050919050565b6000611042602583611250565b915061104d82611574565b604082019050919050565b6000611065601e83611250565b9150611070826115c3565b602082019050919050565b6000611088602483611250565b9150611093826115ec565b604082019050919050565b6110a781611329565b82525050565b6110b681611333565b82525050565b60006020820190506110d16000830184610f43565b92915050565b60006020820190506110ec6000830184610f52565b92915050565b60006020820190506111076000830184610f61565b92915050565b600060208201905081810360008301526111278184610f70565b905092915050565b6000602082019050818103600083015261114881610fa9565b9050919050565b6000602082019050818103600083015261116881610fcc565b9050919050565b6000602082019050818103600083015261118881610fef565b9050919050565b600060208201905081810360008301526111a881611012565b9050919050565b600060208201905081810360008301526111c881611035565b9050919050565b600060208201905081810360008301526111e881611058565b9050919050565b600060208201905081810360008301526112088161107b565b9050919050565b6000602082019050611224600083018461109e565b92915050565b600060208201905061123f60008301846110ad565b92915050565b600081519050919050565b600082825260208201905092915050565b600061126c82611329565b915061127783611329565b9250827fffffffffffffffffffffffffffffffffffffffffffffffffffffffffffffffff038211156112ac576112ab6113c9565b5b828201905092915050565b60006112c282611329565b91506112cd83611329565b9250828210156112e0576112df6113c9565b5b828203905092915050565b60006112f682611309565b9050919050565b60008115159050919050565b600073ffffffffffffffffffffffffffffffffffffffff82169050919050565b6000819050919050565b600060ff82169050919050565b600061134b82611352565b9050919050565b600061135d82611309565b9050919050565b60005b83811015611382578082015181840152602081019050611367565b83811115611391576000848401525b50505050565b600060028204905060018216806113af57607f821691505b602082108114156113c3576113c26113f8565b5b50919050565b7f4e487b7100000000000000000000000000000000000000000000000000000000600052601160045260246000fd5b7f4e487b7100000000000000000000000000000000000000000000000000000000600052602260045260246000fd5b6000601f19601f8301169050919050565b7f45524332303a207472616e7366657220746f20746865207a65726f206164647260008201527f6573730000000000000000000000000000000000000000000000000000000000602082015250565b7f4f776e61626c653a206e6577206f776e657220697320746865207a65726f206160008201527f6464726573730000000000000000000000000000000000000000000000000000602082015250565b7f45524332303a20617070726f766520746f20746865207a65726f20616464726560008201527f7373000000000000000000000000000000000000000000000000000000000000602082015250565b7f45524332303a207472616e7366657220616d6f756e742065786365656473206260008201527f616c616e63650000000000000000000000000000000000000000000000000000602082015250565b7f45524332303a207472616e736665722066726f6d20746865207a65726f20616460008201527f6472657373000000000000000000000000000000000000000000000000000000602082015250565b7f4f776e65643a2063616c6c6572206973206e6f7420746865206f776e65720000600082015250565b7f45524332303a20617070726f76652066726f6d20746865207a65726f2061646460008201527f7265737300000000000000000000000000000000000000000000000000000000602082015250565b611644816112eb565b811461164f57600080fd5b50565b61165b81611329565b811461166657600080fd5b5056fea264697066735822122084f2b562f90e66e71ea61077e14c1597ef15ee1b31d4836325edbd2a5e14541664736f6c6343000804003360806040523480156200001157600080fd5b506040516200141738038062001417833981810160405281019062000037919062000193565b81600390805190602001906200004f92919062000071565b5080600490805190602001906200006892919062000071565b50505062000376565b8280546200007f906200029b565b90600052602060002090601f016020900481019282620000a35760008555620000ef565b82601f10620000be57805160ff1916838001178555620000ef565b82800160010185558215620000ef579182015b82811115620000ee578251825591602001919060010190620000d1565b5b509050620000fe919062000102565b5090565b5b808211156200011d57600081600090555060010162000103565b5090565b60006200013862000132846200022f565b62000206565b9050828152602081018484840111156200015157600080fd5b6200015e84828562000265565b509392505050565b600082601f8301126200017857600080fd5b81516200018a84826020860162000121565b91505092915050565b60008060408385031215620001a757600080fd5b600083015167ffffffffffffffff811115620001c257600080fd5b620001d08582860162000166565b925050602083015167ffffffffffffffff811115620001ee57600080fd5b620001fc8582860162000166565b9150509250929050565b60006200021262000225565b9050620002208282620002d1565b919050565b6000604051905090565b600067ffffffffffffffff8211156200024d576200024c62000336565b5b620002588262000365565b9050602081019050919050565b60005b838110156200028557808201518184015260208101905062000268565b8381111562000295576000848401525b50505050565b60006002820490506001821680620002b457607f821691505b60208210811415620002cb57620002ca62000307565b5b50919050565b620002dc8262000365565b810181811067ffffffffffffffff82111715620002fe57620002fd62000336565b5b80604052505050565b7f4e487b7100000000000000000000000000000000000000000000000000000000600052602260045260246000fd5b7f4e487b7100000000000000000000000000000000000000000000000000000000600052604160045260246000fd5b6000601f19601f8301169050919050565b61109180620003866000396000f3fe608060405234801561001057600080fd5b50600436106100935760003560e01c8063313ce56711610066578063313ce5671461013457806370a082311461015257806395d89b4114610182578063a9059cbb146101a0578063dd62ed3e146101d057610093565b806306fdde0314610098578063095ea7b3146100b657806318160ddd146100e657806323b872dd14610104575b600080fd5b6100a0610200565b6040516100ad9190610bdb565b60405180910390f35b6100d060048036038101906100cb9190610a6f565b61028e565b6040516100dd9190610bc0565b60405180910390f35b6100ee61045f565b6040516100fb9190610c9d565b60405180910390f35b61011e60048036038101906101199190610a20565b610469565b60405161012b9190610bc0565b60405180910390f35b61013c61050d565b6040516101499190610cb8565b60405180910390f35b61016c600480360381019061016791906109bb565b610516565b6040516101799190610c9d565b60405180910390f35b61018a61055e565b6040516101979190610bdb565b60405180910390f35b6101ba60048036038101906101b59190610a6f565b6105ec565b6040516101c79190610bc0565b60405180910390f35b6101ea60048036038101906101e591906109e4565b610601565b6040516101f79190610c9d565b60405180910390f35b6003805461020d90610e01565b80601f016020809104026020016040519081016040528092919081815260200182805461023990610e01565b80156102865780601f1061025b57610100808354040283529160200191610286565b820191906000526020600020905b81548152906001019060200180831161026957829003601f168201915b505050505081565b60008073ffffffffffffffffffffffffffffffffffffffff163373ffffffffffffffffffffffffffffffffffffffff1614156102ff576040517f08c379a00000000000000000000000000000000000000000000000000000000081526004016102f690610c7d565b60405180910390fd5b600073ffffffffffffffffffffffffffffffffffffffff168373ffffffffffffffffffffffffffffffffffffffff16141561036f576040517f08c379a000000000000000000000000000000000000000000000000000000000815260040161036690610c1d565b60405180910390fd5b81600160003373ffffffffffffffffffffffffffffffffffffffff1673ffffffffffffffffffffffffffffffffffffffff16815260200190815260200160002060008573ffffffffffffffffffffffffffffffffffffffff1673ffffffffffffffffffffffffffffffffffffffff168152602001908152602001600020819055508273ffffffffffffffffffffffffffffffffffffffff163373ffffffffffffffffffffffffffffffffffffffff167f8c5be1e5ebec7d5bd14f71427d1e84f3dd0314c0f7b2291e5b200ac8c7c3b9258460405161044d9190610c9d565b60405180910390a36001905092915050565b6000600254905090565b600080600160008673ffffffffffffffffffffffffffffffffffffffff1673ffffffffffffffffffffffffffffffffffffffff16815260200190815260200160002060003373ffffffffffffffffffffffffffffffffffffffff1673ffffffffffffffffffffffffffffffffffffffff168152602001908152602001600020549050828110156104f857600080fd5b610503858585610688565b9150509392505050565b60006012905090565b60008060008373ffffffffffffffffffffffffffffffffffffffff1673ffffffffffffffffffffffffffffffffffffffff168152602001908152602001600020549050919050565b6004805461056b90610e01565b80601f016020809104026020016040519081016040528092919081815260200182805461059790610e01565b80156105e45780601f106105b9576101008083540402835291602001916105e4565b820191906000526020600020905b8154815290600101906020018083116105c757829003601f168201915b505050505081565b60006105f9338484610688565b905092915050565b6000600160008473ffffffffffffffffffffffffffffffffffffffff1673ffffffffffffffffffffffffffffffffffffffff16815260200190815260200160002060008373ffffffffffffffffffffffffffffffffffffffff1673ffffffffffffffffffffffffffffffffffffffff16815260200190815260200160002054905092915050565b60008073ffffffffffffffffffffffffffffffffffffffff168473ffffffffffffffffffffffffffffffffffffffff1614156106f9576040517f08c379a00000000000000000000000000000000000000000000000000000000081526004016106f090610c5d565b60405180910390fd5b600073ffffffffffffffffffffffffffffffffffffffff168373ffffffffffffffffffffffffffffffffffffffff161415610769576040517f08c379a000000000000000000000000000000000000000000000000000000000815260040161076090610bfd565b60405180910390fd5b60008060008673ffffffffffffffffffffffffffffffffffffffff1673ffffffffffffffffffffffffffffffffffffffff168152602001908152602001600020549050828110156107ef576040517f08c379a00000000000000000000000000000000000000000000000000000000081526004016107e690610c3d565b60405180910390fd5b826000808773ffffffffffffffffffffffffffffffffffffffff1673ffffffffffffffffffffffffffffffffffffffff168152602001908152602001600020600082825461083d9190610d45565b9250508190555061088c6000808673ffffffffffffffffffffffffffffffffffffffff1673ffffffffffffffffffffffffffffffffffffffff168152602001908152602001600020548461093f565b6000808673ffffffffffffffffffffffffffffffffffffffff1673ffffffffffffffffffffffffffffffffffffffff168152602001908152602001600020819055508373ffffffffffffffffffffffffffffffffffffffff168573ffffffffffffffffffffffffffffffffffffffff167fddf252ad1be2c89b69c2b068fc378daa952ba7f163c4a11628f55a4df523b3ef8560405161092b9190610c9d565b60405180910390a360019150509392505050565b600080828461094e9190610cef565b905083811015610987577f4e487b7100000000000000000000000000000000000000000000000000000000600052600160045260246000fd5b8091505092915050565b6000813590506109a08161102d565b92915050565b6000813590506109b581611044565b92915050565b6000602082840312156109cd57600080fd5b60006109db84828501610991565b91505092915050565b600080604083850312156109f757600080fd5b6000610a0585828601610991565b9250506020610a1685828601610991565b9150509250929050565b600080600060608486031215610a3557600080fd5b6000610a4386828701610991565b9350506020610a5486828701610991565b9250506040610a65868287016109a6565b9150509250925092565b60008060408385031215610a8257600080fd5b6000610a9085828601610991565b9250506020610aa1858286016109a6565b9150509250929050565b610ab481610d8b565b82525050565b6000610ac582610cd3565b610acf8185610cde565b9350610adf818560208601610dce565b610ae881610e91565b840191505092915050565b6000610b00602383610cde565b9150610b0b82610ea2565b604082019050919050565b6000610b23602283610cde565b9150610b2e82610ef1565b604082019050919050565b6000610b46602683610cde565b9150610b5182610f40565b604082019050919050565b6000610b69602583610cde565b9150610b7482610f8f565b604082019050919050565b6000610b8c602483610cde565b9150610b9782610fde565b604082019050919050565b610bab81610db7565b82525050565b610bba81610dc1565b82525050565b6000602082019050610bd56000830184610aab565b92915050565b60006020820190508181036000830152610bf58184610aba565b905092915050565b60006020820190508181036000830152610c1681610af3565b9050919050565b60006020820190508181036000830152610c3681610b16565b9050919050565b60006020820190508181036000830152610c5681610b39565b9050919050565b60006020820190508181036000830152610c7681610b5c565b9050919050565b60006020820190508181036000830152610c9681610b7f565b9050919050565b6000602082019050610cb26000830184610ba2565b92915050565b6000602082019050610ccd6000830184610bb1565b92915050565b600081519050919050565b600082825260208201905092915050565b6000610cfa82610db7565b9150610d0583610db7565b9250827fffffffffffffffffffffffffffffffffffffffffffffffffffffffffffffffff03821115610d3a57610d39610e33565b5b828201905092915050565b6000610d5082610db7565b9150610d5b83610db7565b925082821015610d6e57610d6d610e33565b5b828203905092915050565b6000610d8482610d97565b9050919050565b60008115159050919050565b600073ffffffffffffffffffffffffffffffffffffffff82169050919050565b6000819050919050565b600060ff82169050919050565b60005b83811015610dec578082015181840152602081019050610dd1565b83811115610dfb576000848401525b50505050565b60006002820490506001821680610e1957607f821691505b60208210811415610e2d57610e2c610e62565b5b50919050565b7f4e487b7100000000000000000000000000000000000000000000000000000000600052601160045260246000fd5b7f4e487b7100000000000000000000000000000000000000000000000000000000600052602260045260246000fd5b6000601f19601f8301169050919050565b7f45524332303a207472616e7366657220746f20746865207a65726f206164647260008201527f6573730000000000000000000000000000000000000000000000000000000000602082015250565b7f45524332303a20617070726f766520746f20746865207a65726f20616464726560008201527f7373000000000000000000000000000000000000000000000000000000000000602082015250565b7f45524332303a207472616e7366657220616d6f756e742065786365656473206260008201527f616c616e63650000000000000000000000000000000000000000000000000000602082015250565b7f45524332303a207472616e736665722066726f6d20746865207a65726f20616460008201527f6472657373000000000000000000000000000000000000000000000000000000602082015250565b7f45524332303a20617070726f76652066726f6d20746865207a65726f2061646460008201527f7265737300000000000000000000000000000000000000000000000000000000602082015250565b61103681610d79565b811461104157600080fd5b50565b61104d81610db7565b811461105857600080fd5b5056fea2646970667358221220ab4eb636608e9c3092afb83073e9b8a46f6f0906a4be556a6fafbceed8f1827c64736f6c63430008040033",
  "immutableReferences": {},
  "source": "// SPDX-License-Identifier: MIT\npragma solidity 0.8.4;\n\nimport \"./ERC20/ERC20.sol\";\nimport \"./ERC20/Owned.sol\";\n\ncontract ICO is ERC20(\"Rare Platform Token\", \"RPT\"), Owned {\n    ERC20 public token;\n\n    uint256 private totalSupply_ = 5000 ether;\n    uint256 public rateOfChange = 1000;\n    uint256 public raisedAmount;\n    uint256 private minInvestment;\n    uint256 private maxInvestment;\n    uint256 public nbOfInvestors;\n    address payable private depositETHAddress;\n\n    mapping(address => bool) investors;\n\n    event State(address _address);\n\n    constructor(address payable _depositETHAddress) {\n        token = new ERC20(\"Rare Platform Token\", \"RPT\");\n\n        depositETHAddress = _depositETHAddress;\n        mint(msg.sender, totalSupply_);\n\n        minInvestment = 0.01 ether;\n        maxInvestment = 10 ether;\n    }\n}\n",
  "sourcePath": "/Users/samuel/Documents/Projet_Job/Candidatures/RarePorn/contracts/ICO.sol",
  "compiler": {
    "name": "solc",
    "version": "0.8.4+commit.c7e474f2.Emscripten.clang"
  },
  "schemaVersion": "3.3.4",
  "updatedAt": "2021-06-11T02:56:26.150Z",
  "networkType": "ethereum",
  "devdoc": {
    "kind": "dev",
    "methods": {
      "totalSupply()": {
        "details": "returns the total amount of tokens in existence right now, minus any tokens that have been burned."
      }
    },
    "version": 1
  },
  "userdoc": {
    "kind": "user",
    "methods": {},
    "version": 1
  }
}