{
  "contractName": "ICO",
  "abi": [
    {
      "inputs": [
        {
          "internalType": "address payable",
          "name": "_depositETHAddress",
          "type": "address"
        }
      ],
      "stateMutability": "nonpayable",
      "type": "constructor"
    },
    {
      "anonymous": false,
      "inputs": [
        {
          "indexed": true,
          "internalType": "address",
          "name": "owner",
          "type": "address"
        },
        {
          "indexed": true,
          "internalType": "address",
          "name": "spender",
          "type": "address"
        },
        {
          "indexed": false,
          "internalType": "uint256",
          "name": "tokens",
          "type": "uint256"
        }
      ],
      "name": "Approval",
      "type": "event"
    },
    {
      "anonymous": false,
      "inputs": [
        {
          "indexed": true,
          "internalType": "address",
          "name": "oldOwner",
          "type": "address"
        },
        {
          "indexed": true,
          "internalType": "address",
          "name": "newOwner",
          "type": "address"
        }
      ],
      "name": "NewOwner",
      "type": "event"
    },
    {
      "anonymous": false,
      "inputs": [
        {
          "indexed": false,
          "internalType": "address",
          "name": "_address",
          "type": "address"
        }
      ],
      "name": "State",
      "type": "event"
    },
    {
      "anonymous": false,
      "inputs": [
        {
          "indexed": true,
          "internalType": "address",
          "name": "from",
          "type": "address"
        },
        {
          "indexed": true,
          "internalType": "address",
          "name": "to",
          "type": "address"
        },
        {
          "indexed": false,
          "internalType": "uint256",
          "name": "tokens",
          "type": "uint256"
        }
      ],
      "name": "Transfer",
      "type": "event"
    },
    {
      "stateMutability": "payable",
      "type": "fallback",
      "payable": true
    },
    {
      "inputs": [
        {
          "internalType": "address",
          "name": "_owner",
          "type": "address"
        },
        {
          "internalType": "address",
          "name": "_spender",
          "type": "address"
        }
      ],
      "name": "allowance",
      "outputs": [
        {
          "internalType": "uint256",
          "name": "",
          "type": "uint256"
        }
      ],
      "stateMutability": "view",
      "type": "function",
      "constant": true
    },
    {
      "inputs": [
        {
          "internalType": "address",
          "name": "_spender",
          "type": "address"
        },
        {
          "internalType": "uint256",
          "name": "_tokens",
          "type": "uint256"
        }
      ],
      "name": "approve",
      "outputs": [
        {
          "internalType": "bool",
          "name": "",
          "type": "bool"
        }
      ],
      "stateMutability": "nonpayable",
      "type": "function"
    },
    {
      "inputs": [
        {
          "internalType": "address",
          "name": "_account",
          "type": "address"
        }
      ],
      "name": "balanceOf",
      "outputs": [
        {
          "internalType": "uint256",
          "name": "",
          "type": "uint256"
        }
      ],
      "stateMutability": "view",
      "type": "function",
      "constant": true
    },
    {
      "inputs": [],
      "name": "decimals",
      "outputs": [
        {
          "internalType": "uint8",
          "name": "",
          "type": "uint8"
        }
      ],
      "stateMutability": "pure",
      "type": "function",
      "constant": true
    },
    {
      "inputs": [],
      "name": "depositETHAddress",
      "outputs": [
        {
          "internalType": "address payable",
          "name": "",
          "type": "address"
        }
      ],
      "stateMutability": "view",
      "type": "function",
      "constant": true
    },
    {
      "inputs": [
        {
          "internalType": "address",
          "name": "",
          "type": "address"
        }
      ],
      "name": "investors",
      "outputs": [
        {
          "internalType": "bool",
          "name": "",
          "type": "bool"
        }
      ],
      "stateMutability": "view",
      "type": "function",
      "constant": true
    },
    {
      "inputs": [],
      "name": "name",
      "outputs": [
        {
          "internalType": "string",
          "name": "",
          "type": "string"
        }
      ],
      "stateMutability": "view",
      "type": "function",
      "constant": true
    },
    {
      "inputs": [],
      "name": "raisedAmount",
      "outputs": [
        {
          "internalType": "uint256",
          "name": "",
          "type": "uint256"
        }
      ],
      "stateMutability": "view",
      "type": "function",
      "constant": true
    },
    {
      "inputs": [],
      "name": "rateOfChange",
      "outputs": [
        {
          "internalType": "uint256",
          "name": "",
          "type": "uint256"
        }
      ],
      "stateMutability": "view",
      "type": "function",
      "constant": true
    },
    {
      "inputs": [],
      "name": "renounceOwnership",
      "outputs": [],
      "stateMutability": "nonpayable",
      "type": "function"
    },
    {
      "inputs": [],
      "name": "symbol",
      "outputs": [
        {
          "internalType": "string",
          "name": "",
          "type": "string"
        }
      ],
      "stateMutability": "view",
      "type": "function",
      "constant": true
    },
    {
      "inputs": [],
      "name": "totalSupply",
      "outputs": [
        {
          "internalType": "uint256",
          "name": "",
          "type": "uint256"
        }
      ],
      "stateMutability": "view",
      "type": "function",
      "constant": true
    },
    {
      "inputs": [
        {
          "internalType": "address",
          "name": "_to",
          "type": "address"
        },
        {
          "internalType": "uint256",
          "name": "_tokens",
          "type": "uint256"
        }
      ],
      "name": "transfer",
      "outputs": [
        {
          "internalType": "bool",
          "name": "",
          "type": "bool"
        }
      ],
      "stateMutability": "nonpayable",
      "type": "function"
    },
    {
      "inputs": [
        {
          "internalType": "address",
          "name": "_from",
          "type": "address"
        },
        {
          "internalType": "address",
          "name": "_to",
          "type": "address"
        },
        {
          "internalType": "uint256",
          "name": "_tokens",
          "type": "uint256"
        }
      ],
      "name": "transferFrom",
      "outputs": [
        {
          "internalType": "bool",
          "name": "",
          "type": "bool"
        }
      ],
      "stateMutability": "nonpayable",
      "type": "function"
    },
    {
      "inputs": [
        {
          "internalType": "address",
          "name": "_newOwner",
          "type": "address"
        }
      ],
      "name": "transferOwnership",
      "outputs": [],
      "stateMutability": "nonpayable",
      "type": "function"
    },
    {
      "stateMutability": "payable",
      "type": "receive",
      "payable": true
    },
    {
      "inputs": [],
      "name": "buyToken",
      "outputs": [],
      "stateMutability": "payable",
      "type": "function",
      "payable": true
    },
    {
      "inputs": [],
      "name": "getListOfUsers",
      "outputs": [
        {
          "internalType": "address[]",
          "name": "",
          "type": "address[]"
        }
      ],
      "stateMutability": "view",
      "type": "function",
      "constant": true
    },
    {
      "inputs": [],
      "name": "getOwnerAddress",
      "outputs": [
        {
          "internalType": "address",
          "name": "",
          "type": "address"
        }
      ],
      "stateMutability": "view",
      "type": "function",
      "constant": true
    }
  ],
  "bytecode": "0x608060405233600560006101000a81548173ffffffffffffffffffffffffffffffffffffffff021916908373ffffffffffffffffffffffffffffffffffffffff1602179055506969e10de76676d08000006006556103e86007553480156200006657600080fd5b506040516200255f3803806200255f83398181016040528101906200008c919062000467565b6040518060400160405280601381526020017f5261726520506c6174666f726d20546f6b656e000000000000000000000000008152506040518060400160405280600381526020017f5250540000000000000000000000000000000000000000000000000000000000815250816003908051906020019062000110929190620003a0565b50806004908051906020019062000129929190620003a0565b50505080600c60006101000a81548173ffffffffffffffffffffffffffffffffffffffff021916908373ffffffffffffffffffffffffffffffffffffffff1602179055506200018133600654620001a560201b60201c565b662386f26fc10000600981905550678ac7230489e80000600a81905550506200068d565b600073ffffffffffffffffffffffffffffffffffffffff168273ffffffffffffffffffffffffffffffffffffffff16141562000218576040517f08c379a00000000000000000000000000000000000000000000000000000000081526004016200020f90620004cb565b60405180910390fd5b6200022c600083836200034660201b60201c565b62000240600254826200034b60201b60201c565b600281905550620002986000808473ffffffffffffffffffffffffffffffffffffffff1673ffffffffffffffffffffffffffffffffffffffff168152602001908152602001600020546002546200034b60201b60201c565b6000808473ffffffffffffffffffffffffffffffffffffffff1673ffffffffffffffffffffffffffffffffffffffff168152602001908152602001600020819055508173ffffffffffffffffffffffffffffffffffffffff16600073ffffffffffffffffffffffffffffffffffffffff167fddf252ad1be2c89b69c2b068fc378daa952ba7f163c4a11628f55a4df523b3ef836040516200033a9190620004ed565b60405180910390a35050565b505050565b60008082846200035c91906200051b565b90508381101562000396577f4e487b7100000000000000000000000000000000000000000000000000000000600052600160045260246000fd5b8091505092915050565b828054620003ae90620005b6565b90600052602060002090601f016020900481019282620003d257600085556200041e565b82601f10620003ed57805160ff19168380011785556200041e565b828001600101855582156200041e579182015b828111156200041d57825182559160200191906001019062000400565b5b5090506200042d919062000431565b5090565b5b808211156200044c57600081600090555060010162000432565b5090565b600081519050620004618162000673565b92915050565b6000602082840312156200047a57600080fd5b60006200048a8482850162000450565b91505092915050565b6000620004a2601f836200050a565b9150620004af826200064a565b602082019050919050565b620004c581620005ac565b82525050565b60006020820190508181036000830152620004e68162000493565b9050919050565b6000602082019050620005046000830184620004ba565b92915050565b600082825260208201905092915050565b60006200052882620005ac565b91506200053583620005ac565b9250827fffffffffffffffffffffffffffffffffffffffffffffffffffffffffffffffff038211156200056d576200056c620005ec565b5b828201905092915050565b600062000585826200058c565b9050919050565b600073ffffffffffffffffffffffffffffffffffffffff82169050919050565b6000819050919050565b60006002820490506001821680620005cf57607f821691505b60208210811415620005e657620005e56200061b565b5b50919050565b7f4e487b7100000000000000000000000000000000000000000000000000000000600052601160045260246000fd5b7f4e487b7100000000000000000000000000000000000000000000000000000000600052602260045260246000fd5b7f45524332303a206d696e7420746f20746865207a65726f206164647265737300600082015250565b6200067e8162000578565b81146200068a57600080fd5b50565b611ec2806200069d6000396000f3fe60806040526004361061010d5760003560e01c806370a0823111610095578063a482171911610064578063a4821719146103b8578063a9059cbb146103c2578063c59ee1dc146103ff578063dd62ed3e1461042a578063f2fde38b146104675761014b565b806370a082311461030e578063715018a61461034b57806376ce574b1461036257806395d89b411461038d5761014b565b806323b872dd116100dc57806323b872dd14610213578063313ce5671461025057806337b526671461027b5780636b0a26d2146102a65780636f7bc9be146102d15761014b565b806306fdde0314610155578063095ea7b3146101805780630c4f65bd146101bd57806318160ddd146101e85761014b565b3661014b577f950567f94688704edec9b1229bc9aad0452c63356d16cc35c3f9c9648fb43ec63360405161014191906116f2565b60405180910390a1005b610153610490565b005b34801561016157600080fd5b5061016a6107da565b6040516101779190611765565b60405180910390f35b34801561018c57600080fd5b506101a760048036038101906101a2919061142c565b610868565b6040516101b4919061174a565b60405180910390f35b3480156101c957600080fd5b506101d2610a39565b6040516101df91906116f2565b60405180910390f35b3480156101f457600080fd5b506101fd610a63565b60405161020a91906118e7565b60405180910390f35b34801561021f57600080fd5b5061023a600480360381019061023591906113dd565b610a6d565b604051610247919061174a565b60405180910390f35b34801561025c57600080fd5b50610265610b13565b6040516102729190611902565b60405180910390f35b34801561028757600080fd5b50610290610b1c565b60405161029d9190611728565b60405180910390f35b3480156102b257600080fd5b506102bb610baa565b6040516102c891906118e7565b60405180910390f35b3480156102dd57600080fd5b506102f860048036038101906102f39190611378565b610bb0565b604051610305919061174a565b60405180910390f35b34801561031a57600080fd5b5061033560048036038101906103309190611378565b610bd0565b60405161034291906118e7565b60405180910390f35b34801561035757600080fd5b50610360610c18565b005b34801561036e57600080fd5b50610377610d69565b604051610384919061170d565b60405180910390f35b34801561039957600080fd5b506103a2610d8f565b6040516103af9190611765565b60405180910390f35b6103c0610490565b005b3480156103ce57600080fd5b506103e960048036038101906103e4919061142c565b610e1d565b6040516103f6919061174a565b60405180910390f35b34801561040b57600080fd5b50610414610e34565b60405161042191906118e7565b60405180910390f35b34801561043657600080fd5b50610451600480360381019061044c91906113a1565b610e3a565b60405161045e91906118e7565b60405180910390f35b34801561047357600080fd5b5061048e60048036038101906104899190611378565b610ec1565b005b6000600560009054906101000a900473ffffffffffffffffffffffffffffffffffffffff1690508073ffffffffffffffffffffffffffffffffffffffff163373ffffffffffffffffffffffffffffffffffffffff161415610526576040517f08c379a000000000000000000000000000000000000000000000000000000000815260040161051d90611847565b60405180910390fd5b6000341415801561054d57503373ffffffffffffffffffffffffffffffffffffffff163134105b61058c576040517f08c379a000000000000000000000000000000000000000000000000000000000815260040161058390611827565b60405180910390fd5b6006543460085461059d9190611972565b11156105de576040517f08c379a00000000000000000000000000000000000000000000000000000000081526004016105d5906117e7565b60405180910390fd5b60095434101580156105f25750600a543411155b610631576040517f08c379a000000000000000000000000000000000000000000000000000000000815260040161062890611867565b60405180910390fd5b61063d60085434611081565b600881905550600d60003373ffffffffffffffffffffffffffffffffffffffff1673ffffffffffffffffffffffffffffffffffffffff16815260200190815260200160002060009054906101000a900460ff1661075057600b339080600181540180825580915050600190039060005260206000200160009091909190916101000a81548173ffffffffffffffffffffffffffffffffffffffff021916908373ffffffffffffffffffffffffffffffffffffffff1602179055506001600d60003373ffffffffffffffffffffffffffffffffffffffff1673ffffffffffffffffffffffffffffffffffffffff16815260200190815260200160002060006101000a81548160ff0219169083151502179055505b60006007543461076091906119c8565b9050600c60009054906101000a900473ffffffffffffffffffffffffffffffffffffffff1673ffffffffffffffffffffffffffffffffffffffff166108fc349081150290604051600060405180830381858888f193505050501580156107ca573d6000803e3d6000fd5b506107d68233836110d3565b5050565b600380546107e790611af0565b80601f016020809104026020016040519081016040528092919081815260200182805461081390611af0565b80156108605780601f1061083557610100808354040283529160200191610860565b820191906000526020600020905b81548152906001019060200180831161084357829003601f168201915b505050505081565b60008073ffffffffffffffffffffffffffffffffffffffff163373ffffffffffffffffffffffffffffffffffffffff1614156108d9576040517f08c379a00000000000000000000000000000000000000000000000000000000081526004016108d0906118c7565b60405180910390fd5b600073ffffffffffffffffffffffffffffffffffffffff168373ffffffffffffffffffffffffffffffffffffffff161415610949576040517f08c379a0000000000000000000000000000000000000000000000000000000008152600401610940906117c7565b60405180910390fd5b81600160003373ffffffffffffffffffffffffffffffffffffffff1673ffffffffffffffffffffffffffffffffffffffff16815260200190815260200160002060008573ffffffffffffffffffffffffffffffffffffffff1673ffffffffffffffffffffffffffffffffffffffff168152602001908152602001600020819055508273ffffffffffffffffffffffffffffffffffffffff163373ffffffffffffffffffffffffffffffffffffffff167f8c5be1e5ebec7d5bd14f71427d1e84f3dd0314c0f7b2291e5b200ac8c7c3b92584604051610a2791906118e7565b60405180910390a36001905092915050565b6000600560009054906101000a900473ffffffffffffffffffffffffffffffffffffffff16905090565b6000600254905090565b600080600160008673ffffffffffffffffffffffffffffffffffffffff1673ffffffffffffffffffffffffffffffffffffffff16815260200190815260200160002060003373ffffffffffffffffffffffffffffffffffffffff1673ffffffffffffffffffffffffffffffffffffffff16815260200190815260200160002054905082811015610afc57600080fd5b610b078585856110d3565b60019150509392505050565b60006012905090565b6060600b805480602002602001604051908101604052809291908181526020018280548015610ba057602002820191906000526020600020905b8160009054906101000a900473ffffffffffffffffffffffffffffffffffffffff1673ffffffffffffffffffffffffffffffffffffffff1681526020019060010190808311610b56575b5050505050905090565b60075481565b600d6020528060005260406000206000915054906101000a900460ff1681565b60008060008373ffffffffffffffffffffffffffffffffffffffff1673ffffffffffffffffffffffffffffffffffffffff168152602001908152602001600020549050919050565b600560009054906101000a900473ffffffffffffffffffffffffffffffffffffffff1673ffffffffffffffffffffffffffffffffffffffff163373ffffffffffffffffffffffffffffffffffffffff1614610ca8576040517f08c379a0000000000000000000000000000000000000000000000000000000008152600401610c9f906118a7565b60405180910390fd5b600073ffffffffffffffffffffffffffffffffffffffff16600560009054906101000a900473ffffffffffffffffffffffffffffffffffffffff1673ffffffffffffffffffffffffffffffffffffffff167f70aea8d848e8a90fb7661b227dc522eb6395c3dac71b63cb59edd5c9899b236460405160405180910390a36000600560006101000a81548173ffffffffffffffffffffffffffffffffffffffff021916908373ffffffffffffffffffffffffffffffffffffffff160217905550565b600c60009054906101000a900473ffffffffffffffffffffffffffffffffffffffff1681565b60048054610d9c90611af0565b80601f0160208091040260200160405190810160405280929190818152602001828054610dc890611af0565b8015610e155780601f10610dea57610100808354040283529160200191610e15565b820191906000526020600020905b815481529060010190602001808311610df857829003601f168201915b505050505081565b6000610e2a3384846110d3565b6001905092915050565b60085481565b6000600160008473ffffffffffffffffffffffffffffffffffffffff1673ffffffffffffffffffffffffffffffffffffffff16815260200190815260200160002060008373ffffffffffffffffffffffffffffffffffffffff1673ffffffffffffffffffffffffffffffffffffffff16815260200190815260200160002054905092915050565b600560009054906101000a900473ffffffffffffffffffffffffffffffffffffffff1673ffffffffffffffffffffffffffffffffffffffff163373ffffffffffffffffffffffffffffffffffffffff1614610f51576040517f08c379a0000000000000000000000000000000000000000000000000000000008152600401610f48906118a7565b60405180910390fd5b600073ffffffffffffffffffffffffffffffffffffffff168173ffffffffffffffffffffffffffffffffffffffff161415610fc1576040517f08c379a0000000000000000000000000000000000000000000000000000000008152600401610fb8906117a7565b60405180910390fd5b8073ffffffffffffffffffffffffffffffffffffffff16600560009054906101000a900473ffffffffffffffffffffffffffffffffffffffff1673ffffffffffffffffffffffffffffffffffffffff167f70aea8d848e8a90fb7661b227dc522eb6395c3dac71b63cb59edd5c9899b236460405160405180910390a380600560006101000a81548173ffffffffffffffffffffffffffffffffffffffff021916908373ffffffffffffffffffffffffffffffffffffffff16021790555050565b60008082846110909190611972565b9050838110156110c9577f4e487b7100000000000000000000000000000000000000000000000000000000600052600160045260246000fd5b8091505092915050565b600073ffffffffffffffffffffffffffffffffffffffff168373ffffffffffffffffffffffffffffffffffffffff161415611143576040517f08c379a000000000000000000000000000000000000000000000000000000000815260040161113a90611887565b60405180910390fd5b600073ffffffffffffffffffffffffffffffffffffffff168273ffffffffffffffffffffffffffffffffffffffff1614156111b3576040517f08c379a00000000000000000000000000000000000000000000000000000000081526004016111aa90611787565b60405180910390fd5b60008060008573ffffffffffffffffffffffffffffffffffffffff1673ffffffffffffffffffffffffffffffffffffffff16815260200190815260200160002054905081811015611239576040517f08c379a000000000000000000000000000000000000000000000000000000000815260040161123090611807565b60405180910390fd5b816000808673ffffffffffffffffffffffffffffffffffffffff1673ffffffffffffffffffffffffffffffffffffffff16815260200190815260200160002060008282546112879190611a22565b92505081905550816000808573ffffffffffffffffffffffffffffffffffffffff1673ffffffffffffffffffffffffffffffffffffffff16815260200190815260200160002060008282546112dc9190611972565b925050819055508273ffffffffffffffffffffffffffffffffffffffff168473ffffffffffffffffffffffffffffffffffffffff167fddf252ad1be2c89b69c2b068fc378daa952ba7f163c4a11628f55a4df523b3ef8460405161134091906118e7565b60405180910390a350505050565b60008135905061135d81611e5e565b92915050565b60008135905061137281611e75565b92915050565b60006020828403121561138a57600080fd5b60006113988482850161134e565b91505092915050565b600080604083850312156113b457600080fd5b60006113c28582860161134e565b92505060206113d38582860161134e565b9150509250929050565b6000806000606084860312156113f257600080fd5b60006114008682870161134e565b93505060206114118682870161134e565b925050604061142286828701611363565b9150509250925092565b6000806040838503121561143f57600080fd5b600061144d8582860161134e565b925050602061145e85828601611363565b9150509250929050565b6000611474838361148f565b60208301905092915050565b61148981611a68565b82525050565b61149881611a56565b82525050565b6114a781611a56565b82525050565b60006114b88261192d565b6114c28185611950565b93506114cd8361191d565b8060005b838110156114fe5781516114e58882611468565b97506114f083611943565b9250506001810190506114d1565b5085935050505092915050565b61151481611a7a565b82525050565b600061152582611938565b61152f8185611961565b935061153f818560208601611abd565b61154881611b80565b840191505092915050565b6000611560602383611961565b915061156b82611b91565b604082019050919050565b6000611583602683611961565b915061158e82611be0565b604082019050919050565b60006115a6602283611961565b91506115b182611c2f565b604082019050919050565b60006115c9600b83611961565b91506115d482611c7e565b602082019050919050565b60006115ec602683611961565b91506115f782611ca7565b604082019050919050565b600061160f601383611961565b915061161a82611cf6565b602082019050919050565b6000611632602483611961565b915061163d82611d1f565b604082019050919050565b6000611655601283611961565b915061166082611d6e565b602082019050919050565b6000611678602583611961565b915061168382611d97565b604082019050919050565b600061169b601e83611961565b91506116a682611de6565b602082019050919050565b60006116be602483611961565b91506116c982611e0f565b604082019050919050565b6116dd81611aa6565b82525050565b6116ec81611ab0565b82525050565b6000602082019050611707600083018461149e565b92915050565b60006020820190506117226000830184611480565b92915050565b6000602082019050818103600083015261174281846114ad565b905092915050565b600060208201905061175f600083018461150b565b92915050565b6000602082019050818103600083015261177f818461151a565b905092915050565b600060208201905081810360008301526117a081611553565b9050919050565b600060208201905081810360008301526117c081611576565b9050919050565b600060208201905081810360008301526117e081611599565b9050919050565b60006020820190508181036000830152611800816115bc565b9050919050565b60006020820190508181036000830152611820816115df565b9050919050565b6000602082019050818103600083015261184081611602565b9050919050565b6000602082019050818103600083015261186081611625565b9050919050565b6000602082019050818103600083015261188081611648565b9050919050565b600060208201905081810360008301526118a08161166b565b9050919050565b600060208201905081810360008301526118c08161168e565b9050919050565b600060208201905081810360008301526118e0816116b1565b9050919050565b60006020820190506118fc60008301846116d4565b92915050565b600060208201905061191760008301846116e3565b92915050565b6000819050602082019050919050565b600081519050919050565b600081519050919050565b6000602082019050919050565b600082825260208201905092915050565b600082825260208201905092915050565b600061197d82611aa6565b915061198883611aa6565b9250827fffffffffffffffffffffffffffffffffffffffffffffffffffffffffffffffff038211156119bd576119bc611b22565b5b828201905092915050565b60006119d382611aa6565b91506119de83611aa6565b9250817fffffffffffffffffffffffffffffffffffffffffffffffffffffffffffffffff0483118215151615611a1757611a16611b22565b5b828202905092915050565b6000611a2d82611aa6565b9150611a3883611aa6565b925082821015611a4b57611a4a611b22565b5b828203905092915050565b6000611a6182611a86565b9050919050565b6000611a7382611a86565b9050919050565b60008115159050919050565b600073ffffffffffffffffffffffffffffffffffffffff82169050919050565b6000819050919050565b600060ff82169050919050565b60005b83811015611adb578082015181840152602081019050611ac0565b83811115611aea576000848401525b50505050565b60006002820490506001821680611b0857607f821691505b60208210811415611b1c57611b1b611b51565b5b50919050565b7f4e487b7100000000000000000000000000000000000000000000000000000000600052601160045260246000fd5b7f4e487b7100000000000000000000000000000000000000000000000000000000600052602260045260246000fd5b6000601f19601f8301169050919050565b7f45524332303a207472616e7366657220746f20746865207a65726f206164647260008201527f6573730000000000000000000000000000000000000000000000000000000000602082015250565b7f4f776e61626c653a206e6577206f776e657220697320746865207a65726f206160008201527f6464726573730000000000000000000000000000000000000000000000000000602082015250565b7f45524332303a20617070726f766520746f20746865207a65726f20616464726560008201527f7373000000000000000000000000000000000000000000000000000000000000602082015250565b7f49434f206973206f766572000000000000000000000000000000000000000000600082015250565b7f45524332303a207472616e7366657220616d6f756e742065786365656473206260008201527f616c616e63650000000000000000000000000000000000000000000000000000602082015250565b7f49434f3a206e6f7420656e6f7567682065746800000000000000000000000000600082015250565b7f49434f3a2062757920746f6b656e207769746820636f6e74726163742061646460008201527f7265737300000000000000000000000000000000000000000000000000000000602082015250565b7f49434f3a206368616e676520616d6f756e740000000000000000000000000000600082015250565b7f45524332303a207472616e736665722066726f6d20746865207a65726f20616460008201527f6472657373000000000000000000000000000000000000000000000000000000602082015250565b7f4f776e65643a2063616c6c6572206973206e6f7420746865206f776e65720000600082015250565b7f45524332303a20617070726f76652066726f6d20746865207a65726f2061646460008201527f7265737300000000000000000000000000000000000000000000000000000000602082015250565b611e6781611a56565b8114611e7257600080fd5b50565b611e7e81611aa6565b8114611e8957600080fd5b5056fea2646970667358221220664bd8f85ad1e61a5b3648aede6f31d2428cce8a09e48d0082a2ad948e12866b64736f6c63430008040033",
  "immutableReferences": {},
  "source": "// SPDX-License-Identifier: MIT\npragma solidity 0.8.4;\n\nimport \"./ERC20/ERC20.sol\";\nimport \"./ERC20/Owned.sol\";\n\ncontract ICO is ERC20(\"Rare Platform Token\", \"RPT\"), Owned {\n    //***ERC20 public token;\n\n    uint256 private initialSupply = 500000 ether; // 1 eth = 10^(18) => decimals = 18\n    uint256 public rateOfChange = 1000;\n    uint256 public raisedAmount;\n    uint256 private minInvestment;\n    uint256 private maxInvestment;\n    address[] listOfInvestors;\n    address payable public depositETHAddress;\n\n    mapping(address => bool) public investors;\n\n    event State(address _address);\n\n    constructor(address payable _depositETHAddress) {\n        //***token = new ERC20(\"Rare Platform Token\", \"RPT\");\n\n        depositETHAddress = _depositETHAddress;\n        mint(msg.sender, initialSupply);\n\n        minInvestment = 0.01 ether;\n        maxInvestment = 10 ether;\n    }\n\n    function buyToken() public payable {\n        // get the owner address (the one used to deploy the contract)\n        address ownerAddress = owner;\n\n        // prevent the contract address to buy tokens\n        require(\n            msg.sender != ownerAddress,\n            \"ICO: buy token with contract address\"\n        );\n\n        // require enough eth to buy tokens\n        require(\n            msg.value != 0 && msg.value < msg.sender.balance,\n            \"ICO: not enough eth\"\n        );\n\n        // prevent buying tokens after all tokens have been sold out.\n        require(raisedAmount + msg.value <= initialSupply, \"ICO is over\");\n\n        // the amount to invest must be in range [minInvestment, maxInvestment]\n        require(\n            msg.value >= minInvestment && msg.value <= maxInvestment,\n            \"ICO: change amount\"\n        );\n\n        // update state variables before calling external function (security).\n        // Register the user only if buying the first time\n        raisedAmount = add(raisedAmount, msg.value);\n\n        if (!investors[msg.sender]) {\n            listOfInvestors.push(msg.sender);\n            investors[msg.sender] = true;\n        }\n\n        // amount of tokens to buy\n        uint256 tokens = msg.value * rateOfChange;\n\n        // send eth to the deposit account of the contract owner,\n        // not to the contract address\n        depositETHAddress.transfer(msg.value);\n\n        // transfer tokens to the buyer\n        _transfer(ownerAddress, msg.sender, tokens);\n    }\n\n    receive() external payable {\n        emit State(msg.sender);\n    }\n\n    fallback() external payable {\n        buyToken();\n    }\n\n    function getListOfUsers() public view returns (address[] memory) {\n        return listOfInvestors;\n    }\n\n    function getOwnerAddress() public view returns (address) {\n        return owner;\n    }\n}\n",
  "sourcePath": "/Users/samuel/Documents/Projet_Job/Candidatures/RarePorn/contracts/ICO.sol",
  "compiler": {
    "name": "solc",
    "version": "0.8.4+commit.c7e474f2.Emscripten.clang"
  },
  "schemaVersion": "3.3.4",
  "updatedAt": "2021-06-13T20:29:08.765Z",
  "networkType": "ethereum",
  "devdoc": {
    "kind": "dev",
    "methods": {
      "totalSupply()": {
        "details": "returns the total amount of tokens in existence right now, minus any tokens that have been burned."
      }
    },
    "version": 1
  },
  "userdoc": {
    "kind": "user",
    "methods": {},
    "version": 1
  }
}