{
  "contractName": "ICO",
  "abi": [
    {
      "inputs": [
        {
          "internalType": "address payable",
          "name": "_depositETHAddress",
          "type": "address"
        }
      ],
      "stateMutability": "nonpayable",
      "type": "constructor"
    },
    {
      "anonymous": false,
      "inputs": [
        {
          "indexed": true,
          "internalType": "address",
          "name": "owner",
          "type": "address"
        },
        {
          "indexed": true,
          "internalType": "address",
          "name": "spender",
          "type": "address"
        },
        {
          "indexed": false,
          "internalType": "uint256",
          "name": "tokens",
          "type": "uint256"
        }
      ],
      "name": "Approval",
      "type": "event"
    },
    {
      "anonymous": false,
      "inputs": [
        {
          "indexed": true,
          "internalType": "address",
          "name": "oldOwner",
          "type": "address"
        },
        {
          "indexed": true,
          "internalType": "address",
          "name": "newOwner",
          "type": "address"
        }
      ],
      "name": "NewOwner",
      "type": "event"
    },
    {
      "anonymous": false,
      "inputs": [
        {
          "indexed": false,
          "internalType": "address",
          "name": "_address",
          "type": "address"
        }
      ],
      "name": "State",
      "type": "event"
    },
    {
      "anonymous": false,
      "inputs": [
        {
          "indexed": true,
          "internalType": "address",
          "name": "from",
          "type": "address"
        },
        {
          "indexed": true,
          "internalType": "address",
          "name": "to",
          "type": "address"
        },
        {
          "indexed": false,
          "internalType": "uint256",
          "name": "tokens",
          "type": "uint256"
        }
      ],
      "name": "Transfer",
      "type": "event"
    },
    {
      "stateMutability": "payable",
      "type": "fallback",
      "payable": true
    },
    {
      "inputs": [
        {
          "internalType": "address",
          "name": "_owner",
          "type": "address"
        },
        {
          "internalType": "address",
          "name": "_spender",
          "type": "address"
        }
      ],
      "name": "allowance",
      "outputs": [
        {
          "internalType": "uint256",
          "name": "",
          "type": "uint256"
        }
      ],
      "stateMutability": "view",
      "type": "function",
      "constant": true
    },
    {
      "inputs": [
        {
          "internalType": "address",
          "name": "_spender",
          "type": "address"
        },
        {
          "internalType": "uint256",
          "name": "_tokens",
          "type": "uint256"
        }
      ],
      "name": "approve",
      "outputs": [
        {
          "internalType": "bool",
          "name": "",
          "type": "bool"
        }
      ],
      "stateMutability": "nonpayable",
      "type": "function"
    },
    {
      "inputs": [
        {
          "internalType": "address",
          "name": "_account",
          "type": "address"
        }
      ],
      "name": "balanceOf",
      "outputs": [
        {
          "internalType": "uint256",
          "name": "",
          "type": "uint256"
        }
      ],
      "stateMutability": "view",
      "type": "function",
      "constant": true
    },
    {
      "inputs": [],
      "name": "decimals",
      "outputs": [
        {
          "internalType": "uint8",
          "name": "",
          "type": "uint8"
        }
      ],
      "stateMutability": "pure",
      "type": "function",
      "constant": true
    },
    {
      "inputs": [],
      "name": "depositETHAddress",
      "outputs": [
        {
          "internalType": "address payable",
          "name": "",
          "type": "address"
        }
      ],
      "stateMutability": "view",
      "type": "function",
      "constant": true
    },
    {
      "inputs": [
        {
          "internalType": "address",
          "name": "",
          "type": "address"
        }
      ],
      "name": "investors",
      "outputs": [
        {
          "internalType": "bool",
          "name": "",
          "type": "bool"
        }
      ],
      "stateMutability": "view",
      "type": "function",
      "constant": true
    },
    {
      "inputs": [],
      "name": "name",
      "outputs": [
        {
          "internalType": "string",
          "name": "",
          "type": "string"
        }
      ],
      "stateMutability": "view",
      "type": "function",
      "constant": true
    },
    {
      "inputs": [],
      "name": "raisedAmount",
      "outputs": [
        {
          "internalType": "uint256",
          "name": "",
          "type": "uint256"
        }
      ],
      "stateMutability": "view",
      "type": "function",
      "constant": true
    },
    {
      "inputs": [],
      "name": "rateOfChange",
      "outputs": [
        {
          "internalType": "uint256",
          "name": "",
          "type": "uint256"
        }
      ],
      "stateMutability": "view",
      "type": "function",
      "constant": true
    },
    {
      "inputs": [],
      "name": "renounceOwnership",
      "outputs": [],
      "stateMutability": "nonpayable",
      "type": "function"
    },
    {
      "inputs": [],
      "name": "symbol",
      "outputs": [
        {
          "internalType": "string",
          "name": "",
          "type": "string"
        }
      ],
      "stateMutability": "view",
      "type": "function",
      "constant": true
    },
    {
      "inputs": [],
      "name": "token",
      "outputs": [
        {
          "internalType": "contract ERC20",
          "name": "",
          "type": "address"
        }
      ],
      "stateMutability": "view",
      "type": "function",
      "constant": true
    },
    {
      "inputs": [],
      "name": "totalSupply",
      "outputs": [
        {
          "internalType": "uint256",
          "name": "",
          "type": "uint256"
        }
      ],
      "stateMutability": "view",
      "type": "function",
      "constant": true
    },
    {
      "inputs": [
        {
          "internalType": "address",
          "name": "_to",
          "type": "address"
        },
        {
          "internalType": "uint256",
          "name": "_tokens",
          "type": "uint256"
        }
      ],
      "name": "transfer",
      "outputs": [
        {
          "internalType": "bool",
          "name": "",
          "type": "bool"
        }
      ],
      "stateMutability": "nonpayable",
      "type": "function"
    },
    {
      "inputs": [
        {
          "internalType": "address",
          "name": "_from",
          "type": "address"
        },
        {
          "internalType": "address",
          "name": "_to",
          "type": "address"
        },
        {
          "internalType": "uint256",
          "name": "_tokens",
          "type": "uint256"
        }
      ],
      "name": "transferFrom",
      "outputs": [
        {
          "internalType": "bool",
          "name": "",
          "type": "bool"
        }
      ],
      "stateMutability": "nonpayable",
      "type": "function"
    },
    {
      "inputs": [
        {
          "internalType": "address",
          "name": "_newOwner",
          "type": "address"
        }
      ],
      "name": "transferOwnership",
      "outputs": [],
      "stateMutability": "nonpayable",
      "type": "function"
    },
    {
      "stateMutability": "payable",
      "type": "receive",
      "payable": true
    },
    {
      "inputs": [],
      "name": "buyToken",
      "outputs": [],
      "stateMutability": "payable",
      "type": "function",
      "payable": true
    },
    {
      "inputs": [],
      "name": "getListOfUsers",
      "outputs": [
        {
          "internalType": "address[]",
          "name": "",
          "type": "address[]"
        }
      ],
      "stateMutability": "view",
      "type": "function",
      "constant": true
    },
    {
      "inputs": [],
      "name": "getOwnerAddress",
      "outputs": [
        {
          "internalType": "address",
          "name": "",
          "type": "address"
        }
      ],
      "stateMutability": "view",
      "type": "function",
      "constant": true
    }
  ],
  "bytecode": "0x608060405233600560006101000a81548173ffffffffffffffffffffffffffffffffffffffff021916908373ffffffffffffffffffffffffffffffffffffffff1602179055506969e10de76676d08000006007556103e86008553480156200006657600080fd5b5060405162003af238038062003af283398181016040528101906200008c9190620004ec565b6040518060400160405280601381526020017f5261726520506c6174666f726d20546f6b656e000000000000000000000000008152506040518060400160405280600381526020017f525054000000000000000000000000000000000000000000000000000000000081525081600390805190602001906200011092919062000417565b5080600490805190602001906200012992919062000417565b5050506040516200013a90620004a8565b62000145906200059e565b604051809103906000f08015801562000162573d6000803e3d6000fd5b50600660006101000a81548173ffffffffffffffffffffffffffffffffffffffff021916908373ffffffffffffffffffffffffffffffffffffffff16021790555080600d60006101000a81548173ffffffffffffffffffffffffffffffffffffffff021916908373ffffffffffffffffffffffffffffffffffffffff160217905550620001f8336007546200021c60201b60201c565b662386f26fc10000600a81905550678ac7230489e80000600b8190555050620007e9565b600073ffffffffffffffffffffffffffffffffffffffff168273ffffffffffffffffffffffffffffffffffffffff1614156200028f576040517f08c379a00000000000000000000000000000000000000000000000000000000081526004016200028690620005d5565b60405180910390fd5b620002a360008383620003bd60201b60201c565b620002b760025482620003c260201b60201c565b6002819055506200030f6000808473ffffffffffffffffffffffffffffffffffffffff1673ffffffffffffffffffffffffffffffffffffffff16815260200190815260200160002054600254620003c260201b60201c565b6000808473ffffffffffffffffffffffffffffffffffffffff1673ffffffffffffffffffffffffffffffffffffffff168152602001908152602001600020819055508173ffffffffffffffffffffffffffffffffffffffff16600073ffffffffffffffffffffffffffffffffffffffff167fddf252ad1be2c89b69c2b068fc378daa952ba7f163c4a11628f55a4df523b3ef83604051620003b19190620005f7565b60405180910390a35050565b505050565b6000808284620003d3919062000625565b9050838110156200040d577f4e487b7100000000000000000000000000000000000000000000000000000000600052600160045260246000fd5b8091505092915050565b8280546200042590620006c0565b90600052602060002090601f01602090048101928262000449576000855562000495565b82601f106200046457805160ff191683800117855562000495565b8280016001018555821562000495579182015b828111156200049457825182559160200191906001019062000477565b5b509050620004a49190620004b6565b5090565b61138d806200276583390190565b5b80821115620004d1576000816000905550600101620004b7565b5090565b600081519050620004e681620007cf565b92915050565b600060208284031215620004ff57600080fd5b60006200050f84828501620004d5565b91505092915050565b60006200052760038362000614565b9150620005348262000754565b602082019050919050565b60006200054e60138362000614565b91506200055b826200077d565b602082019050919050565b600062000575601f8362000614565b91506200058282620007a6565b602082019050919050565b6200059881620006b6565b82525050565b60006040820190508181036000830152620005b9816200053f565b90508181036020830152620005ce8162000518565b9050919050565b60006020820190508181036000830152620005f08162000566565b9050919050565b60006020820190506200060e60008301846200058d565b92915050565b600082825260208201905092915050565b60006200063282620006b6565b91506200063f83620006b6565b9250827fffffffffffffffffffffffffffffffffffffffffffffffffffffffffffffffff03821115620006775762000676620006f6565b5b828201905092915050565b60006200068f8262000696565b9050919050565b600073ffffffffffffffffffffffffffffffffffffffff82169050919050565b6000819050919050565b60006002820490506001821680620006d957607f821691505b60208210811415620006f057620006ef62000725565b5b50919050565b7f4e487b7100000000000000000000000000000000000000000000000000000000600052601160045260246000fd5b7f4e487b7100000000000000000000000000000000000000000000000000000000600052602260045260246000fd5b7f5250540000000000000000000000000000000000000000000000000000000000600082015250565b7f5261726520506c6174666f726d20546f6b656e00000000000000000000000000600082015250565b7f45524332303a206d696e7420746f20746865207a65726f206164647265737300600082015250565b620007da8162000682565b8114620007e657600080fd5b50565b611f6c80620007f96000396000f3fe6080604052600436106101185760003560e01c806370a08231116100a0578063a9059cbb11610064578063a9059cbb146103cd578063c59ee1dc1461040a578063dd62ed3e14610435578063f2fde38b14610472578063fc0c546a1461049b57610156565b806370a0823114610319578063715018a61461035657806376ce574b1461036d57806395d89b4114610398578063a4821719146103c357610156565b806323b872dd116100e757806323b872dd1461021e578063313ce5671461025b57806337b52667146102865780636b0a26d2146102b15780636f7bc9be146102dc57610156565b806306fdde0314610160578063095ea7b31461018b5780630c4f65bd146101c857806318160ddd146101f357610156565b36610156577f950567f94688704edec9b1229bc9aad0452c63356d16cc35c3f9c9648fb43ec63360405161014c919061175d565b60405180910390a1005b61015e6104c6565b005b34801561016c57600080fd5b50610175610810565b60405161018291906117eb565b60405180910390f35b34801561019757600080fd5b506101b260048036038101906101ad9190611488565b61089e565b6040516101bf91906117b5565b60405180910390f35b3480156101d457600080fd5b506101dd610a6f565b6040516101ea919061175d565b60405180910390f35b3480156101ff57600080fd5b50610208610a99565b604051610215919061196d565b60405180910390f35b34801561022a57600080fd5b5061024560048036038101906102409190611439565b610aa3565b60405161025291906117b5565b60405180910390f35b34801561026757600080fd5b50610270610b49565b60405161027d9190611988565b60405180910390f35b34801561029257600080fd5b5061029b610b52565b6040516102a89190611793565b60405180910390f35b3480156102bd57600080fd5b506102c6610be0565b6040516102d3919061196d565b60405180910390f35b3480156102e857600080fd5b5061030360048036038101906102fe91906113d4565b610be6565b60405161031091906117b5565b60405180910390f35b34801561032557600080fd5b50610340600480360381019061033b91906113d4565b610c06565b60405161034d919061196d565b60405180910390f35b34801561036257600080fd5b5061036b610c4e565b005b34801561037957600080fd5b50610382610d9f565b60405161038f9190611778565b60405180910390f35b3480156103a457600080fd5b506103ad610dc5565b6040516103ba91906117eb565b60405180910390f35b6103cb6104c6565b005b3480156103d957600080fd5b506103f460048036038101906103ef9190611488565b610e53565b60405161040191906117b5565b60405180910390f35b34801561041657600080fd5b5061041f610e6a565b60405161042c919061196d565b60405180910390f35b34801561044157600080fd5b5061045c600480360381019061045791906113fd565b610e70565b604051610469919061196d565b60405180910390f35b34801561047e57600080fd5b50610499600480360381019061049491906113d4565b610ef7565b005b3480156104a757600080fd5b506104b06110b7565b6040516104bd91906117d0565b60405180910390f35b6000600560009054906101000a900473ffffffffffffffffffffffffffffffffffffffff1690508073ffffffffffffffffffffffffffffffffffffffff163373ffffffffffffffffffffffffffffffffffffffff16141561055c576040517f08c379a0000000000000000000000000000000000000000000000000000000008152600401610553906118cd565b60405180910390fd5b6000341415801561058357503373ffffffffffffffffffffffffffffffffffffffff163134105b6105c2576040517f08c379a00000000000000000000000000000000000000000000000000000000081526004016105b9906118ad565b60405180910390fd5b600754346009546105d391906119f8565b1115610614576040517f08c379a000000000000000000000000000000000000000000000000000000000815260040161060b9061186d565b60405180910390fd5b600a5434101580156106285750600b543411155b610667576040517f08c379a000000000000000000000000000000000000000000000000000000000815260040161065e906118ed565b60405180910390fd5b610673600954346110dd565b600981905550600e60003373ffffffffffffffffffffffffffffffffffffffff1673ffffffffffffffffffffffffffffffffffffffff16815260200190815260200160002060009054906101000a900460ff1661078657600c339080600181540180825580915050600190039060005260206000200160009091909190916101000a81548173ffffffffffffffffffffffffffffffffffffffff021916908373ffffffffffffffffffffffffffffffffffffffff1602179055506001600e60003373ffffffffffffffffffffffffffffffffffffffff1673ffffffffffffffffffffffffffffffffffffffff16815260200190815260200160002060006101000a81548160ff0219169083151502179055505b6000600854346107969190611a4e565b9050600d60009054906101000a900473ffffffffffffffffffffffffffffffffffffffff1673ffffffffffffffffffffffffffffffffffffffff166108fc349081150290604051600060405180830381858888f19350505050158015610800573d6000803e3d6000fd5b5061080c82338361112f565b5050565b6003805461081d90611b9a565b80601f016020809104026020016040519081016040528092919081815260200182805461084990611b9a565b80156108965780601f1061086b57610100808354040283529160200191610896565b820191906000526020600020905b81548152906001019060200180831161087957829003601f168201915b505050505081565b60008073ffffffffffffffffffffffffffffffffffffffff163373ffffffffffffffffffffffffffffffffffffffff16141561090f576040517f08c379a00000000000000000000000000000000000000000000000000000000081526004016109069061194d565b60405180910390fd5b600073ffffffffffffffffffffffffffffffffffffffff168373ffffffffffffffffffffffffffffffffffffffff16141561097f576040517f08c379a00000000000000000000000000000000000000000000000000000000081526004016109769061184d565b60405180910390fd5b81600160003373ffffffffffffffffffffffffffffffffffffffff1673ffffffffffffffffffffffffffffffffffffffff16815260200190815260200160002060008573ffffffffffffffffffffffffffffffffffffffff1673ffffffffffffffffffffffffffffffffffffffff168152602001908152602001600020819055508273ffffffffffffffffffffffffffffffffffffffff163373ffffffffffffffffffffffffffffffffffffffff167f8c5be1e5ebec7d5bd14f71427d1e84f3dd0314c0f7b2291e5b200ac8c7c3b92584604051610a5d919061196d565b60405180910390a36001905092915050565b6000600560009054906101000a900473ffffffffffffffffffffffffffffffffffffffff16905090565b6000600254905090565b600080600160008673ffffffffffffffffffffffffffffffffffffffff1673ffffffffffffffffffffffffffffffffffffffff16815260200190815260200160002060003373ffffffffffffffffffffffffffffffffffffffff1673ffffffffffffffffffffffffffffffffffffffff16815260200190815260200160002054905082811015610b3257600080fd5b610b3d85858561112f565b60019150509392505050565b60006012905090565b6060600c805480602002602001604051908101604052809291908181526020018280548015610bd657602002820191906000526020600020905b8160009054906101000a900473ffffffffffffffffffffffffffffffffffffffff1673ffffffffffffffffffffffffffffffffffffffff1681526020019060010190808311610b8c575b5050505050905090565b60085481565b600e6020528060005260406000206000915054906101000a900460ff1681565b60008060008373ffffffffffffffffffffffffffffffffffffffff1673ffffffffffffffffffffffffffffffffffffffff168152602001908152602001600020549050919050565b600560009054906101000a900473ffffffffffffffffffffffffffffffffffffffff1673ffffffffffffffffffffffffffffffffffffffff163373ffffffffffffffffffffffffffffffffffffffff1614610cde576040517f08c379a0000000000000000000000000000000000000000000000000000000008152600401610cd59061192d565b60405180910390fd5b600073ffffffffffffffffffffffffffffffffffffffff16600560009054906101000a900473ffffffffffffffffffffffffffffffffffffffff1673ffffffffffffffffffffffffffffffffffffffff167f70aea8d848e8a90fb7661b227dc522eb6395c3dac71b63cb59edd5c9899b236460405160405180910390a36000600560006101000a81548173ffffffffffffffffffffffffffffffffffffffff021916908373ffffffffffffffffffffffffffffffffffffffff160217905550565b600d60009054906101000a900473ffffffffffffffffffffffffffffffffffffffff1681565b60048054610dd290611b9a565b80601f0160208091040260200160405190810160405280929190818152602001828054610dfe90611b9a565b8015610e4b5780601f10610e2057610100808354040283529160200191610e4b565b820191906000526020600020905b815481529060010190602001808311610e2e57829003601f168201915b505050505081565b6000610e6033848461112f565b6001905092915050565b60095481565b6000600160008473ffffffffffffffffffffffffffffffffffffffff1673ffffffffffffffffffffffffffffffffffffffff16815260200190815260200160002060008373ffffffffffffffffffffffffffffffffffffffff1673ffffffffffffffffffffffffffffffffffffffff16815260200190815260200160002054905092915050565b600560009054906101000a900473ffffffffffffffffffffffffffffffffffffffff1673ffffffffffffffffffffffffffffffffffffffff163373ffffffffffffffffffffffffffffffffffffffff1614610f87576040517f08c379a0000000000000000000000000000000000000000000000000000000008152600401610f7e9061192d565b60405180910390fd5b600073ffffffffffffffffffffffffffffffffffffffff168173ffffffffffffffffffffffffffffffffffffffff161415610ff7576040517f08c379a0000000000000000000000000000000000000000000000000000000008152600401610fee9061182d565b60405180910390fd5b8073ffffffffffffffffffffffffffffffffffffffff16600560009054906101000a900473ffffffffffffffffffffffffffffffffffffffff1673ffffffffffffffffffffffffffffffffffffffff167f70aea8d848e8a90fb7661b227dc522eb6395c3dac71b63cb59edd5c9899b236460405160405180910390a380600560006101000a81548173ffffffffffffffffffffffffffffffffffffffff021916908373ffffffffffffffffffffffffffffffffffffffff16021790555050565b600660009054906101000a900473ffffffffffffffffffffffffffffffffffffffff1681565b60008082846110ec91906119f8565b905083811015611125577f4e487b7100000000000000000000000000000000000000000000000000000000600052600160045260246000fd5b8091505092915050565b600073ffffffffffffffffffffffffffffffffffffffff168373ffffffffffffffffffffffffffffffffffffffff16141561119f576040517f08c379a00000000000000000000000000000000000000000000000000000000081526004016111969061190d565b60405180910390fd5b600073ffffffffffffffffffffffffffffffffffffffff168273ffffffffffffffffffffffffffffffffffffffff16141561120f576040517f08c379a00000000000000000000000000000000000000000000000000000000081526004016112069061180d565b60405180910390fd5b60008060008573ffffffffffffffffffffffffffffffffffffffff1673ffffffffffffffffffffffffffffffffffffffff16815260200190815260200160002054905081811015611295576040517f08c379a000000000000000000000000000000000000000000000000000000000815260040161128c9061188d565b60405180910390fd5b816000808673ffffffffffffffffffffffffffffffffffffffff1673ffffffffffffffffffffffffffffffffffffffff16815260200190815260200160002060008282546112e39190611aa8565b92505081905550816000808573ffffffffffffffffffffffffffffffffffffffff1673ffffffffffffffffffffffffffffffffffffffff168152602001908152602001600020600082825461133891906119f8565b925050819055508273ffffffffffffffffffffffffffffffffffffffff168473ffffffffffffffffffffffffffffffffffffffff167fddf252ad1be2c89b69c2b068fc378daa952ba7f163c4a11628f55a4df523b3ef8460405161139c919061196d565b60405180910390a350505050565b6000813590506113b981611f08565b92915050565b6000813590506113ce81611f1f565b92915050565b6000602082840312156113e657600080fd5b60006113f4848285016113aa565b91505092915050565b6000806040838503121561141057600080fd5b600061141e858286016113aa565b925050602061142f858286016113aa565b9150509250929050565b60008060006060848603121561144e57600080fd5b600061145c868287016113aa565b935050602061146d868287016113aa565b925050604061147e868287016113bf565b9150509250925092565b6000806040838503121561149b57600080fd5b60006114a9858286016113aa565b92505060206114ba858286016113bf565b9150509250929050565b60006114d083836114eb565b60208301905092915050565b6114e581611aee565b82525050565b6114f481611adc565b82525050565b61150381611adc565b82525050565b6000611514826119b3565b61151e81856119d6565b9350611529836119a3565b8060005b8381101561155a57815161154188826114c4565b975061154c836119c9565b92505060018101905061152d565b5085935050505092915050565b61157081611b00565b82525050565b61157f81611b43565b82525050565b6000611590826119be565b61159a81856119e7565b93506115aa818560208601611b67565b6115b381611c2a565b840191505092915050565b60006115cb6023836119e7565b91506115d682611c3b565b604082019050919050565b60006115ee6026836119e7565b91506115f982611c8a565b604082019050919050565b60006116116022836119e7565b915061161c82611cd9565b604082019050919050565b6000611634600b836119e7565b915061163f82611d28565b602082019050919050565b60006116576026836119e7565b915061166282611d51565b604082019050919050565b600061167a6013836119e7565b915061168582611da0565b602082019050919050565b600061169d6024836119e7565b91506116a882611dc9565b604082019050919050565b60006116c06012836119e7565b91506116cb82611e18565b602082019050919050565b60006116e36025836119e7565b91506116ee82611e41565b604082019050919050565b6000611706601e836119e7565b915061171182611e90565b602082019050919050565b60006117296024836119e7565b915061173482611eb9565b604082019050919050565b61174881611b2c565b82525050565b61175781611b36565b82525050565b600060208201905061177260008301846114fa565b92915050565b600060208201905061178d60008301846114dc565b92915050565b600060208201905081810360008301526117ad8184611509565b905092915050565b60006020820190506117ca6000830184611567565b92915050565b60006020820190506117e56000830184611576565b92915050565b600060208201905081810360008301526118058184611585565b905092915050565b60006020820190508181036000830152611826816115be565b9050919050565b60006020820190508181036000830152611846816115e1565b9050919050565b6000602082019050818103600083015261186681611604565b9050919050565b6000602082019050818103600083015261188681611627565b9050919050565b600060208201905081810360008301526118a68161164a565b9050919050565b600060208201905081810360008301526118c68161166d565b9050919050565b600060208201905081810360008301526118e681611690565b9050919050565b60006020820190508181036000830152611906816116b3565b9050919050565b60006020820190508181036000830152611926816116d6565b9050919050565b60006020820190508181036000830152611946816116f9565b9050919050565b600060208201905081810360008301526119668161171c565b9050919050565b6000602082019050611982600083018461173f565b92915050565b600060208201905061199d600083018461174e565b92915050565b6000819050602082019050919050565b600081519050919050565b600081519050919050565b6000602082019050919050565b600082825260208201905092915050565b600082825260208201905092915050565b6000611a0382611b2c565b9150611a0e83611b2c565b9250827fffffffffffffffffffffffffffffffffffffffffffffffffffffffffffffffff03821115611a4357611a42611bcc565b5b828201905092915050565b6000611a5982611b2c565b9150611a6483611b2c565b9250817fffffffffffffffffffffffffffffffffffffffffffffffffffffffffffffffff0483118215151615611a9d57611a9c611bcc565b5b828202905092915050565b6000611ab382611b2c565b9150611abe83611b2c565b925082821015611ad157611ad0611bcc565b5b828203905092915050565b6000611ae782611b0c565b9050919050565b6000611af982611b0c565b9050919050565b60008115159050919050565b600073ffffffffffffffffffffffffffffffffffffffff82169050919050565b6000819050919050565b600060ff82169050919050565b6000611b4e82611b55565b9050919050565b6000611b6082611b0c565b9050919050565b60005b83811015611b85578082015181840152602081019050611b6a565b83811115611b94576000848401525b50505050565b60006002820490506001821680611bb257607f821691505b60208210811415611bc657611bc5611bfb565b5b50919050565b7f4e487b7100000000000000000000000000000000000000000000000000000000600052601160045260246000fd5b7f4e487b7100000000000000000000000000000000000000000000000000000000600052602260045260246000fd5b6000601f19601f8301169050919050565b7f45524332303a207472616e7366657220746f20746865207a65726f206164647260008201527f6573730000000000000000000000000000000000000000000000000000000000602082015250565b7f4f776e61626c653a206e6577206f776e657220697320746865207a65726f206160008201527f6464726573730000000000000000000000000000000000000000000000000000602082015250565b7f45524332303a20617070726f766520746f20746865207a65726f20616464726560008201527f7373000000000000000000000000000000000000000000000000000000000000602082015250565b7f49434f206973206f766572000000000000000000000000000000000000000000600082015250565b7f45524332303a207472616e7366657220616d6f756e742065786365656473206260008201527f616c616e63650000000000000000000000000000000000000000000000000000602082015250565b7f49434f3a206e6f7420656e6f7567682065746800000000000000000000000000600082015250565b7f49434f3a2062757920746f6b656e207769746820636f6e74726163742061646460008201527f7265737300000000000000000000000000000000000000000000000000000000602082015250565b7f49434f3a206368616e676520616d6f756e740000000000000000000000000000600082015250565b7f45524332303a207472616e736665722066726f6d20746865207a65726f20616460008201527f6472657373000000000000000000000000000000000000000000000000000000602082015250565b7f4f776e65643a2063616c6c6572206973206e6f7420746865206f776e65720000600082015250565b7f45524332303a20617070726f76652066726f6d20746865207a65726f2061646460008201527f7265737300000000000000000000000000000000000000000000000000000000602082015250565b611f1181611adc565b8114611f1c57600080fd5b50565b611f2881611b2c565b8114611f3357600080fd5b5056fea26469706673582212200083ca00f6c667709e6da843b60b407ab306e3e5ce286ce150d3322ec05f017564736f6c6343000804003360806040523480156200001157600080fd5b506040516200138d3803806200138d833981810160405281019062000037919062000193565b81600390805190602001906200004f92919062000071565b5080600490805190602001906200006892919062000071565b50505062000376565b8280546200007f906200029b565b90600052602060002090601f016020900481019282620000a35760008555620000ef565b82601f10620000be57805160ff1916838001178555620000ef565b82800160010185558215620000ef579182015b82811115620000ee578251825591602001919060010190620000d1565b5b509050620000fe919062000102565b5090565b5b808211156200011d57600081600090555060010162000103565b5090565b60006200013862000132846200022f565b62000206565b9050828152602081018484840111156200015157600080fd5b6200015e84828562000265565b509392505050565b600082601f8301126200017857600080fd5b81516200018a84826020860162000121565b91505092915050565b60008060408385031215620001a757600080fd5b600083015167ffffffffffffffff811115620001c257600080fd5b620001d08582860162000166565b925050602083015167ffffffffffffffff811115620001ee57600080fd5b620001fc8582860162000166565b9150509250929050565b60006200021262000225565b9050620002208282620002d1565b919050565b6000604051905090565b600067ffffffffffffffff8211156200024d576200024c62000336565b5b620002588262000365565b9050602081019050919050565b60005b838110156200028557808201518184015260208101905062000268565b8381111562000295576000848401525b50505050565b60006002820490506001821680620002b457607f821691505b60208210811415620002cb57620002ca62000307565b5b50919050565b620002dc8262000365565b810181811067ffffffffffffffff82111715620002fe57620002fd62000336565b5b80604052505050565b7f4e487b7100000000000000000000000000000000000000000000000000000000600052602260045260246000fd5b7f4e487b7100000000000000000000000000000000000000000000000000000000600052604160045260246000fd5b6000601f19601f8301169050919050565b61100780620003866000396000f3fe608060405234801561001057600080fd5b50600436106100935760003560e01c8063313ce56711610066578063313ce5671461013457806370a082311461015257806395d89b4114610182578063a9059cbb146101a0578063dd62ed3e146101d057610093565b806306fdde0314610098578063095ea7b3146100b657806318160ddd146100e657806323b872dd14610104575b600080fd5b6100a0610200565b6040516100ad9190610b51565b60405180910390f35b6100d060048036038101906100cb91906109e5565b61028e565b6040516100dd9190610b36565b60405180910390f35b6100ee61045f565b6040516100fb9190610c13565b60405180910390f35b61011e60048036038101906101199190610996565b610469565b60405161012b9190610b36565b60405180910390f35b61013c61050f565b6040516101499190610c2e565b60405180910390f35b61016c60048036038101906101679190610931565b610518565b6040516101799190610c13565b60405180910390f35b61018a610560565b6040516101979190610b51565b60405180910390f35b6101ba60048036038101906101b591906109e5565b6105ee565b6040516101c79190610b36565b60405180910390f35b6101ea60048036038101906101e5919061095a565b610605565b6040516101f79190610c13565b60405180910390f35b6003805461020d90610d77565b80601f016020809104026020016040519081016040528092919081815260200182805461023990610d77565b80156102865780601f1061025b57610100808354040283529160200191610286565b820191906000526020600020905b81548152906001019060200180831161026957829003601f168201915b505050505081565b60008073ffffffffffffffffffffffffffffffffffffffff163373ffffffffffffffffffffffffffffffffffffffff1614156102ff576040517f08c379a00000000000000000000000000000000000000000000000000000000081526004016102f690610bf3565b60405180910390fd5b600073ffffffffffffffffffffffffffffffffffffffff168373ffffffffffffffffffffffffffffffffffffffff16141561036f576040517f08c379a000000000000000000000000000000000000000000000000000000000815260040161036690610b93565b60405180910390fd5b81600160003373ffffffffffffffffffffffffffffffffffffffff1673ffffffffffffffffffffffffffffffffffffffff16815260200190815260200160002060008573ffffffffffffffffffffffffffffffffffffffff1673ffffffffffffffffffffffffffffffffffffffff168152602001908152602001600020819055508273ffffffffffffffffffffffffffffffffffffffff163373ffffffffffffffffffffffffffffffffffffffff167f8c5be1e5ebec7d5bd14f71427d1e84f3dd0314c0f7b2291e5b200ac8c7c3b9258460405161044d9190610c13565b60405180910390a36001905092915050565b6000600254905090565b600080600160008673ffffffffffffffffffffffffffffffffffffffff1673ffffffffffffffffffffffffffffffffffffffff16815260200190815260200160002060003373ffffffffffffffffffffffffffffffffffffffff1673ffffffffffffffffffffffffffffffffffffffff168152602001908152602001600020549050828110156104f857600080fd5b61050385858561068c565b60019150509392505050565b60006012905090565b60008060008373ffffffffffffffffffffffffffffffffffffffff1673ffffffffffffffffffffffffffffffffffffffff168152602001908152602001600020549050919050565b6004805461056d90610d77565b80601f016020809104026020016040519081016040528092919081815260200182805461059990610d77565b80156105e65780601f106105bb576101008083540402835291602001916105e6565b820191906000526020600020905b8154815290600101906020018083116105c957829003601f168201915b505050505081565b60006105fb33848461068c565b6001905092915050565b6000600160008473ffffffffffffffffffffffffffffffffffffffff1673ffffffffffffffffffffffffffffffffffffffff16815260200190815260200160002060008373ffffffffffffffffffffffffffffffffffffffff1673ffffffffffffffffffffffffffffffffffffffff16815260200190815260200160002054905092915050565b600073ffffffffffffffffffffffffffffffffffffffff168373ffffffffffffffffffffffffffffffffffffffff1614156106fc576040517f08c379a00000000000000000000000000000000000000000000000000000000081526004016106f390610bd3565b60405180910390fd5b600073ffffffffffffffffffffffffffffffffffffffff168273ffffffffffffffffffffffffffffffffffffffff16141561076c576040517f08c379a000000000000000000000000000000000000000000000000000000000815260040161076390610b73565b60405180910390fd5b60008060008573ffffffffffffffffffffffffffffffffffffffff1673ffffffffffffffffffffffffffffffffffffffff168152602001908152602001600020549050818110156107f2576040517f08c379a00000000000000000000000000000000000000000000000000000000081526004016107e990610bb3565b60405180910390fd5b816000808673ffffffffffffffffffffffffffffffffffffffff1673ffffffffffffffffffffffffffffffffffffffff16815260200190815260200160002060008282546108409190610cbb565b92505081905550816000808573ffffffffffffffffffffffffffffffffffffffff1673ffffffffffffffffffffffffffffffffffffffff16815260200190815260200160002060008282546108959190610c65565b925050819055508273ffffffffffffffffffffffffffffffffffffffff168473ffffffffffffffffffffffffffffffffffffffff167fddf252ad1be2c89b69c2b068fc378daa952ba7f163c4a11628f55a4df523b3ef846040516108f99190610c13565b60405180910390a350505050565b60008135905061091681610fa3565b92915050565b60008135905061092b81610fba565b92915050565b60006020828403121561094357600080fd5b600061095184828501610907565b91505092915050565b6000806040838503121561096d57600080fd5b600061097b85828601610907565b925050602061098c85828601610907565b9150509250929050565b6000806000606084860312156109ab57600080fd5b60006109b986828701610907565b93505060206109ca86828701610907565b92505060406109db8682870161091c565b9150509250925092565b600080604083850312156109f857600080fd5b6000610a0685828601610907565b9250506020610a178582860161091c565b9150509250929050565b610a2a81610d01565b82525050565b6000610a3b82610c49565b610a458185610c54565b9350610a55818560208601610d44565b610a5e81610e07565b840191505092915050565b6000610a76602383610c54565b9150610a8182610e18565b604082019050919050565b6000610a99602283610c54565b9150610aa482610e67565b604082019050919050565b6000610abc602683610c54565b9150610ac782610eb6565b604082019050919050565b6000610adf602583610c54565b9150610aea82610f05565b604082019050919050565b6000610b02602483610c54565b9150610b0d82610f54565b604082019050919050565b610b2181610d2d565b82525050565b610b3081610d37565b82525050565b6000602082019050610b4b6000830184610a21565b92915050565b60006020820190508181036000830152610b6b8184610a30565b905092915050565b60006020820190508181036000830152610b8c81610a69565b9050919050565b60006020820190508181036000830152610bac81610a8c565b9050919050565b60006020820190508181036000830152610bcc81610aaf565b9050919050565b60006020820190508181036000830152610bec81610ad2565b9050919050565b60006020820190508181036000830152610c0c81610af5565b9050919050565b6000602082019050610c286000830184610b18565b92915050565b6000602082019050610c436000830184610b27565b92915050565b600081519050919050565b600082825260208201905092915050565b6000610c7082610d2d565b9150610c7b83610d2d565b9250827fffffffffffffffffffffffffffffffffffffffffffffffffffffffffffffffff03821115610cb057610caf610da9565b5b828201905092915050565b6000610cc682610d2d565b9150610cd183610d2d565b925082821015610ce457610ce3610da9565b5b828203905092915050565b6000610cfa82610d0d565b9050919050565b60008115159050919050565b600073ffffffffffffffffffffffffffffffffffffffff82169050919050565b6000819050919050565b600060ff82169050919050565b60005b83811015610d62578082015181840152602081019050610d47565b83811115610d71576000848401525b50505050565b60006002820490506001821680610d8f57607f821691505b60208210811415610da357610da2610dd8565b5b50919050565b7f4e487b7100000000000000000000000000000000000000000000000000000000600052601160045260246000fd5b7f4e487b7100000000000000000000000000000000000000000000000000000000600052602260045260246000fd5b6000601f19601f8301169050919050565b7f45524332303a207472616e7366657220746f20746865207a65726f206164647260008201527f6573730000000000000000000000000000000000000000000000000000000000602082015250565b7f45524332303a20617070726f766520746f20746865207a65726f20616464726560008201527f7373000000000000000000000000000000000000000000000000000000000000602082015250565b7f45524332303a207472616e7366657220616d6f756e742065786365656473206260008201527f616c616e63650000000000000000000000000000000000000000000000000000602082015250565b7f45524332303a207472616e736665722066726f6d20746865207a65726f20616460008201527f6472657373000000000000000000000000000000000000000000000000000000602082015250565b7f45524332303a20617070726f76652066726f6d20746865207a65726f2061646460008201527f7265737300000000000000000000000000000000000000000000000000000000602082015250565b610fac81610cef565b8114610fb757600080fd5b50565b610fc381610d2d565b8114610fce57600080fd5b5056fea26469706673582212204e11e94f882ed3be5071dcea9a6f1d30bfc88630cbff2b64a6320ed50c926cad64736f6c63430008040033",
  "immutableReferences": {},
  "source": "// SPDX-License-Identifier: MIT\npragma solidity 0.8.4;\n\nimport \"./ERC20/ERC20.sol\";\nimport \"./ERC20/Owned.sol\";\n\ncontract ICO is ERC20(\"Rare Platform Token\", \"RPT\"), Owned {\n    ERC20 public token;\n\n    uint256 private initialSupply = 500000 ether; // 1 eth = 10^(18) => decimals = 18\n    uint256 public rateOfChange = 1000;\n    uint256 public raisedAmount;\n    uint256 private minInvestment;\n    uint256 private maxInvestment;\n    address[] listOfInvestors;\n    address payable public depositETHAddress;\n\n    mapping(address => bool) public investors;\n\n    event State(address _address);\n\n    constructor(address payable _depositETHAddress) {\n        token = new ERC20(\"Rare Platform Token\", \"RPT\");\n\n        depositETHAddress = _depositETHAddress;\n        mint(msg.sender, initialSupply);\n\n        minInvestment = 0.01 ether;\n        maxInvestment = 10 ether;\n    }\n\n    function buyToken() public payable {\n        // get the owner address (the one used to deploy the contract)\n        address ownerAddress = owner;\n\n        // prevent the contract address to buy tokens\n        require(\n            msg.sender != ownerAddress,\n            \"ICO: buy token with contract address\"\n        );\n\n        // require enough eth to buy tokens\n        require(\n            msg.value != 0 && msg.value < msg.sender.balance,\n            \"ICO: not enough eth\"\n        );\n\n        // prevent buying tokens after all tokens have been sold out.\n        require(raisedAmount + msg.value <= initialSupply, \"ICO is over\");\n\n        // the amount to invest must be in range [minInvestment, maxInvestment]\n        require(\n            msg.value >= minInvestment && msg.value <= maxInvestment,\n            \"ICO: change amount\"\n        );\n\n        // update state variables before calling external function (security).\n        // Register the user only if buying the first time\n        raisedAmount = add(raisedAmount, msg.value);\n\n        if (!investors[msg.sender]) {\n            listOfInvestors.push(msg.sender);\n            investors[msg.sender] = true;\n        }\n\n        // amount of tokens to buy\n        uint256 tokens = msg.value * rateOfChange;\n\n        // send eth to the deposit account of the contract owner,\n        // not to the contract address\n        depositETHAddress.transfer(msg.value);\n\n        // transfer tokens to the buyer\n        _transfer(ownerAddress, msg.sender, tokens);\n    }\n\n    receive() external payable {\n        emit State(msg.sender);\n    }\n\n    fallback() external payable {\n        buyToken();\n    }\n\n    function getListOfUsers() public view returns (address[] memory) {\n        return listOfInvestors;\n    }\n\n    function getOwnerAddress() public view returns (address) {\n        return owner;\n    }\n}\n",
  "sourcePath": "/Users/samuel/Documents/Projet_Job/Candidatures/RarePorn/contracts/ICO.sol",
  "compiler": {
    "name": "solc",
    "version": "0.8.4+commit.c7e474f2.Emscripten.clang"
  },
  "schemaVersion": "3.3.4",
  "updatedAt": "2021-06-12T16:21:07.385Z",
  "networkType": "ethereum",
  "devdoc": {
    "kind": "dev",
    "methods": {
      "totalSupply()": {
        "details": "returns the total amount of tokens in existence right now, minus any tokens that have been burned."
      }
    },
    "version": 1
  },
  "userdoc": {
    "kind": "user",
    "methods": {},
    "version": 1
  }
}