{
  "contractName": "ICO",
  "abi": [
    {
      "inputs": [
        {
          "internalType": "address payable",
          "name": "_depositETHAddress",
          "type": "address"
        }
      ],
      "stateMutability": "nonpayable",
      "type": "constructor"
    },
    {
      "anonymous": false,
      "inputs": [
        {
          "indexed": true,
          "internalType": "address",
          "name": "owner",
          "type": "address"
        },
        {
          "indexed": true,
          "internalType": "address",
          "name": "spender",
          "type": "address"
        },
        {
          "indexed": false,
          "internalType": "uint256",
          "name": "tokens",
          "type": "uint256"
        }
      ],
      "name": "Approval",
      "type": "event"
    },
    {
      "anonymous": false,
      "inputs": [
        {
          "indexed": true,
          "internalType": "address",
          "name": "oldOwner",
          "type": "address"
        },
        {
          "indexed": true,
          "internalType": "address",
          "name": "newOwner",
          "type": "address"
        }
      ],
      "name": "NewOwner",
      "type": "event"
    },
    {
      "anonymous": false,
      "inputs": [
        {
          "indexed": false,
          "internalType": "address",
          "name": "_address",
          "type": "address"
        }
      ],
      "name": "State",
      "type": "event"
    },
    {
      "anonymous": false,
      "inputs": [
        {
          "indexed": true,
          "internalType": "address",
          "name": "from",
          "type": "address"
        },
        {
          "indexed": true,
          "internalType": "address",
          "name": "to",
          "type": "address"
        },
        {
          "indexed": false,
          "internalType": "uint256",
          "name": "tokens",
          "type": "uint256"
        }
      ],
      "name": "Transfer",
      "type": "event"
    },
    {
      "stateMutability": "payable",
      "type": "fallback",
      "payable": true
    },
    {
      "inputs": [
        {
          "internalType": "address",
          "name": "_owner",
          "type": "address"
        },
        {
          "internalType": "address",
          "name": "_spender",
          "type": "address"
        }
      ],
      "name": "allowance",
      "outputs": [
        {
          "internalType": "uint256",
          "name": "",
          "type": "uint256"
        }
      ],
      "stateMutability": "view",
      "type": "function",
      "constant": true
    },
    {
      "inputs": [
        {
          "internalType": "address",
          "name": "_spender",
          "type": "address"
        },
        {
          "internalType": "uint256",
          "name": "_tokens",
          "type": "uint256"
        }
      ],
      "name": "approve",
      "outputs": [
        {
          "internalType": "bool",
          "name": "",
          "type": "bool"
        }
      ],
      "stateMutability": "nonpayable",
      "type": "function"
    },
    {
      "inputs": [
        {
          "internalType": "address",
          "name": "_account",
          "type": "address"
        }
      ],
      "name": "balanceOf",
      "outputs": [
        {
          "internalType": "uint256",
          "name": "",
          "type": "uint256"
        }
      ],
      "stateMutability": "view",
      "type": "function",
      "constant": true
    },
    {
      "inputs": [],
      "name": "decimals",
      "outputs": [
        {
          "internalType": "uint8",
          "name": "",
          "type": "uint8"
        }
      ],
      "stateMutability": "pure",
      "type": "function",
      "constant": true
    },
    {
      "inputs": [
        {
          "internalType": "uint256",
          "name": "",
          "type": "uint256"
        }
      ],
      "name": "investors",
      "outputs": [
        {
          "internalType": "address",
          "name": "",
          "type": "address"
        }
      ],
      "stateMutability": "view",
      "type": "function",
      "constant": true
    },
    {
      "inputs": [],
      "name": "name",
      "outputs": [
        {
          "internalType": "string",
          "name": "",
          "type": "string"
        }
      ],
      "stateMutability": "view",
      "type": "function",
      "constant": true
    },
    {
      "inputs": [],
      "name": "nbOfInvestors",
      "outputs": [
        {
          "internalType": "uint256",
          "name": "",
          "type": "uint256"
        }
      ],
      "stateMutability": "view",
      "type": "function",
      "constant": true
    },
    {
      "inputs": [],
      "name": "raisedAmount",
      "outputs": [
        {
          "internalType": "uint256",
          "name": "",
          "type": "uint256"
        }
      ],
      "stateMutability": "view",
      "type": "function",
      "constant": true
    },
    {
      "inputs": [],
      "name": "rateOfChange",
      "outputs": [
        {
          "internalType": "uint256",
          "name": "",
          "type": "uint256"
        }
      ],
      "stateMutability": "view",
      "type": "function",
      "constant": true
    },
    {
      "inputs": [],
      "name": "renounceOwnership",
      "outputs": [],
      "stateMutability": "nonpayable",
      "type": "function"
    },
    {
      "inputs": [],
      "name": "symbol",
      "outputs": [
        {
          "internalType": "string",
          "name": "",
          "type": "string"
        }
      ],
      "stateMutability": "view",
      "type": "function",
      "constant": true
    },
    {
      "inputs": [],
      "name": "token",
      "outputs": [
        {
          "internalType": "contract ERC20",
          "name": "",
          "type": "address"
        }
      ],
      "stateMutability": "view",
      "type": "function",
      "constant": true
    },
    {
      "inputs": [],
      "name": "totalSupply",
      "outputs": [
        {
          "internalType": "uint256",
          "name": "",
          "type": "uint256"
        }
      ],
      "stateMutability": "view",
      "type": "function",
      "constant": true
    },
    {
      "inputs": [
        {
          "internalType": "address",
          "name": "_to",
          "type": "address"
        },
        {
          "internalType": "uint256",
          "name": "_tokens",
          "type": "uint256"
        }
      ],
      "name": "transfer",
      "outputs": [
        {
          "internalType": "bool",
          "name": "",
          "type": "bool"
        }
      ],
      "stateMutability": "nonpayable",
      "type": "function"
    },
    {
      "inputs": [
        {
          "internalType": "address",
          "name": "_from",
          "type": "address"
        },
        {
          "internalType": "address",
          "name": "_to",
          "type": "address"
        },
        {
          "internalType": "uint256",
          "name": "_tokens",
          "type": "uint256"
        }
      ],
      "name": "transferFrom",
      "outputs": [
        {
          "internalType": "bool",
          "name": "",
          "type": "bool"
        }
      ],
      "stateMutability": "nonpayable",
      "type": "function"
    },
    {
      "inputs": [
        {
          "internalType": "address",
          "name": "_newOwner",
          "type": "address"
        }
      ],
      "name": "transferOwnership",
      "outputs": [],
      "stateMutability": "nonpayable",
      "type": "function"
    },
    {
      "stateMutability": "payable",
      "type": "receive",
      "payable": true
    },
    {
      "inputs": [],
      "name": "buyToken",
      "outputs": [],
      "stateMutability": "payable",
      "type": "function",
      "payable": true
    }
  ],
  "bytecode": "0x608060405233600560006101000a81548173ffffffffffffffffffffffffffffffffffffffff021916908373ffffffffffffffffffffffffffffffffffffffff1602179055506969e10de76676d08000006007556103e86008553480156200006657600080fd5b5060405162003a6e38038062003a6e83398181016040528101906200008c9190620004ec565b6040518060400160405280601381526020017f5261726520506c6174666f726d20546f6b656e000000000000000000000000008152506040518060400160405280600381526020017f525054000000000000000000000000000000000000000000000000000000000081525081600390805190602001906200011092919062000417565b5080600490805190602001906200012992919062000417565b5050506040516200013a90620004a8565b62000145906200059e565b604051809103906000f08015801562000162573d6000803e3d6000fd5b50600660006101000a81548173ffffffffffffffffffffffffffffffffffffffff021916908373ffffffffffffffffffffffffffffffffffffffff16021790555080600d60006101000a81548173ffffffffffffffffffffffffffffffffffffffff021916908373ffffffffffffffffffffffffffffffffffffffff160217905550620001f8336007546200021c60201b60201c565b662386f26fc10000600a81905550678ac7230489e80000600b8190555050620007e9565b600073ffffffffffffffffffffffffffffffffffffffff168273ffffffffffffffffffffffffffffffffffffffff1614156200028f576040517f08c379a00000000000000000000000000000000000000000000000000000000081526004016200028690620005d5565b60405180910390fd5b620002a360008383620003bd60201b60201c565b620002b760025482620003c260201b60201c565b6002819055506200030f6000808473ffffffffffffffffffffffffffffffffffffffff1673ffffffffffffffffffffffffffffffffffffffff16815260200190815260200160002054600254620003c260201b60201c565b6000808473ffffffffffffffffffffffffffffffffffffffff1673ffffffffffffffffffffffffffffffffffffffff168152602001908152602001600020819055508173ffffffffffffffffffffffffffffffffffffffff16600073ffffffffffffffffffffffffffffffffffffffff167fddf252ad1be2c89b69c2b068fc378daa952ba7f163c4a11628f55a4df523b3ef83604051620003b19190620005f7565b60405180910390a35050565b505050565b6000808284620003d3919062000625565b9050838110156200040d577f4e487b7100000000000000000000000000000000000000000000000000000000600052600160045260246000fd5b8091505092915050565b8280546200042590620006c0565b90600052602060002090601f01602090048101928262000449576000855562000495565b82601f106200046457805160ff191683800117855562000495565b8280016001018555821562000495579182015b828111156200049457825182559160200191906001019062000477565b5b509050620004a49190620004b6565b5090565b611417806200265783390190565b5b80821115620004d1576000816000905550600101620004b7565b5090565b600081519050620004e681620007cf565b92915050565b600060208284031215620004ff57600080fd5b60006200050f84828501620004d5565b91505092915050565b60006200052760038362000614565b9150620005348262000754565b602082019050919050565b60006200054e60138362000614565b91506200055b826200077d565b602082019050919050565b600062000575601f8362000614565b91506200058282620007a6565b602082019050919050565b6200059881620006b6565b82525050565b60006040820190508181036000830152620005b9816200053f565b90508181036020830152620005ce8162000518565b9050919050565b60006020820190508181036000830152620005f08162000566565b9050919050565b60006020820190506200060e60008301846200058d565b92915050565b600082825260208201905092915050565b60006200063282620006b6565b91506200063f83620006b6565b9250827fffffffffffffffffffffffffffffffffffffffffffffffffffffffffffffffff03821115620006775762000676620006f6565b5b828201905092915050565b60006200068f8262000696565b9050919050565b600073ffffffffffffffffffffffffffffffffffffffff82169050919050565b6000819050919050565b60006002820490506001821680620006d957607f821691505b60208210811415620006f057620006ef62000725565b5b50919050565b7f4e487b7100000000000000000000000000000000000000000000000000000000600052601160045260246000fd5b7f4e487b7100000000000000000000000000000000000000000000000000000000600052602260045260246000fd5b7f5250540000000000000000000000000000000000000000000000000000000000600082015250565b7f5261726520506c6174666f726d20546f6b656e00000000000000000000000000600082015250565b7f45524332303a206d696e7420746f20746865207a65726f206164647265737300600082015250565b620007da8162000682565b8114620007e657600080fd5b50565b611e5e80620007f96000396000f3fe6080604052600436106101025760003560e01c8063715018a611610095578063a9442c0911610064578063a9442c0914610373578063c59ee1dc1461039e578063dd62ed3e146103c9578063f2fde38b14610406578063fc0c546a1461042f57610140565b8063715018a6146102ea57806395d89b4114610301578063a48217191461032c578063a9059cbb1461033657610140565b8063313ce567116100d1578063313ce5671461021a5780633feb5f2b146102455780636b0a26d21461028257806370a08231146102ad57610140565b806306fdde031461014a578063095ea7b31461017557806318160ddd146101b257806323b872dd146101dd57610140565b36610140577f950567f94688704edec9b1229bc9aad0452c63356d16cc35c3f9c9648fb43ec633604051610136919061162e565b60405180910390a1005b61014861045a565b005b34801561015657600080fd5b5061015f61076a565b60405161016c919061167f565b60405180910390f35b34801561018157600080fd5b5061019c600480360381019061019791906113c4565b6107f8565b6040516101a99190611649565b60405180910390f35b3480156101be57600080fd5b506101c76109c9565b6040516101d49190611801565b60405180910390f35b3480156101e957600080fd5b5061020460048036038101906101ff9190611375565b6109d3565b6040516102119190611649565b60405180910390f35b34801561022657600080fd5b5061022f610a77565b60405161023c919061181c565b60405180910390f35b34801561025157600080fd5b5061026c60048036038101906102679190611400565b610a80565b604051610279919061162e565b60405180910390f35b34801561028e57600080fd5b50610297610ab3565b6040516102a49190611801565b60405180910390f35b3480156102b957600080fd5b506102d460048036038101906102cf9190611310565b610ab9565b6040516102e19190611801565b60405180910390f35b3480156102f657600080fd5b506102ff610b01565b005b34801561030d57600080fd5b50610316610c52565b604051610323919061167f565b60405180910390f35b61033461045a565b005b34801561034257600080fd5b5061035d600480360381019061035891906113c4565b610ce0565b60405161036a9190611649565b60405180910390f35b34801561037f57600080fd5b50610388610cf5565b6040516103959190611801565b60405180910390f35b3480156103aa57600080fd5b506103b3610cfb565b6040516103c09190611801565b60405180910390f35b3480156103d557600080fd5b506103f060048036038101906103eb9190611339565b610d01565b6040516103fd9190611801565b60405180910390f35b34801561041257600080fd5b5061042d60048036038101906104289190611310565b610d88565b005b34801561043b57600080fd5b50610444610f48565b6040516104519190611664565b60405180910390f35b6000600560009054906101000a900473ffffffffffffffffffffffffffffffffffffffff1690508073ffffffffffffffffffffffffffffffffffffffff163373ffffffffffffffffffffffffffffffffffffffff1614156104f0576040517f08c379a00000000000000000000000000000000000000000000000000000000081526004016104e790611761565b60405180910390fd5b60003411801561051657503373ffffffffffffffffffffffffffffffffffffffff163134105b610555576040517f08c379a000000000000000000000000000000000000000000000000000000000815260040161054c90611741565b60405180910390fd5b600754346009546105669190611853565b11156105a7576040517f08c379a000000000000000000000000000000000000000000000000000000000815260040161059e90611701565b60405180910390fd5b600a5434101580156105bb5750600b543411155b6105fa576040517f08c379a00000000000000000000000000000000000000000000000000000000081526004016105f190611781565b60405180910390fd5b61060660095434610f6e565b600981905550600073ffffffffffffffffffffffffffffffffffffffff16600e6000600c54815260200190815260200160002060009054906101000a900473ffffffffffffffffffffffffffffffffffffffff1673ffffffffffffffffffffffffffffffffffffffff16146106e25733600e6000600c54815260200190815260200160002060006101000a81548173ffffffffffffffffffffffffffffffffffffffff021916908373ffffffffffffffffffffffffffffffffffffffff160217905550600c60008154809291906106dc90611a46565b91905055505b60006106f034600854610fc0565b9050600d60009054906101000a900473ffffffffffffffffffffffffffffffffffffffff1673ffffffffffffffffffffffffffffffffffffffff166108fc349081150290604051600060405180830381858888f1935050505015801561075a573d6000803e3d6000fd5b506107653382610ce0565b505050565b6003805461077790611a14565b80601f01602080910402602001604051908101604052809291908181526020018280546107a390611a14565b80156107f05780601f106107c5576101008083540402835291602001916107f0565b820191906000526020600020905b8154815290600101906020018083116107d357829003601f168201915b505050505081565b60008073ffffffffffffffffffffffffffffffffffffffff163373ffffffffffffffffffffffffffffffffffffffff161415610869576040517f08c379a0000000000000000000000000000000000000000000000000000000008152600401610860906117e1565b60405180910390fd5b600073ffffffffffffffffffffffffffffffffffffffff168373ffffffffffffffffffffffffffffffffffffffff1614156108d9576040517f08c379a00000000000000000000000000000000000000000000000000000000081526004016108d0906116e1565b60405180910390fd5b81600160003373ffffffffffffffffffffffffffffffffffffffff1673ffffffffffffffffffffffffffffffffffffffff16815260200190815260200160002060008573ffffffffffffffffffffffffffffffffffffffff1673ffffffffffffffffffffffffffffffffffffffff168152602001908152602001600020819055508273ffffffffffffffffffffffffffffffffffffffff163373ffffffffffffffffffffffffffffffffffffffff167f8c5be1e5ebec7d5bd14f71427d1e84f3dd0314c0f7b2291e5b200ac8c7c3b925846040516109b79190611801565b60405180910390a36001905092915050565b6000600254905090565b600080600160008673ffffffffffffffffffffffffffffffffffffffff1673ffffffffffffffffffffffffffffffffffffffff16815260200190815260200160002060003373ffffffffffffffffffffffffffffffffffffffff1673ffffffffffffffffffffffffffffffffffffffff16815260200190815260200160002054905082811015610a6257600080fd5b610a6d85858561102f565b9150509392505050565b60006012905090565b600e6020528060005260406000206000915054906101000a900473ffffffffffffffffffffffffffffffffffffffff1681565b60085481565b60008060008373ffffffffffffffffffffffffffffffffffffffff1673ffffffffffffffffffffffffffffffffffffffff168152602001908152602001600020549050919050565b600560009054906101000a900473ffffffffffffffffffffffffffffffffffffffff1673ffffffffffffffffffffffffffffffffffffffff163373ffffffffffffffffffffffffffffffffffffffff1614610b91576040517f08c379a0000000000000000000000000000000000000000000000000000000008152600401610b88906117c1565b60405180910390fd5b600073ffffffffffffffffffffffffffffffffffffffff16600560009054906101000a900473ffffffffffffffffffffffffffffffffffffffff1673ffffffffffffffffffffffffffffffffffffffff167f70aea8d848e8a90fb7661b227dc522eb6395c3dac71b63cb59edd5c9899b236460405160405180910390a36000600560006101000a81548173ffffffffffffffffffffffffffffffffffffffff021916908373ffffffffffffffffffffffffffffffffffffffff160217905550565b60048054610c5f90611a14565b80601f0160208091040260200160405190810160405280929190818152602001828054610c8b90611a14565b8015610cd85780601f10610cad57610100808354040283529160200191610cd8565b820191906000526020600020905b815481529060010190602001808311610cbb57829003601f168201915b505050505081565b6000610ced33848461102f565b905092915050565b600c5481565b60095481565b6000600160008473ffffffffffffffffffffffffffffffffffffffff1673ffffffffffffffffffffffffffffffffffffffff16815260200190815260200160002060008373ffffffffffffffffffffffffffffffffffffffff1673ffffffffffffffffffffffffffffffffffffffff16815260200190815260200160002054905092915050565b600560009054906101000a900473ffffffffffffffffffffffffffffffffffffffff1673ffffffffffffffffffffffffffffffffffffffff163373ffffffffffffffffffffffffffffffffffffffff1614610e18576040517f08c379a0000000000000000000000000000000000000000000000000000000008152600401610e0f906117c1565b60405180910390fd5b600073ffffffffffffffffffffffffffffffffffffffff168173ffffffffffffffffffffffffffffffffffffffff161415610e88576040517f08c379a0000000000000000000000000000000000000000000000000000000008152600401610e7f906116c1565b60405180910390fd5b8073ffffffffffffffffffffffffffffffffffffffff16600560009054906101000a900473ffffffffffffffffffffffffffffffffffffffff1673ffffffffffffffffffffffffffffffffffffffff167f70aea8d848e8a90fb7661b227dc522eb6395c3dac71b63cb59edd5c9899b236460405160405180910390a380600560006101000a81548173ffffffffffffffffffffffffffffffffffffffff021916908373ffffffffffffffffffffffffffffffffffffffff16021790555050565b600660009054906101000a900473ffffffffffffffffffffffffffffffffffffffff1681565b6000808284610f7d9190611853565b905083811015610fb6577f4e487b7100000000000000000000000000000000000000000000000000000000600052600160045260246000fd5b8091505092915050565b600080831415610fd35760009050611029565b60008284610fe191906118da565b9050828482610ff091906118a9565b14611024577f4e487b7100000000000000000000000000000000000000000000000000000000600052600160045260246000fd5b809150505b92915050565b60008073ffffffffffffffffffffffffffffffffffffffff168473ffffffffffffffffffffffffffffffffffffffff1614156110a0576040517f08c379a0000000000000000000000000000000000000000000000000000000008152600401611097906117a1565b60405180910390fd5b600073ffffffffffffffffffffffffffffffffffffffff168373ffffffffffffffffffffffffffffffffffffffff161415611110576040517f08c379a0000000000000000000000000000000000000000000000000000000008152600401611107906116a1565b60405180910390fd5b60008060008673ffffffffffffffffffffffffffffffffffffffff1673ffffffffffffffffffffffffffffffffffffffff16815260200190815260200160002054905082811015611196576040517f08c379a000000000000000000000000000000000000000000000000000000000815260040161118d90611721565b60405180910390fd5b826000808773ffffffffffffffffffffffffffffffffffffffff1673ffffffffffffffffffffffffffffffffffffffff16815260200190815260200160002060008282546111e49190611934565b925050819055506112336000808673ffffffffffffffffffffffffffffffffffffffff1673ffffffffffffffffffffffffffffffffffffffff1681526020019081526020016000205484610f6e565b6000808673ffffffffffffffffffffffffffffffffffffffff1673ffffffffffffffffffffffffffffffffffffffff168152602001908152602001600020819055508373ffffffffffffffffffffffffffffffffffffffff168573ffffffffffffffffffffffffffffffffffffffff167fddf252ad1be2c89b69c2b068fc378daa952ba7f163c4a11628f55a4df523b3ef856040516112d29190611801565b60405180910390a360019150509392505050565b6000813590506112f581611dfa565b92915050565b60008135905061130a81611e11565b92915050565b60006020828403121561132257600080fd5b6000611330848285016112e6565b91505092915050565b6000806040838503121561134c57600080fd5b600061135a858286016112e6565b925050602061136b858286016112e6565b9150509250929050565b60008060006060848603121561138a57600080fd5b6000611398868287016112e6565b93505060206113a9868287016112e6565b92505060406113ba868287016112fb565b9150509250925092565b600080604083850312156113d757600080fd5b60006113e5858286016112e6565b92505060206113f6858286016112fb565b9150509250929050565b60006020828403121561141257600080fd5b6000611420848285016112fb565b91505092915050565b61143281611968565b82525050565b6114418161197a565b82525050565b611450816119bd565b82525050565b600061146182611837565b61146b8185611842565b935061147b8185602086016119e1565b61148481611b1c565b840191505092915050565b600061149c602383611842565b91506114a782611b2d565b604082019050919050565b60006114bf602683611842565b91506114ca82611b7c565b604082019050919050565b60006114e2602283611842565b91506114ed82611bcb565b604082019050919050565b6000611505600b83611842565b915061151082611c1a565b602082019050919050565b6000611528602683611842565b915061153382611c43565b604082019050919050565b600061154b601383611842565b915061155682611c92565b602082019050919050565b600061156e602483611842565b915061157982611cbb565b604082019050919050565b6000611591601283611842565b915061159c82611d0a565b602082019050919050565b60006115b4602583611842565b91506115bf82611d33565b604082019050919050565b60006115d7601e83611842565b91506115e282611d82565b602082019050919050565b60006115fa602483611842565b915061160582611dab565b604082019050919050565b611619816119a6565b82525050565b611628816119b0565b82525050565b60006020820190506116436000830184611429565b92915050565b600060208201905061165e6000830184611438565b92915050565b60006020820190506116796000830184611447565b92915050565b600060208201905081810360008301526116998184611456565b905092915050565b600060208201905081810360008301526116ba8161148f565b9050919050565b600060208201905081810360008301526116da816114b2565b9050919050565b600060208201905081810360008301526116fa816114d5565b9050919050565b6000602082019050818103600083015261171a816114f8565b9050919050565b6000602082019050818103600083015261173a8161151b565b9050919050565b6000602082019050818103600083015261175a8161153e565b9050919050565b6000602082019050818103600083015261177a81611561565b9050919050565b6000602082019050818103600083015261179a81611584565b9050919050565b600060208201905081810360008301526117ba816115a7565b9050919050565b600060208201905081810360008301526117da816115ca565b9050919050565b600060208201905081810360008301526117fa816115ed565b9050919050565b60006020820190506118166000830184611610565b92915050565b6000602082019050611831600083018461161f565b92915050565b600081519050919050565b600082825260208201905092915050565b600061185e826119a6565b9150611869836119a6565b9250827fffffffffffffffffffffffffffffffffffffffffffffffffffffffffffffffff0382111561189e5761189d611a8f565b5b828201905092915050565b60006118b4826119a6565b91506118bf836119a6565b9250826118cf576118ce611abe565b5b828204905092915050565b60006118e5826119a6565b91506118f0836119a6565b9250817fffffffffffffffffffffffffffffffffffffffffffffffffffffffffffffffff048311821515161561192957611928611a8f565b5b828202905092915050565b600061193f826119a6565b915061194a836119a6565b92508282101561195d5761195c611a8f565b5b828203905092915050565b600061197382611986565b9050919050565b60008115159050919050565b600073ffffffffffffffffffffffffffffffffffffffff82169050919050565b6000819050919050565b600060ff82169050919050565b60006119c8826119cf565b9050919050565b60006119da82611986565b9050919050565b60005b838110156119ff5780820151818401526020810190506119e4565b83811115611a0e576000848401525b50505050565b60006002820490506001821680611a2c57607f821691505b60208210811415611a4057611a3f611aed565b5b50919050565b6000611a51826119a6565b91507fffffffffffffffffffffffffffffffffffffffffffffffffffffffffffffffff821415611a8457611a83611a8f565b5b600182019050919050565b7f4e487b7100000000000000000000000000000000000000000000000000000000600052601160045260246000fd5b7f4e487b7100000000000000000000000000000000000000000000000000000000600052601260045260246000fd5b7f4e487b7100000000000000000000000000000000000000000000000000000000600052602260045260246000fd5b6000601f19601f8301169050919050565b7f45524332303a207472616e7366657220746f20746865207a65726f206164647260008201527f6573730000000000000000000000000000000000000000000000000000000000602082015250565b7f4f776e61626c653a206e6577206f776e657220697320746865207a65726f206160008201527f6464726573730000000000000000000000000000000000000000000000000000602082015250565b7f45524332303a20617070726f766520746f20746865207a65726f20616464726560008201527f7373000000000000000000000000000000000000000000000000000000000000602082015250565b7f49434f206973206f766572000000000000000000000000000000000000000000600082015250565b7f45524332303a207472616e7366657220616d6f756e742065786365656473206260008201527f616c616e63650000000000000000000000000000000000000000000000000000602082015250565b7f49434f3a206e6f7420656e6f7567682065746800000000000000000000000000600082015250565b7f49434f3a2062757920746f6b656e207769746820636f6e74726163742061646460008201527f7265737300000000000000000000000000000000000000000000000000000000602082015250565b7f49434f3a206368616e676520616d6f756e740000000000000000000000000000600082015250565b7f45524332303a207472616e736665722066726f6d20746865207a65726f20616460008201527f6472657373000000000000000000000000000000000000000000000000000000602082015250565b7f4f776e65643a2063616c6c6572206973206e6f7420746865206f776e65720000600082015250565b7f45524332303a20617070726f76652066726f6d20746865207a65726f2061646460008201527f7265737300000000000000000000000000000000000000000000000000000000602082015250565b611e0381611968565b8114611e0e57600080fd5b50565b611e1a816119a6565b8114611e2557600080fd5b5056fea2646970667358221220cc9ffe9adb3db7dd18f62d206603d7b6dbf74c7b38c6ff2c01a601c7a3089a4d64736f6c6343000804003360806040523480156200001157600080fd5b506040516200141738038062001417833981810160405281019062000037919062000193565b81600390805190602001906200004f92919062000071565b5080600490805190602001906200006892919062000071565b50505062000376565b8280546200007f906200029b565b90600052602060002090601f016020900481019282620000a35760008555620000ef565b82601f10620000be57805160ff1916838001178555620000ef565b82800160010185558215620000ef579182015b82811115620000ee578251825591602001919060010190620000d1565b5b509050620000fe919062000102565b5090565b5b808211156200011d57600081600090555060010162000103565b5090565b60006200013862000132846200022f565b62000206565b9050828152602081018484840111156200015157600080fd5b6200015e84828562000265565b509392505050565b600082601f8301126200017857600080fd5b81516200018a84826020860162000121565b91505092915050565b60008060408385031215620001a757600080fd5b600083015167ffffffffffffffff811115620001c257600080fd5b620001d08582860162000166565b925050602083015167ffffffffffffffff811115620001ee57600080fd5b620001fc8582860162000166565b9150509250929050565b60006200021262000225565b9050620002208282620002d1565b919050565b6000604051905090565b600067ffffffffffffffff8211156200024d576200024c62000336565b5b620002588262000365565b9050602081019050919050565b60005b838110156200028557808201518184015260208101905062000268565b8381111562000295576000848401525b50505050565b60006002820490506001821680620002b457607f821691505b60208210811415620002cb57620002ca62000307565b5b50919050565b620002dc8262000365565b810181811067ffffffffffffffff82111715620002fe57620002fd62000336565b5b80604052505050565b7f4e487b7100000000000000000000000000000000000000000000000000000000600052602260045260246000fd5b7f4e487b7100000000000000000000000000000000000000000000000000000000600052604160045260246000fd5b6000601f19601f8301169050919050565b61109180620003866000396000f3fe608060405234801561001057600080fd5b50600436106100935760003560e01c8063313ce56711610066578063313ce5671461013457806370a082311461015257806395d89b4114610182578063a9059cbb146101a0578063dd62ed3e146101d057610093565b806306fdde0314610098578063095ea7b3146100b657806318160ddd146100e657806323b872dd14610104575b600080fd5b6100a0610200565b6040516100ad9190610bdb565b60405180910390f35b6100d060048036038101906100cb9190610a6f565b61028e565b6040516100dd9190610bc0565b60405180910390f35b6100ee61045f565b6040516100fb9190610c9d565b60405180910390f35b61011e60048036038101906101199190610a20565b610469565b60405161012b9190610bc0565b60405180910390f35b61013c61050d565b6040516101499190610cb8565b60405180910390f35b61016c600480360381019061016791906109bb565b610516565b6040516101799190610c9d565b60405180910390f35b61018a61055e565b6040516101979190610bdb565b60405180910390f35b6101ba60048036038101906101b59190610a6f565b6105ec565b6040516101c79190610bc0565b60405180910390f35b6101ea60048036038101906101e591906109e4565b610601565b6040516101f79190610c9d565b60405180910390f35b6003805461020d90610e01565b80601f016020809104026020016040519081016040528092919081815260200182805461023990610e01565b80156102865780601f1061025b57610100808354040283529160200191610286565b820191906000526020600020905b81548152906001019060200180831161026957829003601f168201915b505050505081565b60008073ffffffffffffffffffffffffffffffffffffffff163373ffffffffffffffffffffffffffffffffffffffff1614156102ff576040517f08c379a00000000000000000000000000000000000000000000000000000000081526004016102f690610c7d565b60405180910390fd5b600073ffffffffffffffffffffffffffffffffffffffff168373ffffffffffffffffffffffffffffffffffffffff16141561036f576040517f08c379a000000000000000000000000000000000000000000000000000000000815260040161036690610c1d565b60405180910390fd5b81600160003373ffffffffffffffffffffffffffffffffffffffff1673ffffffffffffffffffffffffffffffffffffffff16815260200190815260200160002060008573ffffffffffffffffffffffffffffffffffffffff1673ffffffffffffffffffffffffffffffffffffffff168152602001908152602001600020819055508273ffffffffffffffffffffffffffffffffffffffff163373ffffffffffffffffffffffffffffffffffffffff167f8c5be1e5ebec7d5bd14f71427d1e84f3dd0314c0f7b2291e5b200ac8c7c3b9258460405161044d9190610c9d565b60405180910390a36001905092915050565b6000600254905090565b600080600160008673ffffffffffffffffffffffffffffffffffffffff1673ffffffffffffffffffffffffffffffffffffffff16815260200190815260200160002060003373ffffffffffffffffffffffffffffffffffffffff1673ffffffffffffffffffffffffffffffffffffffff168152602001908152602001600020549050828110156104f857600080fd5b610503858585610688565b9150509392505050565b60006012905090565b60008060008373ffffffffffffffffffffffffffffffffffffffff1673ffffffffffffffffffffffffffffffffffffffff168152602001908152602001600020549050919050565b6004805461056b90610e01565b80601f016020809104026020016040519081016040528092919081815260200182805461059790610e01565b80156105e45780601f106105b9576101008083540402835291602001916105e4565b820191906000526020600020905b8154815290600101906020018083116105c757829003601f168201915b505050505081565b60006105f9338484610688565b905092915050565b6000600160008473ffffffffffffffffffffffffffffffffffffffff1673ffffffffffffffffffffffffffffffffffffffff16815260200190815260200160002060008373ffffffffffffffffffffffffffffffffffffffff1673ffffffffffffffffffffffffffffffffffffffff16815260200190815260200160002054905092915050565b60008073ffffffffffffffffffffffffffffffffffffffff168473ffffffffffffffffffffffffffffffffffffffff1614156106f9576040517f08c379a00000000000000000000000000000000000000000000000000000000081526004016106f090610c5d565b60405180910390fd5b600073ffffffffffffffffffffffffffffffffffffffff168373ffffffffffffffffffffffffffffffffffffffff161415610769576040517f08c379a000000000000000000000000000000000000000000000000000000000815260040161076090610bfd565b60405180910390fd5b60008060008673ffffffffffffffffffffffffffffffffffffffff1673ffffffffffffffffffffffffffffffffffffffff168152602001908152602001600020549050828110156107ef576040517f08c379a00000000000000000000000000000000000000000000000000000000081526004016107e690610c3d565b60405180910390fd5b826000808773ffffffffffffffffffffffffffffffffffffffff1673ffffffffffffffffffffffffffffffffffffffff168152602001908152602001600020600082825461083d9190610d45565b9250508190555061088c6000808673ffffffffffffffffffffffffffffffffffffffff1673ffffffffffffffffffffffffffffffffffffffff168152602001908152602001600020548461093f565b6000808673ffffffffffffffffffffffffffffffffffffffff1673ffffffffffffffffffffffffffffffffffffffff168152602001908152602001600020819055508373ffffffffffffffffffffffffffffffffffffffff168573ffffffffffffffffffffffffffffffffffffffff167fddf252ad1be2c89b69c2b068fc378daa952ba7f163c4a11628f55a4df523b3ef8560405161092b9190610c9d565b60405180910390a360019150509392505050565b600080828461094e9190610cef565b905083811015610987577f4e487b7100000000000000000000000000000000000000000000000000000000600052600160045260246000fd5b8091505092915050565b6000813590506109a08161102d565b92915050565b6000813590506109b581611044565b92915050565b6000602082840312156109cd57600080fd5b60006109db84828501610991565b91505092915050565b600080604083850312156109f757600080fd5b6000610a0585828601610991565b9250506020610a1685828601610991565b9150509250929050565b600080600060608486031215610a3557600080fd5b6000610a4386828701610991565b9350506020610a5486828701610991565b9250506040610a65868287016109a6565b9150509250925092565b60008060408385031215610a8257600080fd5b6000610a9085828601610991565b9250506020610aa1858286016109a6565b9150509250929050565b610ab481610d8b565b82525050565b6000610ac582610cd3565b610acf8185610cde565b9350610adf818560208601610dce565b610ae881610e91565b840191505092915050565b6000610b00602383610cde565b9150610b0b82610ea2565b604082019050919050565b6000610b23602283610cde565b9150610b2e82610ef1565b604082019050919050565b6000610b46602683610cde565b9150610b5182610f40565b604082019050919050565b6000610b69602583610cde565b9150610b7482610f8f565b604082019050919050565b6000610b8c602483610cde565b9150610b9782610fde565b604082019050919050565b610bab81610db7565b82525050565b610bba81610dc1565b82525050565b6000602082019050610bd56000830184610aab565b92915050565b60006020820190508181036000830152610bf58184610aba565b905092915050565b60006020820190508181036000830152610c1681610af3565b9050919050565b60006020820190508181036000830152610c3681610b16565b9050919050565b60006020820190508181036000830152610c5681610b39565b9050919050565b60006020820190508181036000830152610c7681610b5c565b9050919050565b60006020820190508181036000830152610c9681610b7f565b9050919050565b6000602082019050610cb26000830184610ba2565b92915050565b6000602082019050610ccd6000830184610bb1565b92915050565b600081519050919050565b600082825260208201905092915050565b6000610cfa82610db7565b9150610d0583610db7565b9250827fffffffffffffffffffffffffffffffffffffffffffffffffffffffffffffffff03821115610d3a57610d39610e33565b5b828201905092915050565b6000610d5082610db7565b9150610d5b83610db7565b925082821015610d6e57610d6d610e33565b5b828203905092915050565b6000610d8482610d97565b9050919050565b60008115159050919050565b600073ffffffffffffffffffffffffffffffffffffffff82169050919050565b6000819050919050565b600060ff82169050919050565b60005b83811015610dec578082015181840152602081019050610dd1565b83811115610dfb576000848401525b50505050565b60006002820490506001821680610e1957607f821691505b60208210811415610e2d57610e2c610e62565b5b50919050565b7f4e487b7100000000000000000000000000000000000000000000000000000000600052601160045260246000fd5b7f4e487b7100000000000000000000000000000000000000000000000000000000600052602260045260246000fd5b6000601f19601f8301169050919050565b7f45524332303a207472616e7366657220746f20746865207a65726f206164647260008201527f6573730000000000000000000000000000000000000000000000000000000000602082015250565b7f45524332303a20617070726f766520746f20746865207a65726f20616464726560008201527f7373000000000000000000000000000000000000000000000000000000000000602082015250565b7f45524332303a207472616e7366657220616d6f756e742065786365656473206260008201527f616c616e63650000000000000000000000000000000000000000000000000000602082015250565b7f45524332303a207472616e736665722066726f6d20746865207a65726f20616460008201527f6472657373000000000000000000000000000000000000000000000000000000602082015250565b7f45524332303a20617070726f76652066726f6d20746865207a65726f2061646460008201527f7265737300000000000000000000000000000000000000000000000000000000602082015250565b61103681610d79565b811461104157600080fd5b50565b61104d81610db7565b811461105857600080fd5b5056fea2646970667358221220ab4eb636608e9c3092afb83073e9b8a46f6f0906a4be556a6fafbceed8f1827c64736f6c63430008040033",
  "immutableReferences": {},
  "source": "// SPDX-License-Identifier: MIT\npragma solidity 0.8.4;\n\nimport \"./ERC20/ERC20.sol\";\nimport \"./ERC20/Owned.sol\";\n\ncontract ICO is ERC20(\"Rare Platform Token\", \"RPT\"), Owned {\n    ERC20 public token;\n\n    uint256 private initialSupply = 500000 ether; // 1 eth = 10^(18) => decimals = 18\n    uint256 public rateOfChange = 1000;\n    uint256 public raisedAmount;\n    uint256 private minInvestment;\n    uint256 private maxInvestment;\n    uint256 public nbOfInvestors;\n    address payable private depositETHAddress;\n\n    mapping(uint256 => address) public investors;\n\n    event State(address _address);\n\n    constructor(address payable _depositETHAddress) {\n        token = new ERC20(\"Rare Platform Token\", \"RPT\");\n\n        depositETHAddress = _depositETHAddress;\n        mint(msg.sender, initialSupply);\n\n        minInvestment = 0.01 ether;\n        maxInvestment = 10 ether;\n    }\n\n    function buyToken() public payable {\n        // get the owner address (the one used to deploy the contract)\n        address ownerAddress = owner;\n\n        // prevent the contract address to buy tokens\n        require(\n            msg.sender != ownerAddress,\n            \"ICO: buy token with contract address\"\n        );\n\n        // require enough eth to buy tokens\n        require(\n            msg.value > 0 && msg.value < msg.sender.balance,\n            \"ICO: not enough eth\"\n        );\n\n        // prevent buying tokens after all tokens have been sold out.\n        require(raisedAmount + msg.value <= initialSupply, \"ICO is over\");\n\n        // the amount to invest must be in range [minInvestment, maxInvestment]\n        require(\n            msg.value >= minInvestment && msg.value <= maxInvestment,\n            \"ICO: change amount\"\n        );\n\n        // update state variables before calling external function (security).\n        // Register the user only if buying the first time\n        raisedAmount = add(raisedAmount, msg.value);\n\n        if (\n            investors[nbOfInvestors] !=\n            address(0x0000000000000000000000000000000000000000)\n        ) {\n            investors[nbOfInvestors] = msg.sender;\n            nbOfInvestors++;\n        }\n\n        // amount of tokens to buy\n        uint256 tokens = mul(msg.value, rateOfChange);\n\n        // send eth to the deposit account of the contract owner,\n        // not to the contract address\n        depositETHAddress.transfer(msg.value);\n\n        // transfer tokens to the buyer\n        transfer(msg.sender, tokens);\n    }\n\n    receive() external payable {\n        emit State(msg.sender);\n    }\n\n    fallback() external payable {\n        buyToken();\n    }\n}\n",
  "sourcePath": "/Users/samuel/Documents/Projet_Job/Candidatures/RarePorn/contracts/ICO.sol",
  "compiler": {
    "name": "solc",
    "version": "0.8.4+commit.c7e474f2.Emscripten.clang"
  },
  "schemaVersion": "3.3.4",
  "updatedAt": "2021-06-11T13:31:05.373Z",
  "networkType": "ethereum",
  "devdoc": {
    "kind": "dev",
    "methods": {
      "totalSupply()": {
        "details": "returns the total amount of tokens in existence right now, minus any tokens that have been burned."
      }
    },
    "version": 1
  },
  "userdoc": {
    "kind": "user",
    "methods": {},
    "version": 1
  }
}