{
  "contractName": "ImageNFT",
  "abi": [
    {
      "inputs": [],
      "stateMutability": "nonpayable",
      "type": "constructor"
    },
    {
      "anonymous": false,
      "inputs": [
        {
          "indexed": true,
          "internalType": "address",
          "name": "owner",
          "type": "address"
        },
        {
          "indexed": true,
          "internalType": "address",
          "name": "approved",
          "type": "address"
        },
        {
          "indexed": true,
          "internalType": "uint256",
          "name": "tokenId",
          "type": "uint256"
        }
      ],
      "name": "Approval",
      "type": "event"
    },
    {
      "anonymous": false,
      "inputs": [
        {
          "indexed": true,
          "internalType": "address",
          "name": "owner",
          "type": "address"
        },
        {
          "indexed": true,
          "internalType": "address",
          "name": "operator",
          "type": "address"
        },
        {
          "indexed": false,
          "internalType": "bool",
          "name": "approved",
          "type": "bool"
        }
      ],
      "name": "ApprovalForAll",
      "type": "event"
    },
    {
      "anonymous": false,
      "inputs": [
        {
          "indexed": true,
          "internalType": "address",
          "name": "from",
          "type": "address"
        },
        {
          "indexed": true,
          "internalType": "address",
          "name": "to",
          "type": "address"
        },
        {
          "indexed": true,
          "internalType": "uint256",
          "name": "tokenId",
          "type": "uint256"
        }
      ],
      "name": "Transfer",
      "type": "event"
    },
    {
      "inputs": [
        {
          "internalType": "address",
          "name": "to",
          "type": "address"
        },
        {
          "internalType": "uint256",
          "name": "tokenId",
          "type": "uint256"
        }
      ],
      "name": "approve",
      "outputs": [],
      "stateMutability": "nonpayable",
      "type": "function"
    },
    {
      "inputs": [
        {
          "internalType": "address",
          "name": "owner",
          "type": "address"
        }
      ],
      "name": "balanceOf",
      "outputs": [
        {
          "internalType": "uint256",
          "name": "",
          "type": "uint256"
        }
      ],
      "stateMutability": "view",
      "type": "function",
      "constant": true
    },
    {
      "inputs": [],
      "name": "counter",
      "outputs": [
        {
          "internalType": "uint256",
          "name": "",
          "type": "uint256"
        }
      ],
      "stateMutability": "view",
      "type": "function",
      "constant": true
    },
    {
      "inputs": [
        {
          "internalType": "uint256",
          "name": "tokenId",
          "type": "uint256"
        }
      ],
      "name": "getApproved",
      "outputs": [
        {
          "internalType": "address",
          "name": "",
          "type": "address"
        }
      ],
      "stateMutability": "view",
      "type": "function",
      "constant": true
    },
    {
      "inputs": [
        {
          "internalType": "uint256",
          "name": "",
          "type": "uint256"
        }
      ],
      "name": "images",
      "outputs": [
        {
          "internalType": "string",
          "name": "",
          "type": "string"
        }
      ],
      "stateMutability": "view",
      "type": "function",
      "constant": true
    },
    {
      "inputs": [
        {
          "internalType": "address",
          "name": "owner",
          "type": "address"
        },
        {
          "internalType": "address",
          "name": "operator",
          "type": "address"
        }
      ],
      "name": "isApprovedForAll",
      "outputs": [
        {
          "internalType": "bool",
          "name": "",
          "type": "bool"
        }
      ],
      "stateMutability": "view",
      "type": "function",
      "constant": true
    },
    {
      "inputs": [],
      "name": "name",
      "outputs": [
        {
          "internalType": "string",
          "name": "",
          "type": "string"
        }
      ],
      "stateMutability": "view",
      "type": "function",
      "constant": true
    },
    {
      "inputs": [
        {
          "internalType": "uint256",
          "name": "tokenId",
          "type": "uint256"
        }
      ],
      "name": "ownerOf",
      "outputs": [
        {
          "internalType": "address",
          "name": "",
          "type": "address"
        }
      ],
      "stateMutability": "view",
      "type": "function",
      "constant": true
    },
    {
      "inputs": [
        {
          "internalType": "address",
          "name": "from",
          "type": "address"
        },
        {
          "internalType": "address",
          "name": "to",
          "type": "address"
        },
        {
          "internalType": "uint256",
          "name": "tokenId",
          "type": "uint256"
        }
      ],
      "name": "safeTransferFrom",
      "outputs": [],
      "stateMutability": "nonpayable",
      "type": "function"
    },
    {
      "inputs": [
        {
          "internalType": "address",
          "name": "from",
          "type": "address"
        },
        {
          "internalType": "address",
          "name": "to",
          "type": "address"
        },
        {
          "internalType": "uint256",
          "name": "tokenId",
          "type": "uint256"
        },
        {
          "internalType": "bytes",
          "name": "_data",
          "type": "bytes"
        }
      ],
      "name": "safeTransferFrom",
      "outputs": [],
      "stateMutability": "nonpayable",
      "type": "function"
    },
    {
      "inputs": [
        {
          "internalType": "address",
          "name": "operator",
          "type": "address"
        },
        {
          "internalType": "bool",
          "name": "approved",
          "type": "bool"
        }
      ],
      "name": "setApprovalForAll",
      "outputs": [],
      "stateMutability": "nonpayable",
      "type": "function"
    },
    {
      "inputs": [
        {
          "internalType": "bytes4",
          "name": "interfaceId",
          "type": "bytes4"
        }
      ],
      "name": "supportsInterface",
      "outputs": [
        {
          "internalType": "bool",
          "name": "",
          "type": "bool"
        }
      ],
      "stateMutability": "view",
      "type": "function",
      "constant": true
    },
    {
      "inputs": [],
      "name": "symbol",
      "outputs": [
        {
          "internalType": "string",
          "name": "",
          "type": "string"
        }
      ],
      "stateMutability": "view",
      "type": "function",
      "constant": true
    },
    {
      "inputs": [
        {
          "internalType": "uint256",
          "name": "tokenId",
          "type": "uint256"
        }
      ],
      "name": "tokenURI",
      "outputs": [
        {
          "internalType": "string",
          "name": "",
          "type": "string"
        }
      ],
      "stateMutability": "view",
      "type": "function",
      "constant": true
    },
    {
      "inputs": [
        {
          "internalType": "address",
          "name": "from",
          "type": "address"
        },
        {
          "internalType": "address",
          "name": "to",
          "type": "address"
        },
        {
          "internalType": "uint256",
          "name": "tokenId",
          "type": "uint256"
        }
      ],
      "name": "transferFrom",
      "outputs": [],
      "stateMutability": "nonpayable",
      "type": "function"
    },
    {
      "inputs": [
        {
          "internalType": "string",
          "name": "_imageCID",
          "type": "string"
        }
      ],
      "name": "createImage",
      "outputs": [
        {
          "internalType": "uint256",
          "name": "",
          "type": "uint256"
        }
      ],
      "stateMutability": "nonpayable",
      "type": "function"
    }
  ],
  "bytecode": "0x60806040523480156200001157600080fd5b506040518060400160405280601181526020017f5261726520506c6174666f726d204e46540000000000000000000000000000008152506040518060400160405280600581526020017f52504e4654000000000000000000000000000000000000000000000000000000815250816000908051906020019062000096929190620000b8565b508060019080519060200190620000af929190620000b8565b505050620001cd565b828054620000c69062000168565b90600052602060002090601f016020900481019282620000ea576000855562000136565b82601f106200010557805160ff191683800117855562000136565b8280016001018555821562000136579182015b828111156200013557825182559160200191906001019062000118565b5b50905062000145919062000149565b5090565b5b80821115620001645760008160009055506001016200014a565b5090565b600060028204905060018216806200018157607f821691505b602082108114156200019857620001976200019e565b5b50919050565b7f4e487b7100000000000000000000000000000000000000000000000000000000600052602260045260246000fd5b612b3880620001dd6000396000f3fe608060405234801561001057600080fd5b50600436106101005760003560e01c80636b08239b11610097578063a22cb46511610066578063a22cb465146102d3578063b88d4fde146102ef578063c87b56dd1461030b578063e985e9c51461033b57610100565b80636b08239b1461022557806370a0823114610255578063848564821461028557806395d89b41146102b557610100565b806323b872dd116100d357806323b872dd1461019f57806342842e0e146101bb57806361bc221a146101d75780636352211e146101f557610100565b806301ffc9a71461010557806306fdde0314610135578063081812fc14610153578063095ea7b314610183575b600080fd5b61011f600480360381019061011a9190611c45565b61036b565b60405161012c9190612080565b60405180910390f35b61013d61044d565b60405161014a919061209b565b60405180910390f35b61016d60048036038101906101689190611cd8565b6104df565b60405161017a9190612019565b60405180910390f35b61019d60048036038101906101989190611c09565b610564565b005b6101b960048036038101906101b49190611b03565b61067c565b005b6101d560048036038101906101d09190611b03565b6106dc565b005b6101df6106fc565b6040516101ec919061229d565b60405180910390f35b61020f600480360381019061020a9190611cd8565b610702565b60405161021c9190612019565b60405180910390f35b61023f600480360381019061023a9190611c97565b6107b4565b60405161024c919061229d565b60405180910390f35b61026f600480360381019061026a9190611a9e565b6108c7565b60405161027c919061229d565b60405180910390f35b61029f600480360381019061029a9190611cd8565b61097f565b6040516102ac919061209b565b60405180910390f35b6102bd610a2b565b6040516102ca919061209b565b60405180910390f35b6102ed60048036038101906102e89190611bcd565b610abd565b005b61030960048036038101906103049190611b52565b610c3e565b005b61032560048036038101906103209190611cd8565b610ca0565b604051610332919061209b565b60405180910390f35b61035560048036038101906103509190611ac7565b610d47565b6040516103629190612080565b60405180910390f35b60007f80ac58cd000000000000000000000000000000000000000000000000000000007bffffffffffffffffffffffffffffffffffffffffffffffffffffffff1916827bffffffffffffffffffffffffffffffffffffffffffffffffffffffff1916148061043657507f5b5e139f000000000000000000000000000000000000000000000000000000007bffffffffffffffffffffffffffffffffffffffffffffffffffffffff1916827bffffffffffffffffffffffffffffffffffffffffffffffffffffffff1916145b80610446575061044582610ddb565b5b9050919050565b60606000805461045c906124f3565b80601f0160208091040260200160405190810160405280929190818152602001828054610488906124f3565b80156104d55780601f106104aa576101008083540402835291602001916104d5565b820191906000526020600020905b8154815290600101906020018083116104b857829003601f168201915b5050505050905090565b60006104ea82610e45565b610529576040517f08c379a0000000000000000000000000000000000000000000000000000000008152600401610520906121fd565b60405180910390fd5b6004600083815260200190815260200160002060009054906101000a900473ffffffffffffffffffffffffffffffffffffffff169050919050565b600061056f82610702565b90508073ffffffffffffffffffffffffffffffffffffffff168373ffffffffffffffffffffffffffffffffffffffff1614156105e0576040517f08c379a00000000000000000000000000000000000000000000000000000000081526004016105d79061225d565b60405180910390fd5b8073ffffffffffffffffffffffffffffffffffffffff166105ff610eb1565b73ffffffffffffffffffffffffffffffffffffffff16148061062e575061062d81610628610eb1565b610d47565b5b61066d576040517f08c379a00000000000000000000000000000000000000000000000000000000081526004016106649061215d565b60405180910390fd5b6106778383610eb9565b505050565b61068d610687610eb1565b82610f72565b6106cc576040517f08c379a00000000000000000000000000000000000000000000000000000000081526004016106c39061227d565b60405180910390fd5b6106d7838383611050565b505050565b6106f783838360405180602001604052806000815250610c3e565b505050565b60065481565b6000806002600084815260200190815260200160002060009054906101000a900473ffffffffffffffffffffffffffffffffffffffff169050600073ffffffffffffffffffffffffffffffffffffffff168173ffffffffffffffffffffffffffffffffffffffff1614156107ab576040517f08c379a00000000000000000000000000000000000000000000000000000000081526004016107a2906121bd565b60405180910390fd5b80915050919050565b60006008826040516107c69190611fde565b908152602001604051809103902060009054906101000a900460ff1615610822576040517f08c379a00000000000000000000000000000000000000000000000000000000081526004016108199061217d565b60405180910390fd5b600060065490506007839080600181540180825580915050600190039060005260206000200160009091909190915090805190602001906108649291906118c2565b5061086f33826112ac565b60016008846040516108819190611fde565b908152602001604051809103902060006101000a81548160ff021916908315150217905550600660008154809291906108b990612556565b919050555080915050919050565b60008073ffffffffffffffffffffffffffffffffffffffff168273ffffffffffffffffffffffffffffffffffffffff161415610938576040517f08c379a000000000000000000000000000000000000000000000000000000000815260040161092f9061219d565b60405180910390fd5b600360008373ffffffffffffffffffffffffffffffffffffffff1673ffffffffffffffffffffffffffffffffffffffff168152602001908152602001600020549050919050565b6007818154811061098f57600080fd5b9060005260206000200160009150905080546109aa906124f3565b80601f01602080910402602001604051908101604052809291908181526020018280546109d6906124f3565b8015610a235780601f106109f857610100808354040283529160200191610a23565b820191906000526020600020905b815481529060010190602001808311610a0657829003601f168201915b505050505081565b606060018054610a3a906124f3565b80601f0160208091040260200160405190810160405280929190818152602001828054610a66906124f3565b8015610ab35780601f10610a8857610100808354040283529160200191610ab3565b820191906000526020600020905b815481529060010190602001808311610a9657829003601f168201915b5050505050905090565b610ac5610eb1565b73ffffffffffffffffffffffffffffffffffffffff168273ffffffffffffffffffffffffffffffffffffffff161415610b33576040517f08c379a0000000000000000000000000000000000000000000000000000000008152600401610b2a9061211d565b60405180910390fd5b8060056000610b40610eb1565b73ffffffffffffffffffffffffffffffffffffffff1673ffffffffffffffffffffffffffffffffffffffff16815260200190815260200160002060008473ffffffffffffffffffffffffffffffffffffffff1673ffffffffffffffffffffffffffffffffffffffff16815260200190815260200160002060006101000a81548160ff0219169083151502179055508173ffffffffffffffffffffffffffffffffffffffff16610bed610eb1565b73ffffffffffffffffffffffffffffffffffffffff167f17307eab39ab6107e8899845ad3d59bd9653f200f220920489ca2b5937696c3183604051610c329190612080565b60405180910390a35050565b610c4f610c49610eb1565b83610f72565b610c8e576040517f08c379a0000000000000000000000000000000000000000000000000000000008152600401610c859061227d565b60405180910390fd5b610c9a848484846112ca565b50505050565b6060610cab82610e45565b610cea576040517f08c379a0000000000000000000000000000000000000000000000000000000008152600401610ce19061223d565b60405180910390fd5b6000610cf4611326565b90506000815111610d145760405180602001604052806000815250610d3f565b80610d1e8461133d565b604051602001610d2f929190611ff5565b6040516020818303038152906040525b915050919050565b6000600560008473ffffffffffffffffffffffffffffffffffffffff1673ffffffffffffffffffffffffffffffffffffffff16815260200190815260200160002060008373ffffffffffffffffffffffffffffffffffffffff1673ffffffffffffffffffffffffffffffffffffffff16815260200190815260200160002060009054906101000a900460ff16905092915050565b60007f01ffc9a7000000000000000000000000000000000000000000000000000000007bffffffffffffffffffffffffffffffffffffffffffffffffffffffff1916827bffffffffffffffffffffffffffffffffffffffffffffffffffffffff1916149050919050565b60008073ffffffffffffffffffffffffffffffffffffffff166002600084815260200190815260200160002060009054906101000a900473ffffffffffffffffffffffffffffffffffffffff1673ffffffffffffffffffffffffffffffffffffffff1614159050919050565b600033905090565b816004600083815260200190815260200160002060006101000a81548173ffffffffffffffffffffffffffffffffffffffff021916908373ffffffffffffffffffffffffffffffffffffffff160217905550808273ffffffffffffffffffffffffffffffffffffffff16610f2c83610702565b73ffffffffffffffffffffffffffffffffffffffff167f8c5be1e5ebec7d5bd14f71427d1e84f3dd0314c0f7b2291e5b200ac8c7c3b92560405160405180910390a45050565b6000610f7d82610e45565b610fbc576040517f08c379a0000000000000000000000000000000000000000000000000000000008152600401610fb39061213d565b60405180910390fd5b6000610fc783610702565b90508073ffffffffffffffffffffffffffffffffffffffff168473ffffffffffffffffffffffffffffffffffffffff16148061103657508373ffffffffffffffffffffffffffffffffffffffff1661101e846104df565b73ffffffffffffffffffffffffffffffffffffffff16145b8061104757506110468185610d47565b5b91505092915050565b8273ffffffffffffffffffffffffffffffffffffffff1661107082610702565b73ffffffffffffffffffffffffffffffffffffffff16146110c6576040517f08c379a00000000000000000000000000000000000000000000000000000000081526004016110bd9061221d565b60405180910390fd5b600073ffffffffffffffffffffffffffffffffffffffff168273ffffffffffffffffffffffffffffffffffffffff161415611136576040517f08c379a000000000000000000000000000000000000000000000000000000000815260040161112d906120fd565b60405180910390fd5b6111418383836114ea565b61114c600082610eb9565b6001600360008573ffffffffffffffffffffffffffffffffffffffff1673ffffffffffffffffffffffffffffffffffffffff168152602001908152602001600020600082825461119c9190612409565b925050819055506001600360008473ffffffffffffffffffffffffffffffffffffffff1673ffffffffffffffffffffffffffffffffffffffff16815260200190815260200160002060008282546111f39190612382565b92505081905550816002600083815260200190815260200160002060006101000a81548173ffffffffffffffffffffffffffffffffffffffff021916908373ffffffffffffffffffffffffffffffffffffffff160217905550808273ffffffffffffffffffffffffffffffffffffffff168473ffffffffffffffffffffffffffffffffffffffff167fddf252ad1be2c89b69c2b068fc378daa952ba7f163c4a11628f55a4df523b3ef60405160405180910390a4505050565b6112c68282604051806020016040528060008152506114ef565b5050565b6112d5848484611050565b6112e18484848461154a565b611320576040517f08c379a0000000000000000000000000000000000000000000000000000000008152600401611317906120bd565b60405180910390fd5b50505050565b606060405180602001604052806000815250905090565b60606000821415611385576040518060400160405280600181526020017f300000000000000000000000000000000000000000000000000000000000000081525090506114e5565b600082905060005b600082146113b75780806113a090612556565b915050600a826113b091906123d8565b915061138d565b60008167ffffffffffffffff8111156113f9577f4e487b7100000000000000000000000000000000000000000000000000000000600052604160045260246000fd5b6040519080825280601f01601f19166020018201604052801561142b5781602001600182028036833780820191505090505b5090505b600085146114de576001826114449190612409565b9150600a85611453919061259f565b603061145f9190612382565b60f81b81838151811061149b577f4e487b7100000000000000000000000000000000000000000000000000000000600052603260045260246000fd5b60200101907effffffffffffffffffffffffffffffffffffffffffffffffffffffffffffff1916908160001a905350600a856114d791906123d8565b945061142f565b8093505050505b919050565b505050565b6114f983836116e1565b611506600084848461154a565b611545576040517f08c379a000000000000000000000000000000000000000000000000000000000815260040161153c906120bd565b60405180910390fd5b505050565b600061156b8473ffffffffffffffffffffffffffffffffffffffff166118af565b156116d4578373ffffffffffffffffffffffffffffffffffffffff1663150b7a02611594610eb1565b8786866040518563ffffffff1660e01b81526004016115b69493929190612034565b602060405180830381600087803b1580156115d057600080fd5b505af192505050801561160157506040513d601f19601f820116820180604052508101906115fe9190611c6e565b60015b611684573d8060008114611631576040519150601f19603f3d011682016040523d82523d6000602084013e611636565b606091505b5060008151141561167c576040517f08c379a0000000000000000000000000000000000000000000000000000000008152600401611673906120bd565b60405180910390fd5b805181602001fd5b63150b7a0260e01b7bffffffffffffffffffffffffffffffffffffffffffffffffffffffff1916817bffffffffffffffffffffffffffffffffffffffffffffffffffffffff1916149150506116d9565b600190505b949350505050565b600073ffffffffffffffffffffffffffffffffffffffff168273ffffffffffffffffffffffffffffffffffffffff161415611751576040517f08c379a0000000000000000000000000000000000000000000000000000000008152600401611748906121dd565b60405180910390fd5b61175a81610e45565b1561179a576040517f08c379a0000000000000000000000000000000000000000000000000000000008152600401611791906120dd565b60405180910390fd5b6117a6600083836114ea565b6001600360008473ffffffffffffffffffffffffffffffffffffffff1673ffffffffffffffffffffffffffffffffffffffff16815260200190815260200160002060008282546117f69190612382565b92505081905550816002600083815260200190815260200160002060006101000a81548173ffffffffffffffffffffffffffffffffffffffff021916908373ffffffffffffffffffffffffffffffffffffffff160217905550808273ffffffffffffffffffffffffffffffffffffffff16600073ffffffffffffffffffffffffffffffffffffffff167fddf252ad1be2c89b69c2b068fc378daa952ba7f163c4a11628f55a4df523b3ef60405160405180910390a45050565b600080823b905060008111915050919050565b8280546118ce906124f3565b90600052602060002090601f0160209004810192826118f05760008555611937565b82601f1061190957805160ff1916838001178555611937565b82800160010185558215611937579182015b8281111561193657825182559160200191906001019061191b565b5b5090506119449190611948565b5090565b5b80821115611961576000816000905550600101611949565b5090565b6000611978611973846122dd565b6122b8565b90508281526020810184848401111561199057600080fd5b61199b8482856124b1565b509392505050565b60006119b66119b18461230e565b6122b8565b9050828152602081018484840111156119ce57600080fd5b6119d98482856124b1565b509392505050565b6000813590506119f081612aa6565b92915050565b600081359050611a0581612abd565b92915050565b600081359050611a1a81612ad4565b92915050565b600081519050611a2f81612ad4565b92915050565b600082601f830112611a4657600080fd5b8135611a56848260208601611965565b91505092915050565b600082601f830112611a7057600080fd5b8135611a808482602086016119a3565b91505092915050565b600081359050611a9881612aeb565b92915050565b600060208284031215611ab057600080fd5b6000611abe848285016119e1565b91505092915050565b60008060408385031215611ada57600080fd5b6000611ae8858286016119e1565b9250506020611af9858286016119e1565b9150509250929050565b600080600060608486031215611b1857600080fd5b6000611b26868287016119e1565b9350506020611b37868287016119e1565b9250506040611b4886828701611a89565b9150509250925092565b60008060008060808587031215611b6857600080fd5b6000611b76878288016119e1565b9450506020611b87878288016119e1565b9350506040611b9887828801611a89565b925050606085013567ffffffffffffffff811115611bb557600080fd5b611bc187828801611a35565b91505092959194509250565b60008060408385031215611be057600080fd5b6000611bee858286016119e1565b9250506020611bff858286016119f6565b9150509250929050565b60008060408385031215611c1c57600080fd5b6000611c2a858286016119e1565b9250506020611c3b85828601611a89565b9150509250929050565b600060208284031215611c5757600080fd5b6000611c6584828501611a0b565b91505092915050565b600060208284031215611c8057600080fd5b6000611c8e84828501611a20565b91505092915050565b600060208284031215611ca957600080fd5b600082013567ffffffffffffffff811115611cc357600080fd5b611ccf84828501611a5f565b91505092915050565b600060208284031215611cea57600080fd5b6000611cf884828501611a89565b91505092915050565b611d0a8161243d565b82525050565b611d198161244f565b82525050565b6000611d2a8261233f565b611d348185612355565b9350611d448185602086016124c0565b611d4d8161268c565b840191505092915050565b6000611d638261234a565b611d6d8185612366565b9350611d7d8185602086016124c0565b611d868161268c565b840191505092915050565b6000611d9c8261234a565b611da68185612377565b9350611db68185602086016124c0565b80840191505092915050565b6000611dcf603283612366565b9150611dda8261269d565b604082019050919050565b6000611df2601c83612366565b9150611dfd826126ec565b602082019050919050565b6000611e15602483612366565b9150611e2082612715565b604082019050919050565b6000611e38601983612366565b9150611e4382612764565b602082019050919050565b6000611e5b602c83612366565b9150611e668261278d565b604082019050919050565b6000611e7e603883612366565b9150611e89826127dc565b604082019050919050565b6000611ea1601483612366565b9150611eac8261282b565b602082019050919050565b6000611ec4602a83612366565b9150611ecf82612854565b604082019050919050565b6000611ee7602983612366565b9150611ef2826128a3565b604082019050919050565b6000611f0a602083612366565b9150611f15826128f2565b602082019050919050565b6000611f2d602c83612366565b9150611f388261291b565b604082019050919050565b6000611f50602983612366565b9150611f5b8261296a565b604082019050919050565b6000611f73602f83612366565b9150611f7e826129b9565b604082019050919050565b6000611f96602183612366565b9150611fa182612a08565b604082019050919050565b6000611fb9603183612366565b9150611fc482612a57565b604082019050919050565b611fd8816124a7565b82525050565b6000611fea8284611d91565b915081905092915050565b60006120018285611d91565b915061200d8284611d91565b91508190509392505050565b600060208201905061202e6000830184611d01565b92915050565b60006080820190506120496000830187611d01565b6120566020830186611d01565b6120636040830185611fcf565b81810360608301526120758184611d1f565b905095945050505050565b60006020820190506120956000830184611d10565b92915050565b600060208201905081810360008301526120b58184611d58565b905092915050565b600060208201905081810360008301526120d681611dc2565b9050919050565b600060208201905081810360008301526120f681611de5565b9050919050565b6000602082019050818103600083015261211681611e08565b9050919050565b6000602082019050818103600083015261213681611e2b565b9050919050565b6000602082019050818103600083015261215681611e4e565b9050919050565b6000602082019050818103600083015261217681611e71565b9050919050565b6000602082019050818103600083015261219681611e94565b9050919050565b600060208201905081810360008301526121b681611eb7565b9050919050565b600060208201905081810360008301526121d681611eda565b9050919050565b600060208201905081810360008301526121f681611efd565b9050919050565b6000602082019050818103600083015261221681611f20565b9050919050565b6000602082019050818103600083015261223681611f43565b9050919050565b6000602082019050818103600083015261225681611f66565b9050919050565b6000602082019050818103600083015261227681611f89565b9050919050565b6000602082019050818103600083015261229681611fac565b9050919050565b60006020820190506122b26000830184611fcf565b92915050565b60006122c26122d3565b90506122ce8282612525565b919050565b6000604051905090565b600067ffffffffffffffff8211156122f8576122f761265d565b5b6123018261268c565b9050602081019050919050565b600067ffffffffffffffff8211156123295761232861265d565b5b6123328261268c565b9050602081019050919050565b600081519050919050565b600081519050919050565b600082825260208201905092915050565b600082825260208201905092915050565b600081905092915050565b600061238d826124a7565b9150612398836124a7565b9250827fffffffffffffffffffffffffffffffffffffffffffffffffffffffffffffffff038211156123cd576123cc6125d0565b5b828201905092915050565b60006123e3826124a7565b91506123ee836124a7565b9250826123fe576123fd6125ff565b5b828204905092915050565b6000612414826124a7565b915061241f836124a7565b925082821015612432576124316125d0565b5b828203905092915050565b600061244882612487565b9050919050565b60008115159050919050565b60007fffffffff0000000000000000000000000000000000000000000000000000000082169050919050565b600073ffffffffffffffffffffffffffffffffffffffff82169050919050565b6000819050919050565b82818337600083830152505050565b60005b838110156124de5780820151818401526020810190506124c3565b838111156124ed576000848401525b50505050565b6000600282049050600182168061250b57607f821691505b6020821081141561251f5761251e61262e565b5b50919050565b61252e8261268c565b810181811067ffffffffffffffff8211171561254d5761254c61265d565b5b80604052505050565b6000612561826124a7565b91507fffffffffffffffffffffffffffffffffffffffffffffffffffffffffffffffff821415612594576125936125d0565b5b600182019050919050565b60006125aa826124a7565b91506125b5836124a7565b9250826125c5576125c46125ff565b5b828206905092915050565b7f4e487b7100000000000000000000000000000000000000000000000000000000600052601160045260246000fd5b7f4e487b7100000000000000000000000000000000000000000000000000000000600052601260045260246000fd5b7f4e487b7100000000000000000000000000000000000000000000000000000000600052602260045260246000fd5b7f4e487b7100000000000000000000000000000000000000000000000000000000600052604160045260246000fd5b6000601f19601f8301169050919050565b7f4552433732313a207472616e7366657220746f206e6f6e20455243373231526560008201527f63656976657220696d706c656d656e7465720000000000000000000000000000602082015250565b7f4552433732313a20746f6b656e20616c7265616479206d696e74656400000000600082015250565b7f4552433732313a207472616e7366657220746f20746865207a65726f2061646460008201527f7265737300000000000000000000000000000000000000000000000000000000602082015250565b7f4552433732313a20617070726f766520746f2063616c6c657200000000000000600082015250565b7f4552433732313a206f70657261746f7220717565727920666f72206e6f6e657860008201527f697374656e7420746f6b656e0000000000000000000000000000000000000000602082015250565b7f4552433732313a20617070726f76652063616c6c6572206973206e6f74206f7760008201527f6e6572206e6f7220617070726f76656420666f7220616c6c0000000000000000602082015250565b7f696d61676520616c7265616479206d696e746564000000000000000000000000600082015250565b7f4552433732313a2062616c616e636520717565727920666f7220746865207a6560008201527f726f206164647265737300000000000000000000000000000000000000000000602082015250565b7f4552433732313a206f776e657220717565727920666f72206e6f6e657869737460008201527f656e7420746f6b656e0000000000000000000000000000000000000000000000602082015250565b7f4552433732313a206d696e7420746f20746865207a65726f2061646472657373600082015250565b7f4552433732313a20617070726f76656420717565727920666f72206e6f6e657860008201527f697374656e7420746f6b656e0000000000000000000000000000000000000000602082015250565b7f4552433732313a207472616e73666572206f6620746f6b656e2074686174206960008201527f73206e6f74206f776e0000000000000000000000000000000000000000000000602082015250565b7f4552433732314d657461646174613a2055524920717565727920666f72206e6f60008201527f6e6578697374656e7420746f6b656e0000000000000000000000000000000000602082015250565b7f4552433732313a20617070726f76616c20746f2063757272656e74206f776e6560008201527f7200000000000000000000000000000000000000000000000000000000000000602082015250565b7f4552433732313a207472616e736665722063616c6c6572206973206e6f74206f60008201527f776e6572206e6f7220617070726f766564000000000000000000000000000000602082015250565b612aaf8161243d565b8114612aba57600080fd5b50565b612ac68161244f565b8114612ad157600080fd5b50565b612add8161245b565b8114612ae857600080fd5b50565b612af4816124a7565b8114612aff57600080fd5b5056fea2646970667358221220f956e5fdbaa2fd67aa58418ac7f62db4f291794683baed4b9533b193c75b2ad264736f6c63430008040033",
  "immutableReferences": {},
  "source": "// SPDX-License-Identifier: MIT\npragma solidity 0.8.4;\n\nimport \"../client/node_modules/@openzeppelin/contracts/token/ERC721/ERC721.sol\";\n\ncontract ImageNFT is ERC721(\"Rare Platform NFT\", \"RPNFT\") {\n    uint256 public counter;\n    string[] public images;\n    mapping(string => bool) imageAlreadyMinted;\n\n    constructor() {}\n\n    function createImage(string memory _imageCID) public returns (uint256) {\n        // cannot mint the same image twice.\n        // IPFS will be used to store images returning a unique CID (image URI).\n        // Since CIDs are based on the image content, same image will always\n        // return same CID.\n        require(!imageAlreadyMinted[_imageCID], \"image already minted\");\n        uint256 newImageId = counter;\n\n        // store the image URI on the Blockchain\n        images.push(_imageCID);\n\n        // mint the image\n        _safeMint(msg.sender, newImageId);\n\n        // store the information that the image has been minted\n        imageAlreadyMinted[_imageCID] = true;\n\n        counter++;\n\n        // return the Id of the image\n        return newImageId;\n    }\n}\n",
  "sourcePath": "/Users/samuel/Documents/Projet_Job/Candidatures/RarePorn/contracts/ImageNFT.sol",
  "compiler": {
    "name": "solc",
    "version": "0.8.4+commit.c7e474f2.Emscripten.clang"
  },
  "schemaVersion": "3.3.4",
  "updatedAt": "2021-06-13T00:54:56.059Z",
  "networkType": "ethereum",
  "devdoc": {
    "kind": "dev",
    "methods": {
      "approve(address,uint256)": {
        "details": "See {IERC721-approve}."
      },
      "balanceOf(address)": {
        "details": "See {IERC721-balanceOf}."
      },
      "getApproved(uint256)": {
        "details": "See {IERC721-getApproved}."
      },
      "isApprovedForAll(address,address)": {
        "details": "See {IERC721-isApprovedForAll}."
      },
      "name()": {
        "details": "See {IERC721Metadata-name}."
      },
      "ownerOf(uint256)": {
        "details": "See {IERC721-ownerOf}."
      },
      "safeTransferFrom(address,address,uint256)": {
        "details": "See {IERC721-safeTransferFrom}."
      },
      "safeTransferFrom(address,address,uint256,bytes)": {
        "details": "See {IERC721-safeTransferFrom}."
      },
      "setApprovalForAll(address,bool)": {
        "details": "See {IERC721-setApprovalForAll}."
      },
      "supportsInterface(bytes4)": {
        "details": "See {IERC165-supportsInterface}."
      },
      "symbol()": {
        "details": "See {IERC721Metadata-symbol}."
      },
      "tokenURI(uint256)": {
        "details": "See {IERC721Metadata-tokenURI}."
      },
      "transferFrom(address,address,uint256)": {
        "details": "See {IERC721-transferFrom}."
      }
    },
    "version": 1
  },
  "userdoc": {
    "kind": "user",
    "methods": {},
    "version": 1
  }
}