{
  "contractName": "ImageNFT",
  "abi": [
    {
      "inputs": [],
      "stateMutability": "nonpayable",
      "type": "constructor"
    },
    {
      "anonymous": false,
      "inputs": [
        {
          "indexed": true,
          "internalType": "address",
          "name": "owner",
          "type": "address"
        },
        {
          "indexed": true,
          "internalType": "address",
          "name": "approved",
          "type": "address"
        },
        {
          "indexed": true,
          "internalType": "uint256",
          "name": "tokenId",
          "type": "uint256"
        }
      ],
      "name": "Approval",
      "type": "event"
    },
    {
      "anonymous": false,
      "inputs": [
        {
          "indexed": true,
          "internalType": "address",
          "name": "owner",
          "type": "address"
        },
        {
          "indexed": true,
          "internalType": "address",
          "name": "operator",
          "type": "address"
        },
        {
          "indexed": false,
          "internalType": "bool",
          "name": "approved",
          "type": "bool"
        }
      ],
      "name": "ApprovalForAll",
      "type": "event"
    },
    {
      "anonymous": false,
      "inputs": [
        {
          "indexed": true,
          "internalType": "address",
          "name": "from",
          "type": "address"
        },
        {
          "indexed": true,
          "internalType": "address",
          "name": "to",
          "type": "address"
        },
        {
          "indexed": true,
          "internalType": "uint256",
          "name": "tokenId",
          "type": "uint256"
        }
      ],
      "name": "Transfer",
      "type": "event"
    },
    {
      "inputs": [
        {
          "internalType": "address",
          "name": "to",
          "type": "address"
        },
        {
          "internalType": "uint256",
          "name": "tokenId",
          "type": "uint256"
        }
      ],
      "name": "approve",
      "outputs": [],
      "stateMutability": "nonpayable",
      "type": "function"
    },
    {
      "inputs": [
        {
          "internalType": "address",
          "name": "owner",
          "type": "address"
        }
      ],
      "name": "balanceOf",
      "outputs": [
        {
          "internalType": "uint256",
          "name": "",
          "type": "uint256"
        }
      ],
      "stateMutability": "view",
      "type": "function",
      "constant": true
    },
    {
      "inputs": [],
      "name": "counter",
      "outputs": [
        {
          "internalType": "uint256",
          "name": "",
          "type": "uint256"
        }
      ],
      "stateMutability": "view",
      "type": "function",
      "constant": true
    },
    {
      "inputs": [
        {
          "internalType": "uint256",
          "name": "tokenId",
          "type": "uint256"
        }
      ],
      "name": "getApproved",
      "outputs": [
        {
          "internalType": "address",
          "name": "",
          "type": "address"
        }
      ],
      "stateMutability": "view",
      "type": "function",
      "constant": true
    },
    {
      "inputs": [
        {
          "internalType": "uint256",
          "name": "",
          "type": "uint256"
        }
      ],
      "name": "images",
      "outputs": [
        {
          "internalType": "string",
          "name": "",
          "type": "string"
        }
      ],
      "stateMutability": "view",
      "type": "function",
      "constant": true
    },
    {
      "inputs": [
        {
          "internalType": "address",
          "name": "owner",
          "type": "address"
        },
        {
          "internalType": "address",
          "name": "operator",
          "type": "address"
        }
      ],
      "name": "isApprovedForAll",
      "outputs": [
        {
          "internalType": "bool",
          "name": "",
          "type": "bool"
        }
      ],
      "stateMutability": "view",
      "type": "function",
      "constant": true
    },
    {
      "inputs": [],
      "name": "name",
      "outputs": [
        {
          "internalType": "string",
          "name": "",
          "type": "string"
        }
      ],
      "stateMutability": "view",
      "type": "function",
      "constant": true
    },
    {
      "inputs": [
        {
          "internalType": "uint256",
          "name": "tokenId",
          "type": "uint256"
        }
      ],
      "name": "ownerOf",
      "outputs": [
        {
          "internalType": "address",
          "name": "",
          "type": "address"
        }
      ],
      "stateMutability": "view",
      "type": "function",
      "constant": true
    },
    {
      "inputs": [
        {
          "internalType": "address",
          "name": "from",
          "type": "address"
        },
        {
          "internalType": "address",
          "name": "to",
          "type": "address"
        },
        {
          "internalType": "uint256",
          "name": "tokenId",
          "type": "uint256"
        }
      ],
      "name": "safeTransferFrom",
      "outputs": [],
      "stateMutability": "nonpayable",
      "type": "function"
    },
    {
      "inputs": [
        {
          "internalType": "address",
          "name": "from",
          "type": "address"
        },
        {
          "internalType": "address",
          "name": "to",
          "type": "address"
        },
        {
          "internalType": "uint256",
          "name": "tokenId",
          "type": "uint256"
        },
        {
          "internalType": "bytes",
          "name": "_data",
          "type": "bytes"
        }
      ],
      "name": "safeTransferFrom",
      "outputs": [],
      "stateMutability": "nonpayable",
      "type": "function"
    },
    {
      "inputs": [
        {
          "internalType": "address",
          "name": "operator",
          "type": "address"
        },
        {
          "internalType": "bool",
          "name": "approved",
          "type": "bool"
        }
      ],
      "name": "setApprovalForAll",
      "outputs": [],
      "stateMutability": "nonpayable",
      "type": "function"
    },
    {
      "inputs": [
        {
          "internalType": "bytes4",
          "name": "interfaceId",
          "type": "bytes4"
        }
      ],
      "name": "supportsInterface",
      "outputs": [
        {
          "internalType": "bool",
          "name": "",
          "type": "bool"
        }
      ],
      "stateMutability": "view",
      "type": "function",
      "constant": true
    },
    {
      "inputs": [],
      "name": "symbol",
      "outputs": [
        {
          "internalType": "string",
          "name": "",
          "type": "string"
        }
      ],
      "stateMutability": "view",
      "type": "function",
      "constant": true
    },
    {
      "inputs": [
        {
          "internalType": "uint256",
          "name": "tokenId",
          "type": "uint256"
        }
      ],
      "name": "tokenURI",
      "outputs": [
        {
          "internalType": "string",
          "name": "",
          "type": "string"
        }
      ],
      "stateMutability": "view",
      "type": "function",
      "constant": true
    },
    {
      "inputs": [
        {
          "internalType": "address",
          "name": "from",
          "type": "address"
        },
        {
          "internalType": "address",
          "name": "to",
          "type": "address"
        },
        {
          "internalType": "uint256",
          "name": "tokenId",
          "type": "uint256"
        }
      ],
      "name": "transferFrom",
      "outputs": [],
      "stateMutability": "nonpayable",
      "type": "function"
    },
    {
      "inputs": [
        {
          "internalType": "string",
          "name": "_imageCID",
          "type": "string"
        }
      ],
      "name": "createImage",
      "outputs": [
        {
          "internalType": "uint256",
          "name": "",
          "type": "uint256"
        }
      ],
      "stateMutability": "nonpayable",
      "type": "function"
    },
    {
      "inputs": [
        {
          "internalType": "uint256",
          "name": "_imageCID",
          "type": "uint256"
        }
      ],
      "name": "buyImage",
      "outputs": [
        {
          "internalType": "address",
          "name": "",
          "type": "address"
        }
      ],
      "stateMutability": "payable",
      "type": "function",
      "payable": true
    }
  ],
  "bytecode": "0x60806040523480156200001157600080fd5b506040518060400160405280600f81526020017f4e4654204d61726b6574706c61636500000000000000000000000000000000008152506040518060400160405280600581526020017f52504e4654000000000000000000000000000000000000000000000000000000815250816000908051906020019062000096929190620000b8565b508060019080519060200190620000af929190620000b8565b505050620001cd565b828054620000c69062000168565b90600052602060002090601f016020900481019282620000ea576000855562000136565b82601f106200010557805160ff191683800117855562000136565b8280016001018555821562000136579182015b828111156200013557825182559160200191906001019062000118565b5b50905062000145919062000149565b5090565b5b80821115620001645760008160009055506001016200014a565b5090565b600060028204905060018216806200018157607f821691505b602082108114156200019857620001976200019e565b5b50919050565b7f4e487b7100000000000000000000000000000000000000000000000000000000600052602260045260246000fd5b612e8a80620001dd6000396000f3fe6080604052600436106100fe5760003560e01c80636352211e1161009557806395d89b411161006457806395d89b4114610372578063a22cb4651461039d578063b88d4fde146103c6578063c87b56dd146103ef578063e985e9c51461042c576100fe565b80636352211e1461027e5780636b08239b146102bb57806370a08231146102f85780638485648214610335576100fe565b8063095ea7b3116100d1578063095ea7b3146101d857806323b872dd1461020157806342842e0e1461022a57806361bc221a14610253576100fe565b806301ffc9a71461010357806303e6af2e1461014057806306fdde0314610170578063081812fc1461019b575b600080fd5b34801561010f57600080fd5b5061012a60048036038101906101259190611ebf565b610469565b6040516101379190612340565b60405180910390f35b61015a60048036038101906101559190611f52565b61054b565b60405161016791906122d9565b60405180910390f35b34801561017c57600080fd5b506101856106c7565b604051610192919061235b565b60405180910390f35b3480156101a757600080fd5b506101c260048036038101906101bd9190611f52565b610759565b6040516101cf91906122d9565b60405180910390f35b3480156101e457600080fd5b506101ff60048036038101906101fa9190611e83565b6107de565b005b34801561020d57600080fd5b5061022860048036038101906102239190611d7d565b6108f6565b005b34801561023657600080fd5b50610251600480360381019061024c9190611d7d565b610956565b005b34801561025f57600080fd5b50610268610976565b604051610275919061259d565b60405180910390f35b34801561028a57600080fd5b506102a560048036038101906102a09190611f52565b61097c565b6040516102b291906122d9565b60405180910390f35b3480156102c757600080fd5b506102e260048036038101906102dd9190611f11565b610a2e565b6040516102ef919061259d565b60405180910390f35b34801561030457600080fd5b5061031f600480360381019061031a9190611d18565b610b41565b60405161032c919061259d565b60405180910390f35b34801561034157600080fd5b5061035c60048036038101906103579190611f52565b610bf9565b604051610369919061235b565b60405180910390f35b34801561037e57600080fd5b50610387610ca5565b604051610394919061235b565b60405180910390f35b3480156103a957600080fd5b506103c460048036038101906103bf9190611e47565b610d37565b005b3480156103d257600080fd5b506103ed60048036038101906103e89190611dcc565b610eb8565b005b3480156103fb57600080fd5b5061041660048036038101906104119190611f52565b610f1a565b604051610423919061235b565b60405180910390f35b34801561043857600080fd5b50610453600480360381019061044e9190611d41565b610fc1565b6040516104609190612340565b60405180910390f35b60007f80ac58cd000000000000000000000000000000000000000000000000000000007bffffffffffffffffffffffffffffffffffffffffffffffffffffffff1916827bffffffffffffffffffffffffffffffffffffffffffffffffffffffff1916148061053457507f5b5e139f000000000000000000000000000000000000000000000000000000007bffffffffffffffffffffffffffffffffffffffffffffffffffffffff1916827bffffffffffffffffffffffffffffffffffffffffffffffffffffffff1916145b80610544575061054382611055565b5b9050919050565b6000806105578361097c565b90508073ffffffffffffffffffffffffffffffffffffffff163373ffffffffffffffffffffffffffffffffffffffff1614156105c8576040517f08c379a00000000000000000000000000000000000000000000000000000000081526004016105bf9061249d565b60405180910390fd5b600034141580156105ef57503373ffffffffffffffffffffffffffffffffffffffff163134105b61062e576040517f08c379a00000000000000000000000000000000000000000000000000000000081526004016106259061245d565b60405180910390fd5b8073ffffffffffffffffffffffffffffffffffffffff166108fc349081150290604051600060405180830381858888f19350505050158015610674573d6000803e3d6000fd5b506106b68133856040518060400160405280600f81526020017f456e6a6f792074686520696d61676500000000000000000000000000000000008152506110bf565b6106bf8361097c565b915050919050565b6060600080546106d6906127f3565b80601f0160208091040260200160405190810160405280929190818152602001828054610702906127f3565b801561074f5780601f106107245761010080835404028352916020019161074f565b820191906000526020600020905b81548152906001019060200180831161073257829003601f168201915b5050505050905090565b60006107648261111b565b6107a3576040517f08c379a000000000000000000000000000000000000000000000000000000000815260040161079a906124fd565b60405180910390fd5b6004600083815260200190815260200160002060009054906101000a900473ffffffffffffffffffffffffffffffffffffffff169050919050565b60006107e98261097c565b90508073ffffffffffffffffffffffffffffffffffffffff168373ffffffffffffffffffffffffffffffffffffffff16141561085a576040517f08c379a00000000000000000000000000000000000000000000000000000000081526004016108519061255d565b60405180910390fd5b8073ffffffffffffffffffffffffffffffffffffffff16610879611187565b73ffffffffffffffffffffffffffffffffffffffff1614806108a857506108a7816108a2611187565b610fc1565b5b6108e7576040517f08c379a00000000000000000000000000000000000000000000000000000000081526004016108de9061241d565b60405180910390fd5b6108f1838361118f565b505050565b610907610901611187565b82611248565b610946576040517f08c379a000000000000000000000000000000000000000000000000000000000815260040161093d9061257d565b60405180910390fd5b610951838383611326565b505050565b61097183838360405180602001604052806000815250610eb8565b505050565b60065481565b6000806002600084815260200190815260200160002060009054906101000a900473ffffffffffffffffffffffffffffffffffffffff169050600073ffffffffffffffffffffffffffffffffffffffff168173ffffffffffffffffffffffffffffffffffffffff161415610a25576040517f08c379a0000000000000000000000000000000000000000000000000000000008152600401610a1c906124bd565b60405180910390fd5b80915050919050565b6000600882604051610a40919061229e565b908152602001604051809103902060009054906101000a900460ff1615610a9c576040517f08c379a0000000000000000000000000000000000000000000000000000000008152600401610a939061243d565b60405180910390fd5b60006006549050600783908060018154018082558091505060019003906000526020600020016000909190919091509080519060200190610ade929190611b3c565b50610ae93382611582565b6001600884604051610afb919061229e565b908152602001604051809103902060006101000a81548160ff02191690831515021790555060066000815480929190610b3390612856565b919050555080915050919050565b60008073ffffffffffffffffffffffffffffffffffffffff168273ffffffffffffffffffffffffffffffffffffffff161415610bb2576040517f08c379a0000000000000000000000000000000000000000000000000000000008152600401610ba99061247d565b60405180910390fd5b600360008373ffffffffffffffffffffffffffffffffffffffff1673ffffffffffffffffffffffffffffffffffffffff168152602001908152602001600020549050919050565b60078181548110610c0957600080fd5b906000526020600020016000915090508054610c24906127f3565b80601f0160208091040260200160405190810160405280929190818152602001828054610c50906127f3565b8015610c9d5780601f10610c7257610100808354040283529160200191610c9d565b820191906000526020600020905b815481529060010190602001808311610c8057829003601f168201915b505050505081565b606060018054610cb4906127f3565b80601f0160208091040260200160405190810160405280929190818152602001828054610ce0906127f3565b8015610d2d5780601f10610d0257610100808354040283529160200191610d2d565b820191906000526020600020905b815481529060010190602001808311610d1057829003601f168201915b5050505050905090565b610d3f611187565b73ffffffffffffffffffffffffffffffffffffffff168273ffffffffffffffffffffffffffffffffffffffff161415610dad576040517f08c379a0000000000000000000000000000000000000000000000000000000008152600401610da4906123dd565b60405180910390fd5b8060056000610dba611187565b73ffffffffffffffffffffffffffffffffffffffff1673ffffffffffffffffffffffffffffffffffffffff16815260200190815260200160002060008473ffffffffffffffffffffffffffffffffffffffff1673ffffffffffffffffffffffffffffffffffffffff16815260200190815260200160002060006101000a81548160ff0219169083151502179055508173ffffffffffffffffffffffffffffffffffffffff16610e67611187565b73ffffffffffffffffffffffffffffffffffffffff167f17307eab39ab6107e8899845ad3d59bd9653f200f220920489ca2b5937696c3183604051610eac9190612340565b60405180910390a35050565b610ec9610ec3611187565b83611248565b610f08576040517f08c379a0000000000000000000000000000000000000000000000000000000008152600401610eff9061257d565b60405180910390fd5b610f14848484846110bf565b50505050565b6060610f258261111b565b610f64576040517f08c379a0000000000000000000000000000000000000000000000000000000008152600401610f5b9061253d565b60405180910390fd5b6000610f6e6115a0565b90506000815111610f8e5760405180602001604052806000815250610fb9565b80610f98846115b7565b604051602001610fa99291906122b5565b6040516020818303038152906040525b915050919050565b6000600560008473ffffffffffffffffffffffffffffffffffffffff1673ffffffffffffffffffffffffffffffffffffffff16815260200190815260200160002060008373ffffffffffffffffffffffffffffffffffffffff1673ffffffffffffffffffffffffffffffffffffffff16815260200190815260200160002060009054906101000a900460ff16905092915050565b60007f01ffc9a7000000000000000000000000000000000000000000000000000000007bffffffffffffffffffffffffffffffffffffffffffffffffffffffff1916827bffffffffffffffffffffffffffffffffffffffffffffffffffffffff1916149050919050565b6110ca848484611326565b6110d684848484611764565b611115576040517f08c379a000000000000000000000000000000000000000000000000000000000815260040161110c9061237d565b60405180910390fd5b50505050565b60008073ffffffffffffffffffffffffffffffffffffffff166002600084815260200190815260200160002060009054906101000a900473ffffffffffffffffffffffffffffffffffffffff1673ffffffffffffffffffffffffffffffffffffffff1614159050919050565b600033905090565b816004600083815260200190815260200160002060006101000a81548173ffffffffffffffffffffffffffffffffffffffff021916908373ffffffffffffffffffffffffffffffffffffffff160217905550808273ffffffffffffffffffffffffffffffffffffffff166112028361097c565b73ffffffffffffffffffffffffffffffffffffffff167f8c5be1e5ebec7d5bd14f71427d1e84f3dd0314c0f7b2291e5b200ac8c7c3b92560405160405180910390a45050565b60006112538261111b565b611292576040517f08c379a0000000000000000000000000000000000000000000000000000000008152600401611289906123fd565b60405180910390fd5b600061129d8361097c565b90508073ffffffffffffffffffffffffffffffffffffffff168473ffffffffffffffffffffffffffffffffffffffff16148061130c57508373ffffffffffffffffffffffffffffffffffffffff166112f484610759565b73ffffffffffffffffffffffffffffffffffffffff16145b8061131d575061131c8185610fc1565b5b91505092915050565b8273ffffffffffffffffffffffffffffffffffffffff166113468261097c565b73ffffffffffffffffffffffffffffffffffffffff161461139c576040517f08c379a00000000000000000000000000000000000000000000000000000000081526004016113939061251d565b60405180910390fd5b600073ffffffffffffffffffffffffffffffffffffffff168273ffffffffffffffffffffffffffffffffffffffff16141561140c576040517f08c379a0000000000000000000000000000000000000000000000000000000008152600401611403906123bd565b60405180910390fd5b6114178383836118fb565b61142260008261118f565b6001600360008573ffffffffffffffffffffffffffffffffffffffff1673ffffffffffffffffffffffffffffffffffffffff16815260200190815260200160002060008282546114729190612709565b925050819055506001600360008473ffffffffffffffffffffffffffffffffffffffff1673ffffffffffffffffffffffffffffffffffffffff16815260200190815260200160002060008282546114c99190612682565b92505081905550816002600083815260200190815260200160002060006101000a81548173ffffffffffffffffffffffffffffffffffffffff021916908373ffffffffffffffffffffffffffffffffffffffff160217905550808273ffffffffffffffffffffffffffffffffffffffff168473ffffffffffffffffffffffffffffffffffffffff167fddf252ad1be2c89b69c2b068fc378daa952ba7f163c4a11628f55a4df523b3ef60405160405180910390a4505050565b61159c828260405180602001604052806000815250611900565b5050565b606060405180602001604052806000815250905090565b606060008214156115ff576040518060400160405280600181526020017f3000000000000000000000000000000000000000000000000000000000000000815250905061175f565b600082905060005b6000821461163157808061161a90612856565b915050600a8261162a91906126d8565b9150611607565b60008167ffffffffffffffff811115611673577f4e487b7100000000000000000000000000000000000000000000000000000000600052604160045260246000fd5b6040519080825280601f01601f1916602001820160405280156116a55781602001600182028036833780820191505090505b5090505b60008514611758576001826116be9190612709565b9150600a856116cd919061289f565b60306116d99190612682565b60f81b818381518110611715577f4e487b7100000000000000000000000000000000000000000000000000000000600052603260045260246000fd5b60200101907effffffffffffffffffffffffffffffffffffffffffffffffffffffffffffff1916908160001a905350600a8561175191906126d8565b94506116a9565b8093505050505b919050565b60006117858473ffffffffffffffffffffffffffffffffffffffff1661195b565b156118ee578373ffffffffffffffffffffffffffffffffffffffff1663150b7a026117ae611187565b8786866040518563ffffffff1660e01b81526004016117d094939291906122f4565b602060405180830381600087803b1580156117ea57600080fd5b505af192505050801561181b57506040513d601f19601f820116820180604052508101906118189190611ee8565b60015b61189e573d806000811461184b576040519150601f19603f3d011682016040523d82523d6000602084013e611850565b606091505b50600081511415611896576040517f08c379a000000000000000000000000000000000000000000000000000000000815260040161188d9061237d565b60405180910390fd5b805181602001fd5b63150b7a0260e01b7bffffffffffffffffffffffffffffffffffffffffffffffffffffffff1916817bffffffffffffffffffffffffffffffffffffffffffffffffffffffff1916149150506118f3565b600190505b949350505050565b505050565b61190a838361196e565b6119176000848484611764565b611956576040517f08c379a000000000000000000000000000000000000000000000000000000000815260040161194d9061237d565b60405180910390fd5b505050565b600080823b905060008111915050919050565b600073ffffffffffffffffffffffffffffffffffffffff168273ffffffffffffffffffffffffffffffffffffffff1614156119de576040517f08c379a00000000000000000000000000000000000000000000000000000000081526004016119d5906124dd565b60405180910390fd5b6119e78161111b565b15611a27576040517f08c379a0000000000000000000000000000000000000000000000000000000008152600401611a1e9061239d565b60405180910390fd5b611a33600083836118fb565b6001600360008473ffffffffffffffffffffffffffffffffffffffff1673ffffffffffffffffffffffffffffffffffffffff1681526020019081526020016000206000828254611a839190612682565b92505081905550816002600083815260200190815260200160002060006101000a81548173ffffffffffffffffffffffffffffffffffffffff021916908373ffffffffffffffffffffffffffffffffffffffff160217905550808273ffffffffffffffffffffffffffffffffffffffff16600073ffffffffffffffffffffffffffffffffffffffff167fddf252ad1be2c89b69c2b068fc378daa952ba7f163c4a11628f55a4df523b3ef60405160405180910390a45050565b828054611b48906127f3565b90600052602060002090601f016020900481019282611b6a5760008555611bb1565b82601f10611b8357805160ff1916838001178555611bb1565b82800160010185558215611bb1579182015b82811115611bb0578251825591602001919060010190611b95565b5b509050611bbe9190611bc2565b5090565b5b80821115611bdb576000816000905550600101611bc3565b5090565b6000611bf2611bed846125dd565b6125b8565b905082815260208101848484011115611c0a57600080fd5b611c158482856127b1565b509392505050565b6000611c30611c2b8461260e565b6125b8565b905082815260208101848484011115611c4857600080fd5b611c538482856127b1565b509392505050565b600081359050611c6a81612df8565b92915050565b600081359050611c7f81612e0f565b92915050565b600081359050611c9481612e26565b92915050565b600081519050611ca981612e26565b92915050565b600082601f830112611cc057600080fd5b8135611cd0848260208601611bdf565b91505092915050565b600082601f830112611cea57600080fd5b8135611cfa848260208601611c1d565b91505092915050565b600081359050611d1281612e3d565b92915050565b600060208284031215611d2a57600080fd5b6000611d3884828501611c5b565b91505092915050565b60008060408385031215611d5457600080fd5b6000611d6285828601611c5b565b9250506020611d7385828601611c5b565b9150509250929050565b600080600060608486031215611d9257600080fd5b6000611da086828701611c5b565b9350506020611db186828701611c5b565b9250506040611dc286828701611d03565b9150509250925092565b60008060008060808587031215611de257600080fd5b6000611df087828801611c5b565b9450506020611e0187828801611c5b565b9350506040611e1287828801611d03565b925050606085013567ffffffffffffffff811115611e2f57600080fd5b611e3b87828801611caf565b91505092959194509250565b60008060408385031215611e5a57600080fd5b6000611e6885828601611c5b565b9250506020611e7985828601611c70565b9150509250929050565b60008060408385031215611e9657600080fd5b6000611ea485828601611c5b565b9250506020611eb585828601611d03565b9150509250929050565b600060208284031215611ed157600080fd5b6000611edf84828501611c85565b91505092915050565b600060208284031215611efa57600080fd5b6000611f0884828501611c9a565b91505092915050565b600060208284031215611f2357600080fd5b600082013567ffffffffffffffff811115611f3d57600080fd5b611f4984828501611cd9565b91505092915050565b600060208284031215611f6457600080fd5b6000611f7284828501611d03565b91505092915050565b611f848161273d565b82525050565b611f938161274f565b82525050565b6000611fa48261263f565b611fae8185612655565b9350611fbe8185602086016127c0565b611fc78161298c565b840191505092915050565b6000611fdd8261264a565b611fe78185612666565b9350611ff78185602086016127c0565b6120008161298c565b840191505092915050565b60006120168261264a565b6120208185612677565b93506120308185602086016127c0565b80840191505092915050565b6000612049603283612666565b91506120548261299d565b604082019050919050565b600061206c601c83612666565b9150612077826129ec565b602082019050919050565b600061208f602483612666565b915061209a82612a15565b604082019050919050565b60006120b2601983612666565b91506120bd82612a64565b602082019050919050565b60006120d5602c83612666565b91506120e082612a8d565b604082019050919050565b60006120f8603883612666565b915061210382612adc565b604082019050919050565b600061211b601483612666565b915061212682612b2b565b602082019050919050565b600061213e601883612666565b915061214982612b54565b602082019050919050565b6000612161602a83612666565b915061216c82612b7d565b604082019050919050565b6000612184601a83612666565b915061218f82612bcc565b602082019050919050565b60006121a7602983612666565b91506121b282612bf5565b604082019050919050565b60006121ca602083612666565b91506121d582612c44565b602082019050919050565b60006121ed602c83612666565b91506121f882612c6d565b604082019050919050565b6000612210602983612666565b915061221b82612cbc565b604082019050919050565b6000612233602f83612666565b915061223e82612d0b565b604082019050919050565b6000612256602183612666565b915061226182612d5a565b604082019050919050565b6000612279603183612666565b915061228482612da9565b604082019050919050565b612298816127a7565b82525050565b60006122aa828461200b565b915081905092915050565b60006122c1828561200b565b91506122cd828461200b565b91508190509392505050565b60006020820190506122ee6000830184611f7b565b92915050565b60006080820190506123096000830187611f7b565b6123166020830186611f7b565b612323604083018561228f565b81810360608301526123358184611f99565b905095945050505050565b60006020820190506123556000830184611f8a565b92915050565b600060208201905081810360008301526123758184611fd2565b905092915050565b600060208201905081810360008301526123968161203c565b9050919050565b600060208201905081810360008301526123b68161205f565b9050919050565b600060208201905081810360008301526123d681612082565b9050919050565b600060208201905081810360008301526123f6816120a5565b9050919050565b60006020820190508181036000830152612416816120c8565b9050919050565b60006020820190508181036000830152612436816120eb565b9050919050565b600060208201905081810360008301526124568161210e565b9050919050565b6000602082019050818103600083015261247681612131565b9050919050565b6000602082019050818103600083015261249681612154565b9050919050565b600060208201905081810360008301526124b681612177565b9050919050565b600060208201905081810360008301526124d68161219a565b9050919050565b600060208201905081810360008301526124f6816121bd565b9050919050565b60006020820190508181036000830152612516816121e0565b9050919050565b6000602082019050818103600083015261253681612203565b9050919050565b6000602082019050818103600083015261255681612226565b9050919050565b6000602082019050818103600083015261257681612249565b9050919050565b600060208201905081810360008301526125968161226c565b9050919050565b60006020820190506125b2600083018461228f565b92915050565b60006125c26125d3565b90506125ce8282612825565b919050565b6000604051905090565b600067ffffffffffffffff8211156125f8576125f761295d565b5b6126018261298c565b9050602081019050919050565b600067ffffffffffffffff8211156126295761262861295d565b5b6126328261298c565b9050602081019050919050565b600081519050919050565b600081519050919050565b600082825260208201905092915050565b600082825260208201905092915050565b600081905092915050565b600061268d826127a7565b9150612698836127a7565b9250827fffffffffffffffffffffffffffffffffffffffffffffffffffffffffffffffff038211156126cd576126cc6128d0565b5b828201905092915050565b60006126e3826127a7565b91506126ee836127a7565b9250826126fe576126fd6128ff565b5b828204905092915050565b6000612714826127a7565b915061271f836127a7565b925082821015612732576127316128d0565b5b828203905092915050565b600061274882612787565b9050919050565b60008115159050919050565b60007fffffffff0000000000000000000000000000000000000000000000000000000082169050919050565b600073ffffffffffffffffffffffffffffffffffffffff82169050919050565b6000819050919050565b82818337600083830152505050565b60005b838110156127de5780820151818401526020810190506127c3565b838111156127ed576000848401525b50505050565b6000600282049050600182168061280b57607f821691505b6020821081141561281f5761281e61292e565b5b50919050565b61282e8261298c565b810181811067ffffffffffffffff8211171561284d5761284c61295d565b5b80604052505050565b6000612861826127a7565b91507fffffffffffffffffffffffffffffffffffffffffffffffffffffffffffffffff821415612894576128936128d0565b5b600182019050919050565b60006128aa826127a7565b91506128b5836127a7565b9250826128c5576128c46128ff565b5b828206905092915050565b7f4e487b7100000000000000000000000000000000000000000000000000000000600052601160045260246000fd5b7f4e487b7100000000000000000000000000000000000000000000000000000000600052601260045260246000fd5b7f4e487b7100000000000000000000000000000000000000000000000000000000600052602260045260246000fd5b7f4e487b7100000000000000000000000000000000000000000000000000000000600052604160045260246000fd5b6000601f19601f8301169050919050565b7f4552433732313a207472616e7366657220746f206e6f6e20455243373231526560008201527f63656976657220696d706c656d656e7465720000000000000000000000000000602082015250565b7f4552433732313a20746f6b656e20616c7265616479206d696e74656400000000600082015250565b7f4552433732313a207472616e7366657220746f20746865207a65726f2061646460008201527f7265737300000000000000000000000000000000000000000000000000000000602082015250565b7f4552433732313a20617070726f766520746f2063616c6c657200000000000000600082015250565b7f4552433732313a206f70657261746f7220717565727920666f72206e6f6e657860008201527f697374656e7420746f6b656e0000000000000000000000000000000000000000602082015250565b7f4552433732313a20617070726f76652063616c6c6572206973206e6f74206f7760008201527f6e6572206e6f7220617070726f76656420666f7220616c6c0000000000000000602082015250565b7f696d61676520616c7265616479206d696e746564000000000000000000000000600082015250565b7f496d6167654e46543a206e6f7420656e6f756768206574680000000000000000600082015250565b7f4552433732313a2062616c616e636520717565727920666f7220746865207a6560008201527f726f206164647265737300000000000000000000000000000000000000000000602082015250565b7f496d6167654e46543a2062757920627920746865206f776e6572000000000000600082015250565b7f4552433732313a206f776e657220717565727920666f72206e6f6e657869737460008201527f656e7420746f6b656e0000000000000000000000000000000000000000000000602082015250565b7f4552433732313a206d696e7420746f20746865207a65726f2061646472657373600082015250565b7f4552433732313a20617070726f76656420717565727920666f72206e6f6e657860008201527f697374656e7420746f6b656e0000000000000000000000000000000000000000602082015250565b7f4552433732313a207472616e73666572206f6620746f6b656e2074686174206960008201527f73206e6f74206f776e0000000000000000000000000000000000000000000000602082015250565b7f4552433732314d657461646174613a2055524920717565727920666f72206e6f60008201527f6e6578697374656e7420746f6b656e0000000000000000000000000000000000602082015250565b7f4552433732313a20617070726f76616c20746f2063757272656e74206f776e6560008201527f7200000000000000000000000000000000000000000000000000000000000000602082015250565b7f4552433732313a207472616e736665722063616c6c6572206973206e6f74206f60008201527f776e6572206e6f7220617070726f766564000000000000000000000000000000602082015250565b612e018161273d565b8114612e0c57600080fd5b50565b612e188161274f565b8114612e2357600080fd5b50565b612e2f8161275b565b8114612e3a57600080fd5b50565b612e46816127a7565b8114612e5157600080fd5b5056fea2646970667358221220ae18474e8ca172e95cad5565d184735df3b3b1cfdc4179e01c0962301b5a8c7164736f6c63430008040033",
  "immutableReferences": {},
  "source": "// SPDX-License-Identifier: MIT\npragma solidity 0.8.4;\n\nimport \"../client/node_modules/@openzeppelin/contracts/token/ERC721/ERC721.sol\";\n\ncontract ImageNFT is ERC721(\"NFT Marketplace\", \"RPNFT\") {\n    uint256 public counter;\n    string[] public images;\n    mapping(string => bool) imageAlreadyMinted;\n\n    constructor() {}\n\n    function createImage(string memory _imageCID) public returns (uint256) {\n        // cannot mint the same image twice.\n        // IPFS will be used to store images returning a unique CID (image URI).\n        // Since CIDs are based on the image content, same image will always\n        // return same CID.\n        require(!imageAlreadyMinted[_imageCID], \"image already minted\");\n        uint256 newImageId = counter;\n\n        // store the image URI on the Blockchain\n        images.push(_imageCID);\n\n        // mint the image\n        _safeMint(msg.sender, newImageId);\n\n        // store the information that the image has been minted\n        imageAlreadyMinted[_imageCID] = true;\n\n        counter++;\n\n        // return the Id of the image\n        return newImageId;\n    }\n\n    function buyImage(uint256 _imageCID) public payable returns (address) {\n        // ERC721 contract defines requires needed\n        // Double checking would not be optimal since it cost gas\n\n        // get the owner of the image\n        address owner = ownerOf(_imageCID);\n        require(msg.sender != owner, \"ImageNFT: buy by the owner\");\n\n        // cash out ETH\n        require(\n            msg.value != 0 && msg.value < msg.sender.balance,\n            \"ImageNFT: not enough eth\"\n        );\n        payable(owner).transfer(msg.value);\n\n        // transfer the token CID from the owner to the buyer\n        _safeTransfer(owner, msg.sender, _imageCID, \"Enjoy the image\");\n\n        // creturn the address of the new image's owner\n        return ownerOf(_imageCID);\n    }\n}\n",
  "sourcePath": "/Users/samuel/Documents/Projet_Job/Candidatures/RarePorn/contracts/ImageNFT.sol",
  "compiler": {
    "name": "solc",
    "version": "0.8.4+commit.c7e474f2.Emscripten.clang"
  },
  "schemaVersion": "3.3.4",
  "updatedAt": "2021-06-13T08:29:31.653Z",
  "networkType": "ethereum",
  "devdoc": {
    "kind": "dev",
    "methods": {
      "approve(address,uint256)": {
        "details": "See {IERC721-approve}."
      },
      "balanceOf(address)": {
        "details": "See {IERC721-balanceOf}."
      },
      "getApproved(uint256)": {
        "details": "See {IERC721-getApproved}."
      },
      "isApprovedForAll(address,address)": {
        "details": "See {IERC721-isApprovedForAll}."
      },
      "name()": {
        "details": "See {IERC721Metadata-name}."
      },
      "ownerOf(uint256)": {
        "details": "See {IERC721-ownerOf}."
      },
      "safeTransferFrom(address,address,uint256)": {
        "details": "See {IERC721-safeTransferFrom}."
      },
      "safeTransferFrom(address,address,uint256,bytes)": {
        "details": "See {IERC721-safeTransferFrom}."
      },
      "setApprovalForAll(address,bool)": {
        "details": "See {IERC721-setApprovalForAll}."
      },
      "supportsInterface(bytes4)": {
        "details": "See {IERC165-supportsInterface}."
      },
      "symbol()": {
        "details": "See {IERC721Metadata-symbol}."
      },
      "tokenURI(uint256)": {
        "details": "See {IERC721Metadata-tokenURI}."
      },
      "transferFrom(address,address,uint256)": {
        "details": "See {IERC721-transferFrom}."
      }
    },
    "version": 1
  },
  "userdoc": {
    "kind": "user",
    "methods": {},
    "version": 1
  }
}