{
  "contractName": "ImageNFT",
  "abi": [
    {
      "inputs": [],
      "stateMutability": "nonpayable",
      "type": "constructor"
    },
    {
      "anonymous": false,
      "inputs": [
        {
          "indexed": true,
          "internalType": "address",
          "name": "owner",
          "type": "address"
        },
        {
          "indexed": true,
          "internalType": "address",
          "name": "approved",
          "type": "address"
        },
        {
          "indexed": true,
          "internalType": "uint256",
          "name": "tokenId",
          "type": "uint256"
        }
      ],
      "name": "Approval",
      "type": "event"
    },
    {
      "anonymous": false,
      "inputs": [
        {
          "indexed": true,
          "internalType": "address",
          "name": "owner",
          "type": "address"
        },
        {
          "indexed": true,
          "internalType": "address",
          "name": "operator",
          "type": "address"
        },
        {
          "indexed": false,
          "internalType": "bool",
          "name": "approved",
          "type": "bool"
        }
      ],
      "name": "ApprovalForAll",
      "type": "event"
    },
    {
      "anonymous": false,
      "inputs": [
        {
          "indexed": true,
          "internalType": "address",
          "name": "from",
          "type": "address"
        },
        {
          "indexed": true,
          "internalType": "address",
          "name": "to",
          "type": "address"
        },
        {
          "indexed": true,
          "internalType": "uint256",
          "name": "tokenId",
          "type": "uint256"
        }
      ],
      "name": "Transfer",
      "type": "event"
    },
    {
      "inputs": [
        {
          "internalType": "address",
          "name": "to",
          "type": "address"
        },
        {
          "internalType": "uint256",
          "name": "tokenId",
          "type": "uint256"
        }
      ],
      "name": "approve",
      "outputs": [],
      "stateMutability": "nonpayable",
      "type": "function"
    },
    {
      "inputs": [],
      "name": "auctionState",
      "outputs": [
        {
          "internalType": "enum ImageNFT.State",
          "name": "",
          "type": "uint8"
        }
      ],
      "stateMutability": "view",
      "type": "function",
      "constant": true
    },
    {
      "inputs": [
        {
          "internalType": "address",
          "name": "owner",
          "type": "address"
        }
      ],
      "name": "balanceOf",
      "outputs": [
        {
          "internalType": "uint256",
          "name": "",
          "type": "uint256"
        }
      ],
      "stateMutability": "view",
      "type": "function",
      "constant": true
    },
    {
      "inputs": [
        {
          "internalType": "address",
          "name": "",
          "type": "address"
        }
      ],
      "name": "bids",
      "outputs": [
        {
          "internalType": "uint256",
          "name": "",
          "type": "uint256"
        }
      ],
      "stateMutability": "view",
      "type": "function",
      "constant": true
    },
    {
      "inputs": [],
      "name": "counter",
      "outputs": [
        {
          "internalType": "uint256",
          "name": "",
          "type": "uint256"
        }
      ],
      "stateMutability": "view",
      "type": "function",
      "constant": true
    },
    {
      "inputs": [
        {
          "internalType": "uint256",
          "name": "tokenId",
          "type": "uint256"
        }
      ],
      "name": "getApproved",
      "outputs": [
        {
          "internalType": "address",
          "name": "",
          "type": "address"
        }
      ],
      "stateMutability": "view",
      "type": "function",
      "constant": true
    },
    {
      "inputs": [],
      "name": "highestBidder",
      "outputs": [
        {
          "internalType": "address payable",
          "name": "",
          "type": "address"
        }
      ],
      "stateMutability": "view",
      "type": "function",
      "constant": true
    },
    {
      "inputs": [],
      "name": "highestBindingBid",
      "outputs": [
        {
          "internalType": "uint256",
          "name": "",
          "type": "uint256"
        }
      ],
      "stateMutability": "view",
      "type": "function",
      "constant": true
    },
    {
      "inputs": [
        {
          "internalType": "string",
          "name": "",
          "type": "string"
        }
      ],
      "name": "imageIDs",
      "outputs": [
        {
          "internalType": "uint256",
          "name": "",
          "type": "uint256"
        }
      ],
      "stateMutability": "view",
      "type": "function",
      "constant": true
    },
    {
      "inputs": [
        {
          "internalType": "uint256",
          "name": "",
          "type": "uint256"
        }
      ],
      "name": "images",
      "outputs": [
        {
          "internalType": "string",
          "name": "",
          "type": "string"
        }
      ],
      "stateMutability": "view",
      "type": "function",
      "constant": true
    },
    {
      "inputs": [],
      "name": "ipfsHash",
      "outputs": [
        {
          "internalType": "uint256",
          "name": "",
          "type": "uint256"
        }
      ],
      "stateMutability": "view",
      "type": "function",
      "constant": true
    },
    {
      "inputs": [
        {
          "internalType": "address",
          "name": "owner",
          "type": "address"
        },
        {
          "internalType": "address",
          "name": "operator",
          "type": "address"
        }
      ],
      "name": "isApprovedForAll",
      "outputs": [
        {
          "internalType": "bool",
          "name": "",
          "type": "bool"
        }
      ],
      "stateMutability": "view",
      "type": "function",
      "constant": true
    },
    {
      "inputs": [],
      "name": "name",
      "outputs": [
        {
          "internalType": "string",
          "name": "",
          "type": "string"
        }
      ],
      "stateMutability": "view",
      "type": "function",
      "constant": true
    },
    {
      "inputs": [],
      "name": "owner",
      "outputs": [
        {
          "internalType": "address payable",
          "name": "",
          "type": "address"
        }
      ],
      "stateMutability": "view",
      "type": "function",
      "constant": true
    },
    {
      "inputs": [
        {
          "internalType": "uint256",
          "name": "tokenId",
          "type": "uint256"
        }
      ],
      "name": "ownerOf",
      "outputs": [
        {
          "internalType": "address",
          "name": "",
          "type": "address"
        }
      ],
      "stateMutability": "view",
      "type": "function",
      "constant": true
    },
    {
      "inputs": [
        {
          "internalType": "address",
          "name": "from",
          "type": "address"
        },
        {
          "internalType": "address",
          "name": "to",
          "type": "address"
        },
        {
          "internalType": "uint256",
          "name": "tokenId",
          "type": "uint256"
        }
      ],
      "name": "safeTransferFrom",
      "outputs": [],
      "stateMutability": "nonpayable",
      "type": "function"
    },
    {
      "inputs": [
        {
          "internalType": "address",
          "name": "from",
          "type": "address"
        },
        {
          "internalType": "address",
          "name": "to",
          "type": "address"
        },
        {
          "internalType": "uint256",
          "name": "tokenId",
          "type": "uint256"
        },
        {
          "internalType": "bytes",
          "name": "_data",
          "type": "bytes"
        }
      ],
      "name": "safeTransferFrom",
      "outputs": [],
      "stateMutability": "nonpayable",
      "type": "function"
    },
    {
      "inputs": [
        {
          "internalType": "address",
          "name": "operator",
          "type": "address"
        },
        {
          "internalType": "bool",
          "name": "approved",
          "type": "bool"
        }
      ],
      "name": "setApprovalForAll",
      "outputs": [],
      "stateMutability": "nonpayable",
      "type": "function"
    },
    {
      "inputs": [
        {
          "internalType": "bytes4",
          "name": "interfaceId",
          "type": "bytes4"
        }
      ],
      "name": "supportsInterface",
      "outputs": [
        {
          "internalType": "bool",
          "name": "",
          "type": "bool"
        }
      ],
      "stateMutability": "view",
      "type": "function",
      "constant": true
    },
    {
      "inputs": [],
      "name": "symbol",
      "outputs": [
        {
          "internalType": "string",
          "name": "",
          "type": "string"
        }
      ],
      "stateMutability": "view",
      "type": "function",
      "constant": true
    },
    {
      "inputs": [
        {
          "internalType": "uint256",
          "name": "tokenId",
          "type": "uint256"
        }
      ],
      "name": "tokenURI",
      "outputs": [
        {
          "internalType": "string",
          "name": "",
          "type": "string"
        }
      ],
      "stateMutability": "view",
      "type": "function",
      "constant": true
    },
    {
      "inputs": [
        {
          "internalType": "address",
          "name": "from",
          "type": "address"
        },
        {
          "internalType": "address",
          "name": "to",
          "type": "address"
        },
        {
          "internalType": "uint256",
          "name": "tokenId",
          "type": "uint256"
        }
      ],
      "name": "transferFrom",
      "outputs": [],
      "stateMutability": "nonpayable",
      "type": "function"
    },
    {
      "inputs": [
        {
          "internalType": "string",
          "name": "_imageCID",
          "type": "string"
        }
      ],
      "name": "createImage",
      "outputs": [],
      "stateMutability": "nonpayable",
      "type": "function"
    },
    {
      "inputs": [
        {
          "internalType": "uint256",
          "name": "_imageID",
          "type": "uint256"
        }
      ],
      "name": "buyImage",
      "outputs": [
        {
          "internalType": "bool",
          "name": "",
          "type": "bool"
        }
      ],
      "stateMutability": "payable",
      "type": "function",
      "payable": true
    },
    {
      "inputs": [],
      "name": "placeBid",
      "outputs": [],
      "stateMutability": "payable",
      "type": "function",
      "payable": true
    },
    {
      "inputs": [],
      "name": "endAuction",
      "outputs": [],
      "stateMutability": "nonpayable",
      "type": "function"
    },
    {
      "inputs": [
        {
          "internalType": "uint256",
          "name": "_imageID",
          "type": "uint256"
        }
      ],
      "name": "finalizeAuction",
      "outputs": [],
      "stateMutability": "nonpayable",
      "type": "function"
    }
  ],
  "bytecode": "0x60806040523480156200001157600080fd5b506040518060400160405280600f81526020017f4e4654204d61726b6574706c61636500000000000000000000000000000000008152506040518060400160405280600581526020017f52504e465400000000000000000000000000000000000000000000000000000081525081600090805190602001906200009692919062000120565b508060019080519060200190620000af92919062000120565b505050662386f26fc100006009819055506000600a819055506000600c60146101000a81548160ff0219169083600181111562000115577f4e487b7100000000000000000000000000000000000000000000000000000000600052602160045260246000fd5b021790555062000235565b8280546200012e90620001d0565b90600052602060002090601f0160209004810192826200015257600085556200019e565b82601f106200016d57805160ff19168380011785556200019e565b828001600101855582156200019e579182015b828111156200019d57825182559160200191906001019062000180565b5b509050620001ad9190620001b1565b5090565b5b80821115620001cc576000816000905550600101620001b2565b5090565b60006002820490506001821680620001e957607f821691505b602082108114156200020057620001ff62000206565b5b50919050565b7f4e487b7100000000000000000000000000000000000000000000000000000000600052602260045260246000fd5b613d4a80620002456000396000f3fe60806040526004361061019c5760003560e01c806384856482116100ec578063c87b56dd1161008a578063ecfc7ecc11610064578063ecfc7ecc14610605578063f5b56c561461060f578063fad862b41461063a578063fe67a54b146106775761019c565b8063c87b56dd14610562578063e80838631461059f578063e985e9c5146105c85761019c565b806395d89b41116100c657806395d89b41146104ba578063a22cb465146104e5578063b88d4fde1461050e578063c623674f146105375761019c565b806384856482146104275780638da5cb5b1461046457806391f901571461048f5761019c565b806342842e0e116101595780636352211e116101335780636352211e146103595780636b08239b1461039657806370a08231146103bf5780637fb45099146103fc5761019c565b806342842e0e146102c857806361bc221a146102f157806362ea82db1461031c5761019c565b806301ffc9a7146101a157806303e6af2e146101de57806306fdde031461020e578063081812fc14610239578063095ea7b31461027657806323b872dd1461029f575b600080fd5b3480156101ad57600080fd5b506101c860048036038101906101c39190612b01565b61068e565b6040516101d59190613047565b60405180910390f35b6101f860048036038101906101f39190612b94565b610770565b6040516102059190613047565b60405180910390f35b34801561021a57600080fd5b5061022361092f565b604051610230919061307d565b60405180910390f35b34801561024557600080fd5b50610260600480360381019061025b9190612b94565b6109c1565b60405161026d9190612fc5565b60405180910390f35b34801561028257600080fd5b5061029d60048036038101906102989190612ac5565b610a46565b005b3480156102ab57600080fd5b506102c660048036038101906102c191906129bf565b610b5e565b005b3480156102d457600080fd5b506102ef60048036038101906102ea91906129bf565b610bbe565b005b3480156102fd57600080fd5b50610306610bde565b604051610313919061333f565b60405180910390f35b34801561032857600080fd5b50610343600480360381019061033e919061295a565b610be4565b604051610350919061333f565b60405180910390f35b34801561036557600080fd5b50610380600480360381019061037b9190612b94565b610bfc565b60405161038d9190612fc5565b60405180910390f35b3480156103a257600080fd5b506103bd60048036038101906103b89190612b53565b610cae565b005b3480156103cb57600080fd5b506103e660048036038101906103e1919061295a565b610e26565b6040516103f3919061333f565b60405180910390f35b34801561040857600080fd5b50610411610ede565b60405161041e9190613062565b60405180910390f35b34801561043357600080fd5b5061044e60048036038101906104499190612b94565b610ef1565b60405161045b919061307d565b60405180910390f35b34801561047057600080fd5b50610479610f9d565b6040516104869190612fe0565b60405180910390f35b34801561049b57600080fd5b506104a4610fc3565b6040516104b19190612fe0565b60405180910390f35b3480156104c657600080fd5b506104cf610fe9565b6040516104dc919061307d565b60405180910390f35b3480156104f157600080fd5b5061050c60048036038101906105079190612a89565b61107b565b005b34801561051a57600080fd5b5061053560048036038101906105309190612a0e565b6111fc565b005b34801561054357600080fd5b5061054c61125e565b604051610559919061333f565b60405180910390f35b34801561056e57600080fd5b5061058960048036038101906105849190612b94565b611264565b604051610596919061307d565b60405180910390f35b3480156105ab57600080fd5b506105c660048036038101906105c19190612b94565b61130b565b005b3480156105d457600080fd5b506105ef60048036038101906105ea9190612983565b61168e565b6040516105fc9190613047565b60405180910390f35b61060d611722565b005b34801561061b57600080fd5b50610624611ad9565b604051610631919061333f565b60405180910390f35b34801561064657600080fd5b50610661600480360381019061065c9190612b53565b611adf565b60405161066e919061333f565b60405180910390f35b34801561068357600080fd5b5061068c611b0d565b005b60007f80ac58cd000000000000000000000000000000000000000000000000000000007bffffffffffffffffffffffffffffffffffffffffffffffffffffffff1916827bffffffffffffffffffffffffffffffffffffffffffffffffffffffff1916148061075957507f5b5e139f000000000000000000000000000000000000000000000000000000007bffffffffffffffffffffffffffffffffffffffffffffffffffffffff1916827bffffffffffffffffffffffffffffffffffffffffffffffffffffffff1916145b80610769575061076882611c7c565b5b9050919050565b60008061077c83610bfc565b90508073ffffffffffffffffffffffffffffffffffffffff163373ffffffffffffffffffffffffffffffffffffffff1614156107ed576040517f08c379a00000000000000000000000000000000000000000000000000000000081526004016107e49061309f565b60405180910390fd5b6000341415801561081457503373ffffffffffffffffffffffffffffffffffffffff163134105b610853576040517f08c379a000000000000000000000000000000000000000000000000000000000815260040161084a906131df565b60405180910390fd5b8073ffffffffffffffffffffffffffffffffffffffff166108fc349081150290604051600060405180830381858888f19350505050158015610899573d6000803e3d6000fd5b50670de0b6b3a764000034146108e4576040517f08c379a00000000000000000000000000000000000000000000000000000000081526004016108db9061323f565b60405180910390fd5b6109258133856040518060400160405280600681526020017f456e6a6f79210000000000000000000000000000000000000000000000000000815250611ce6565b6001915050919050565b60606000805461093e906135cc565b80601f016020809104026020016040519081016040528092919081815260200182805461096a906135cc565b80156109b75780601f1061098c576101008083540402835291602001916109b7565b820191906000526020600020905b81548152906001019060200180831161099a57829003601f168201915b5050505050905090565b60006109cc82611d42565b610a0b576040517f08c379a0000000000000000000000000000000000000000000000000000000008152600401610a029061327f565b60405180910390fd5b6004600083815260200190815260200160002060009054906101000a900473ffffffffffffffffffffffffffffffffffffffff169050919050565b6000610a5182610bfc565b90508073ffffffffffffffffffffffffffffffffffffffff168373ffffffffffffffffffffffffffffffffffffffff161415610ac2576040517f08c379a0000000000000000000000000000000000000000000000000000000008152600401610ab9906132df565b60405180910390fd5b8073ffffffffffffffffffffffffffffffffffffffff16610ae1611dae565b73ffffffffffffffffffffffffffffffffffffffff161480610b105750610b0f81610b0a611dae565b61168e565b5b610b4f576040517f08c379a0000000000000000000000000000000000000000000000000000000008152600401610b469061319f565b60405180910390fd5b610b598383611db6565b505050565b610b6f610b69611dae565b82611e6f565b610bae576040517f08c379a0000000000000000000000000000000000000000000000000000000008152600401610ba5906132ff565b60405180910390fd5b610bb9838383611f4d565b505050565b610bd9838383604051806020016040528060008152506111fc565b505050565b60075481565b600d6020528060005260406000206000915090505481565b6000806002600084815260200190815260200160002060009054906101000a900473ffffffffffffffffffffffffffffffffffffffff169050600073ffffffffffffffffffffffffffffffffffffffff168173ffffffffffffffffffffffffffffffffffffffff161415610ca5576040517f08c379a0000000000000000000000000000000000000000000000000000000008152600401610c9c9061321f565b60405180910390fd5b80915050919050565b600e81604051610cbe9190612f8a565b908152602001604051809103902060009054906101000a900460ff1615610d1a576040517f08c379a0000000000000000000000000000000000000000000000000000000008152600401610d11906131bf565b60405180910390fd5b60006007549050600682908060018154018082558091505060019003906000526020600020016000909190919091509080519060200190610d5c92919061277e565b50610d6733826121a9565b6001600e83604051610d799190612f8a565b908152602001604051809103902060006101000a81548160ff02191690831515021790555080600f83604051610daf9190612f8a565b908152602001604051809103902081905550610dca81610bfc565b600b60006101000a81548173ffffffffffffffffffffffffffffffffffffffff021916908373ffffffffffffffffffffffffffffffffffffffff16021790555060076000815480929190610e1d9061362f565b91905055505050565b60008073ffffffffffffffffffffffffffffffffffffffff168273ffffffffffffffffffffffffffffffffffffffff161415610e97576040517f08c379a0000000000000000000000000000000000000000000000000000000008152600401610e8e906131ff565b60405180910390fd5b600360008373ffffffffffffffffffffffffffffffffffffffff1673ffffffffffffffffffffffffffffffffffffffff168152602001908152602001600020549050919050565b600c60149054906101000a900460ff1681565b60068181548110610f0157600080fd5b906000526020600020016000915090508054610f1c906135cc565b80601f0160208091040260200160405190810160405280929190818152602001828054610f48906135cc565b8015610f955780601f10610f6a57610100808354040283529160200191610f95565b820191906000526020600020905b815481529060010190602001808311610f7857829003601f168201915b505050505081565b600b60009054906101000a900473ffffffffffffffffffffffffffffffffffffffff1681565b600c60009054906101000a900473ffffffffffffffffffffffffffffffffffffffff1681565b606060018054610ff8906135cc565b80601f0160208091040260200160405190810160405280929190818152602001828054611024906135cc565b80156110715780601f1061104657610100808354040283529160200191611071565b820191906000526020600020905b81548152906001019060200180831161105457829003601f168201915b5050505050905090565b611083611dae565b73ffffffffffffffffffffffffffffffffffffffff168273ffffffffffffffffffffffffffffffffffffffff1614156110f1576040517f08c379a00000000000000000000000000000000000000000000000000000000081526004016110e89061313f565b60405180910390fd5b80600560006110fe611dae565b73ffffffffffffffffffffffffffffffffffffffff1673ffffffffffffffffffffffffffffffffffffffff16815260200190815260200160002060008473ffffffffffffffffffffffffffffffffffffffff1673ffffffffffffffffffffffffffffffffffffffff16815260200190815260200160002060006101000a81548160ff0219169083151502179055508173ffffffffffffffffffffffffffffffffffffffff166111ab611dae565b73ffffffffffffffffffffffffffffffffffffffff167f17307eab39ab6107e8899845ad3d59bd9653f200f220920489ca2b5937696c31836040516111f09190613047565b60405180910390a35050565b61120d611207611dae565b83611e6f565b61124c576040517f08c379a0000000000000000000000000000000000000000000000000000000008152600401611243906132ff565b60405180910390fd5b61125884848484611ce6565b50505050565b60085481565b606061126f82611d42565b6112ae576040517f08c379a00000000000000000000000000000000000000000000000000000000081526004016112a5906132bf565b60405180910390fd5b60006112b86121c7565b905060008151116112d85760405180602001604052806000815250611303565b806112e2846121de565b6040516020016112f3929190612fa1565b6040516020818303038152906040525b915050919050565b600180811115611344577f4e487b7100000000000000000000000000000000000000000000000000000000600052602160045260246000fd5b600c60149054906101000a900460ff16600181111561138c577f4e487b7100000000000000000000000000000000000000000000000000000000600052602160045260246000fd5b1461139657600080fd5b600b60009054906101000a900473ffffffffffffffffffffffffffffffffffffffff1673ffffffffffffffffffffffffffffffffffffffff163373ffffffffffffffffffffffffffffffffffffffff161415801561143357506000600d60003373ffffffffffffffffffffffffffffffffffffffff1673ffffffffffffffffffffffffffffffffffffffff16815260200190815260200160002054115b61143c57600080fd5b600080600c60009054906101000a900473ffffffffffffffffffffffffffffffffffffffff1673ffffffffffffffffffffffffffffffffffffffff163373ffffffffffffffffffffffffffffffffffffffff1614156115fc57600c60009054906101000a900473ffffffffffffffffffffffffffffffffffffffff169150600a54600d6000600c60009054906101000a900473ffffffffffffffffffffffffffffffffffffffff1673ffffffffffffffffffffffffffffffffffffffff1673ffffffffffffffffffffffffffffffffffffffff1681526020019081526020016000205461152991906134ab565b9050600b60009054906101000a900473ffffffffffffffffffffffffffffffffffffffff1673ffffffffffffffffffffffffffffffffffffffff166108fc829081150290604051600060405180830381858888f19350505050158015611593573d6000803e3d6000fd5b506115f7600b60009054906101000a900473ffffffffffffffffffffffffffffffffffffffff1683856040518060400160405280600681526020017f456e6a6f79210000000000000000000000000000000000000000000000000000815250611ce6565b611689565b339150600d60003373ffffffffffffffffffffffffffffffffffffffff1673ffffffffffffffffffffffffffffffffffffffff1681526020019081526020016000205490508173ffffffffffffffffffffffffffffffffffffffff166108fc829081150290604051600060405180830381858888f19350505050158015611687573d6000803e3d6000fd5b505b505050565b6000600560008473ffffffffffffffffffffffffffffffffffffffff1673ffffffffffffffffffffffffffffffffffffffff16815260200190815260200160002060008373ffffffffffffffffffffffffffffffffffffffff1673ffffffffffffffffffffffffffffffffffffffff16815260200190815260200160002060009054906101000a900460ff16905092915050565b600b60009054906101000a900473ffffffffffffffffffffffffffffffffffffffff1673ffffffffffffffffffffffffffffffffffffffff163373ffffffffffffffffffffffffffffffffffffffff1614156117b3576040517f08c379a00000000000000000000000000000000000000000000000000000000081526004016117aa9061331f565b60405180910390fd5b600060018111156117ed577f4e487b7100000000000000000000000000000000000000000000000000000000600052602160045260246000fd5b600c60149054906101000a900460ff166001811115611835577f4e487b7100000000000000000000000000000000000000000000000000000000600052602160045260246000fd5b1461183f57600080fd5b67013fbe85edc9000034101561188a576040517f08c379a0000000000000000000000000000000000000000000000000000000008152600401611881906130ff565b60405180910390fd5b600034600d60003373ffffffffffffffffffffffffffffffffffffffff1673ffffffffffffffffffffffffffffffffffffffff168152602001908152602001600020546118d79190613424565b9050600a5481116118e757600080fd5b80600d60003373ffffffffffffffffffffffffffffffffffffffff1673ffffffffffffffffffffffffffffffffffffffff16815260200190815260200160002081905550600d6000600c60009054906101000a900473ffffffffffffffffffffffffffffffffffffffff1673ffffffffffffffffffffffffffffffffffffffff1673ffffffffffffffffffffffffffffffffffffffff168152602001908152602001600020548111611a1657611a0b600954826119a49190613424565b600d6000600c60009054906101000a900473ffffffffffffffffffffffffffffffffffffffff1673ffffffffffffffffffffffffffffffffffffffff1673ffffffffffffffffffffffffffffffffffffffff1681526020019081526020016000205461238b565b600a81905550611ad6565b611a8e81600954600d6000600c60009054906101000a900473ffffffffffffffffffffffffffffffffffffffff1673ffffffffffffffffffffffffffffffffffffffff1673ffffffffffffffffffffffffffffffffffffffff16815260200190815260200160002054611a899190613424565b61238b565b600a8190555033600c60006101000a81548173ffffffffffffffffffffffffffffffffffffffff021916908373ffffffffffffffffffffffffffffffffffffffff1602179055505b50565b600a5481565b600f818051602081018201805184825260208301602085012081835280955050505050506000915090505481565b600b60009054906101000a900473ffffffffffffffffffffffffffffffffffffffff1673ffffffffffffffffffffffffffffffffffffffff163373ffffffffffffffffffffffffffffffffffffffff1614611b9d576040517f08c379a0000000000000000000000000000000000000000000000000000000008152600401611b949061315f565b60405180910390fd5b60006001811115611bd7577f4e487b7100000000000000000000000000000000000000000000000000000000600052602160045260246000fd5b600c60149054906101000a900460ff166001811115611c1f577f4e487b7100000000000000000000000000000000000000000000000000000000600052602160045260246000fd5b14611c2957600080fd5b6001600c60146101000a81548160ff02191690836001811115611c75577f4e487b7100000000000000000000000000000000000000000000000000000000600052602160045260246000fd5b0217905550565b60007f01ffc9a7000000000000000000000000000000000000000000000000000000007bffffffffffffffffffffffffffffffffffffffffffffffffffffffff1916827bffffffffffffffffffffffffffffffffffffffffffffffffffffffff1916149050919050565b611cf1848484611f4d565b611cfd848484846123a6565b611d3c576040517f08c379a0000000000000000000000000000000000000000000000000000000008152600401611d33906130bf565b60405180910390fd5b50505050565b60008073ffffffffffffffffffffffffffffffffffffffff166002600084815260200190815260200160002060009054906101000a900473ffffffffffffffffffffffffffffffffffffffff1673ffffffffffffffffffffffffffffffffffffffff1614159050919050565b600033905090565b816004600083815260200190815260200160002060006101000a81548173ffffffffffffffffffffffffffffffffffffffff021916908373ffffffffffffffffffffffffffffffffffffffff160217905550808273ffffffffffffffffffffffffffffffffffffffff16611e2983610bfc565b73ffffffffffffffffffffffffffffffffffffffff167f8c5be1e5ebec7d5bd14f71427d1e84f3dd0314c0f7b2291e5b200ac8c7c3b92560405160405180910390a45050565b6000611e7a82611d42565b611eb9576040517f08c379a0000000000000000000000000000000000000000000000000000000008152600401611eb09061317f565b60405180910390fd5b6000611ec483610bfc565b90508073ffffffffffffffffffffffffffffffffffffffff168473ffffffffffffffffffffffffffffffffffffffff161480611f3357508373ffffffffffffffffffffffffffffffffffffffff16611f1b846109c1565b73ffffffffffffffffffffffffffffffffffffffff16145b80611f445750611f43818561168e565b5b91505092915050565b8273ffffffffffffffffffffffffffffffffffffffff16611f6d82610bfc565b73ffffffffffffffffffffffffffffffffffffffff1614611fc3576040517f08c379a0000000000000000000000000000000000000000000000000000000008152600401611fba9061329f565b60405180910390fd5b600073ffffffffffffffffffffffffffffffffffffffff168273ffffffffffffffffffffffffffffffffffffffff161415612033576040517f08c379a000000000000000000000000000000000000000000000000000000000815260040161202a9061311f565b60405180910390fd5b61203e83838361253d565b612049600082611db6565b6001600360008573ffffffffffffffffffffffffffffffffffffffff1673ffffffffffffffffffffffffffffffffffffffff168152602001908152602001600020600082825461209991906134ab565b925050819055506001600360008473ffffffffffffffffffffffffffffffffffffffff1673ffffffffffffffffffffffffffffffffffffffff16815260200190815260200160002060008282546120f09190613424565b92505081905550816002600083815260200190815260200160002060006101000a81548173ffffffffffffffffffffffffffffffffffffffff021916908373ffffffffffffffffffffffffffffffffffffffff160217905550808273ffffffffffffffffffffffffffffffffffffffff168473ffffffffffffffffffffffffffffffffffffffff167fddf252ad1be2c89b69c2b068fc378daa952ba7f163c4a11628f55a4df523b3ef60405160405180910390a4505050565b6121c3828260405180602001604052806000815250612542565b5050565b606060405180602001604052806000815250905090565b60606000821415612226576040518060400160405280600181526020017f30000000000000000000000000000000000000000000000000000000000000008152509050612386565b600082905060005b600082146122585780806122419061362f565b915050600a82612251919061347a565b915061222e565b60008167ffffffffffffffff81111561229a577f4e487b7100000000000000000000000000000000000000000000000000000000600052604160045260246000fd5b6040519080825280601f01601f1916602001820160405280156122cc5781602001600182028036833780820191505090505b5090505b6000851461237f576001826122e591906134ab565b9150600a856122f49190613678565b60306123009190613424565b60f81b81838151811061233c577f4e487b7100000000000000000000000000000000000000000000000000000000600052603260045260246000fd5b60200101907effffffffffffffffffffffffffffffffffffffffffffffffffffffffffffff1916908160001a905350600a85612378919061347a565b94506122d0565b8093505050505b919050565b600081831161239c578290506123a0565b8190505b92915050565b60006123c78473ffffffffffffffffffffffffffffffffffffffff1661259d565b15612530578373ffffffffffffffffffffffffffffffffffffffff1663150b7a026123f0611dae565b8786866040518563ffffffff1660e01b81526004016124129493929190612ffb565b602060405180830381600087803b15801561242c57600080fd5b505af192505050801561245d57506040513d601f19601f8201168201806040525081019061245a9190612b2a565b60015b6124e0573d806000811461248d576040519150601f19603f3d011682016040523d82523d6000602084013e612492565b606091505b506000815114156124d8576040517f08c379a00000000000000000000000000000000000000000000000000000000081526004016124cf906130bf565b60405180910390fd5b805181602001fd5b63150b7a0260e01b7bffffffffffffffffffffffffffffffffffffffffffffffffffffffff1916817bffffffffffffffffffffffffffffffffffffffffffffffffffffffff191614915050612535565b600190505b949350505050565b505050565b61254c83836125b0565b61255960008484846123a6565b612598576040517f08c379a000000000000000000000000000000000000000000000000000000000815260040161258f906130bf565b60405180910390fd5b505050565b600080823b905060008111915050919050565b600073ffffffffffffffffffffffffffffffffffffffff168273ffffffffffffffffffffffffffffffffffffffff161415612620576040517f08c379a00000000000000000000000000000000000000000000000000000000081526004016126179061325f565b60405180910390fd5b61262981611d42565b15612669576040517f08c379a0000000000000000000000000000000000000000000000000000000008152600401612660906130df565b60405180910390fd5b6126756000838361253d565b6001600360008473ffffffffffffffffffffffffffffffffffffffff1673ffffffffffffffffffffffffffffffffffffffff16815260200190815260200160002060008282546126c59190613424565b92505081905550816002600083815260200190815260200160002060006101000a81548173ffffffffffffffffffffffffffffffffffffffff021916908373ffffffffffffffffffffffffffffffffffffffff160217905550808273ffffffffffffffffffffffffffffffffffffffff16600073ffffffffffffffffffffffffffffffffffffffff167fddf252ad1be2c89b69c2b068fc378daa952ba7f163c4a11628f55a4df523b3ef60405160405180910390a45050565b82805461278a906135cc565b90600052602060002090601f0160209004810192826127ac57600085556127f3565b82601f106127c557805160ff19168380011785556127f3565b828001600101855582156127f3579182015b828111156127f25782518255916020019190600101906127d7565b5b5090506128009190612804565b5090565b5b8082111561281d576000816000905550600101612805565b5090565b600061283461282f8461337f565b61335a565b90508281526020810184848401111561284c57600080fd5b61285784828561358a565b509392505050565b600061287261286d846133b0565b61335a565b90508281526020810184848401111561288a57600080fd5b61289584828561358a565b509392505050565b6000813590506128ac81613cb8565b92915050565b6000813590506128c181613ccf565b92915050565b6000813590506128d681613ce6565b92915050565b6000815190506128eb81613ce6565b92915050565b600082601f83011261290257600080fd5b8135612912848260208601612821565b91505092915050565b600082601f83011261292c57600080fd5b813561293c84826020860161285f565b91505092915050565b60008135905061295481613cfd565b92915050565b60006020828403121561296c57600080fd5b600061297a8482850161289d565b91505092915050565b6000806040838503121561299657600080fd5b60006129a48582860161289d565b92505060206129b58582860161289d565b9150509250929050565b6000806000606084860312156129d457600080fd5b60006129e28682870161289d565b93505060206129f38682870161289d565b9250506040612a0486828701612945565b9150509250925092565b60008060008060808587031215612a2457600080fd5b6000612a328782880161289d565b9450506020612a438782880161289d565b9350506040612a5487828801612945565b925050606085013567ffffffffffffffff811115612a7157600080fd5b612a7d878288016128f1565b91505092959194509250565b60008060408385031215612a9c57600080fd5b6000612aaa8582860161289d565b9250506020612abb858286016128b2565b9150509250929050565b60008060408385031215612ad857600080fd5b6000612ae68582860161289d565b9250506020612af785828601612945565b9150509250929050565b600060208284031215612b1357600080fd5b6000612b21848285016128c7565b91505092915050565b600060208284031215612b3c57600080fd5b6000612b4a848285016128dc565b91505092915050565b600060208284031215612b6557600080fd5b600082013567ffffffffffffffff811115612b7f57600080fd5b612b8b8482850161291b565b91505092915050565b600060208284031215612ba657600080fd5b6000612bb484828501612945565b91505092915050565b612bc6816134f1565b82525050565b612bd5816134df565b82525050565b612be481613503565b82525050565b6000612bf5826133e1565b612bff81856133f7565b9350612c0f818560208601613599565b612c1881613794565b840191505092915050565b612c2c81613578565b82525050565b6000612c3d826133ec565b612c478185613408565b9350612c57818560208601613599565b612c6081613794565b840191505092915050565b6000612c76826133ec565b612c808185613419565b9350612c90818560208601613599565b80840191505092915050565b6000612ca9601683613408565b9150612cb4826137a5565b602082019050919050565b6000612ccc603283613408565b9150612cd7826137ce565b604082019050919050565b6000612cef601c83613408565b9150612cfa8261381d565b602082019050919050565b6000612d12600a83613408565b9150612d1d82613846565b602082019050919050565b6000612d35602483613408565b9150612d408261386f565b604082019050919050565b6000612d58601983613408565b9150612d63826138be565b602082019050919050565b6000612d7b600983613408565b9150612d86826138e7565b602082019050919050565b6000612d9e602c83613408565b9150612da982613910565b604082019050919050565b6000612dc1603883613408565b9150612dcc8261395f565b604082019050919050565b6000612de4601483613408565b9150612def826139ae565b602082019050919050565b6000612e07601883613408565b9150612e12826139d7565b602082019050919050565b6000612e2a602a83613408565b9150612e3582613a00565b604082019050919050565b6000612e4d602983613408565b9150612e5882613a4f565b604082019050919050565b6000612e70601383613408565b9150612e7b82613a9e565b602082019050919050565b6000612e93602083613408565b9150612e9e82613ac7565b602082019050919050565b6000612eb6602c83613408565b9150612ec182613af0565b604082019050919050565b6000612ed9602983613408565b9150612ee482613b3f565b604082019050919050565b6000612efc602f83613408565b9150612f0782613b8e565b604082019050919050565b6000612f1f602183613408565b9150612f2a82613bdd565b604082019050919050565b6000612f42603183613408565b9150612f4d82613c2c565b604082019050919050565b6000612f65600c83613408565b9150612f7082613c7b565b602082019050919050565b612f848161356e565b82525050565b6000612f968284612c6b565b915081905092915050565b6000612fad8285612c6b565b9150612fb98284612c6b565b91508190509392505050565b6000602082019050612fda6000830184612bcc565b92915050565b6000602082019050612ff56000830184612bbd565b92915050565b60006080820190506130106000830187612bcc565b61301d6020830186612bcc565b61302a6040830185612f7b565b818103606083015261303c8184612bea565b905095945050505050565b600060208201905061305c6000830184612bdb565b92915050565b60006020820190506130776000830184612c23565b92915050565b600060208201905081810360008301526130978184612c32565b905092915050565b600060208201905081810360008301526130b881612c9c565b9050919050565b600060208201905081810360008301526130d881612cbf565b9050919050565b600060208201905081810360008301526130f881612ce2565b9050919050565b6000602082019050818103600083015261311881612d05565b9050919050565b6000602082019050818103600083015261313881612d28565b9050919050565b6000602082019050818103600083015261315881612d4b565b9050919050565b6000602082019050818103600083015261317881612d6e565b9050919050565b6000602082019050818103600083015261319881612d91565b9050919050565b600060208201905081810360008301526131b881612db4565b9050919050565b600060208201905081810360008301526131d881612dd7565b9050919050565b600060208201905081810360008301526131f881612dfa565b9050919050565b6000602082019050818103600083015261321881612e1d565b9050919050565b6000602082019050818103600083015261323881612e40565b9050919050565b6000602082019050818103600083015261325881612e63565b9050919050565b6000602082019050818103600083015261327881612e86565b9050919050565b6000602082019050818103600083015261329881612ea9565b9050919050565b600060208201905081810360008301526132b881612ecc565b9050919050565b600060208201905081810360008301526132d881612eef565b9050919050565b600060208201905081810360008301526132f881612f12565b9050919050565b6000602082019050818103600083015261331881612f35565b9050919050565b6000602082019050818103600083015261333881612f58565b9050919050565b60006020820190506133546000830184612f7b565b92915050565b6000613364613375565b905061337082826135fe565b919050565b6000604051905090565b600067ffffffffffffffff82111561339a57613399613765565b5b6133a382613794565b9050602081019050919050565b600067ffffffffffffffff8211156133cb576133ca613765565b5b6133d482613794565b9050602081019050919050565b600081519050919050565b600081519050919050565b600082825260208201905092915050565b600082825260208201905092915050565b600081905092915050565b600061342f8261356e565b915061343a8361356e565b9250827fffffffffffffffffffffffffffffffffffffffffffffffffffffffffffffffff0382111561346f5761346e6136a9565b5b828201905092915050565b60006134858261356e565b91506134908361356e565b9250826134a05761349f6136d8565b5b828204905092915050565b60006134b68261356e565b91506134c18361356e565b9250828210156134d4576134d36136a9565b5b828203905092915050565b60006134ea8261354e565b9050919050565b60006134fc8261354e565b9050919050565b60008115159050919050565b60007fffffffff0000000000000000000000000000000000000000000000000000000082169050919050565b600081905061354982613ca4565b919050565b600073ffffffffffffffffffffffffffffffffffffffff82169050919050565b6000819050919050565b60006135838261353b565b9050919050565b82818337600083830152505050565b60005b838110156135b757808201518184015260208101905061359c565b838111156135c6576000848401525b50505050565b600060028204905060018216806135e457607f821691505b602082108114156135f8576135f7613736565b5b50919050565b61360782613794565b810181811067ffffffffffffffff8211171561362657613625613765565b5b80604052505050565b600061363a8261356e565b91507fffffffffffffffffffffffffffffffffffffffffffffffffffffffffffffffff82141561366d5761366c6136a9565b5b600182019050919050565b60006136838261356e565b915061368e8361356e565b92508261369e5761369d6136d8565b5b828206905092915050565b7f4e487b7100000000000000000000000000000000000000000000000000000000600052601160045260246000fd5b7f4e487b7100000000000000000000000000000000000000000000000000000000600052601260045260246000fd5b7f4e487b7100000000000000000000000000000000000000000000000000000000600052602160045260246000fd5b7f4e487b7100000000000000000000000000000000000000000000000000000000600052602260045260246000fd5b7f4e487b7100000000000000000000000000000000000000000000000000000000600052604160045260246000fd5b6000601f19601f8301169050919050565b7f496d6167654e46543a20627579206279206f776e657200000000000000000000600082015250565b7f4552433732313a207472616e7366657220746f206e6f6e20455243373231526560008201527f63656976657220696d706c656d656e7465720000000000000000000000000000602082015250565b7f4552433732313a20746f6b656e20616c7265616479206d696e74656400000000600082015250565b7f6d696e3a20312045544800000000000000000000000000000000000000000000600082015250565b7f4552433732313a207472616e7366657220746f20746865207a65726f2061646460008201527f7265737300000000000000000000000000000000000000000000000000000000602082015250565b7f4552433732313a20617070726f766520746f2063616c6c657200000000000000600082015250565b7f4e6f74204f776e65720000000000000000000000000000000000000000000000600082015250565b7f4552433732313a206f70657261746f7220717565727920666f72206e6f6e657860008201527f697374656e7420746f6b656e0000000000000000000000000000000000000000602082015250565b7f4552433732313a20617070726f76652063616c6c6572206973206e6f74206f7760008201527f6e6572206e6f7220617070726f76656420666f7220616c6c0000000000000000602082015250565b7f696d61676520616c7265616479206d696e746564000000000000000000000000600082015250565b7f496d6167654e46543a206e6f7420656e6f756768206574680000000000000000600082015250565b7f4552433732313a2062616c616e636520717565727920666f7220746865207a6560008201527f726f206164647265737300000000000000000000000000000000000000000000602082015250565b7f4552433732313a206f776e657220717565727920666f72206e6f6e657869737460008201527f656e7420746f6b656e0000000000000000000000000000000000000000000000602082015250565b7f496d6167654e46543a2070617920312045544800000000000000000000000000600082015250565b7f4552433732313a206d696e7420746f20746865207a65726f2061646472657373600082015250565b7f4552433732313a20617070726f76656420717565727920666f72206e6f6e657860008201527f697374656e7420746f6b656e0000000000000000000000000000000000000000602082015250565b7f4552433732313a207472616e73666572206f6620746f6b656e2074686174206960008201527f73206e6f74206f776e0000000000000000000000000000000000000000000000602082015250565b7f4552433732314d657461646174613a2055524920717565727920666f72206e6f60008201527f6e6578697374656e7420746f6b656e0000000000000000000000000000000000602082015250565b7f4552433732313a20617070726f76616c20746f2063757272656e74206f776e6560008201527f7200000000000000000000000000000000000000000000000000000000000000602082015250565b7f4552433732313a207472616e736665722063616c6c6572206973206e6f74206f60008201527f776e6572206e6f7220617070726f766564000000000000000000000000000000602082015250565b7f596f75277265204f776e65720000000000000000000000000000000000000000600082015250565b60028110613cb557613cb4613707565b5b50565b613cc1816134df565b8114613ccc57600080fd5b50565b613cd881613503565b8114613ce357600080fd5b50565b613cef8161350f565b8114613cfa57600080fd5b50565b613d068161356e565b8114613d1157600080fd5b5056fea2646970667358221220d2de3c790867d1e7ee42bedb218238613532705fc45109ea49a3e530e593121a64736f6c63430008040033",
  "immutableReferences": {},
  "source": "// SPDX-License-Identifier: MIT\npragma solidity 0.8.4;\n\nimport \"../client/node_modules/@openzeppelin/contracts/token/ERC721/ERC721.sol\";\n\ncontract ImageNFT is ERC721(\"NFT Marketplace\", \"RPNFT\") {\n    string[] public images;\n\n    uint256 public counter;\n    uint256 public ipfsHash;\n    uint256 bidIncrement;\n    uint256 public highestBindingBid;\n\n    address payable public owner;\n    address payable public highestBidder;\n\n    enum State {Running, Ended}\n    State public auctionState;\n\n    mapping(address => uint256) public bids;\n    mapping(string => bool) imageAlreadyMinted;\n    mapping(string => uint256) public imageIDs;\n\n    //====\n\n    constructor() {\n        // Initialize the bid incrment to 0.01 ETH\n        bidIncrement = 10000000000000000;\n        highestBindingBid = 0;\n\n        // The auction starts when the contract is deployed\n        auctionState = State.Running;\n    }\n\n    function createImage(string memory _imageCID) public {\n        // cannot mint the same image twice.\n        // IPFS will be used to store images returning a unique CID (image URI).\n        // Since CIDs are based on the image content, same image will always\n        // return same CID.\n        require(!imageAlreadyMinted[_imageCID], \"image already minted\");\n        uint256 newImageId = counter;\n\n        // store the image URI on the Blockchain\n        images.push(_imageCID);\n\n        // mint the image\n        _safeMint(msg.sender, newImageId);\n\n        // store the information that the image has been minted\n        imageAlreadyMinted[_imageCID] = true;\n\n        // store the image ID of the image in a mapping\n        imageIDs[_imageCID] = newImageId;\n\n        // transfer the ownership of the image\n        owner = payable(ownerOf(newImageId));\n\n        counter++;\n    }\n\n    function buyImage(uint256 _imageID) public payable returns (bool) {\n        // ERC721 contract defines requires needed\n        // Double checking would not be optimal since it costs gas\n\n        // get the owner of the image. Always work with local variable\n        // not state variable.\n        address payable ownerAddress = payable(ownerOf(_imageID));\n\n        require(msg.sender != ownerAddress, \"ImageNFT: buy by owner\");\n\n        // cash out ETH\n        require(\n            msg.value != 0 && msg.value < msg.sender.balance,\n            \"ImageNFT: not enough eth\"\n        );\n        payable(ownerAddress).transfer(msg.value);\n\n        // transfer the token CID from the owner to the buyer\n        // images cost 1 ETH\n        require(msg.value == 1 ether, \"ImageNFT: pay 1 ETH\");\n        _safeTransfer(ownerAddress, msg.sender, _imageID, \"Enjoy!\");\n\n        return true;\n    }\n\n    //=== Auction\n    function placeBid() public payable {\n        require(msg.sender != owner, \"You're Owner\");\n        require(auctionState == State.Running);\n        require(msg.value >= 0.09 ether, \"min: 1 ETH\");\n\n        uint256 currentBid = bids[msg.sender] + msg.value;\n        require(currentBid > highestBindingBid);\n        bids[msg.sender] = currentBid;\n\n        if (currentBid <= bids[highestBidder]) {\n            highestBindingBid = min(\n                currentBid + bidIncrement,\n                bids[highestBidder]\n            );\n        } else {\n            highestBindingBid = min(\n                currentBid,\n                bids[highestBidder] + bidIncrement\n            );\n            highestBidder = payable(msg.sender);\n        }\n    }\n\n    function endAuction() public {\n        require(msg.sender == owner, \"Not Owner\");\n        require(auctionState == State.Running);\n\n        auctionState = State.Ended;\n    }\n\n    // Withdrawal pattern to avoid re-entrance attacks\n    // refund the looser and transfer the image to the highestBidder\n    function finalizeAuction(uint256 _imageID) public {\n        // Auction need to be cancelled or ended.\n        // only the owner or a bidder can finalize the auction\n        require(auctionState == State.Ended);\n        require(msg.sender != owner && bids[msg.sender] > 0);\n\n        address payable recipient;\n        uint256 value;\n\n        // if the caller is the winner, transfer the NFT image\n        // if not refund\n        if (msg.sender == highestBidder) {\n            recipient = highestBidder;\n            value = bids[highestBidder] - highestBindingBid;\n\n            // send the amount of ETH to the owner\n            owner.transfer(value);\n\n            // transfer the NFT image to the highestBidder\n            _safeTransfer(owner, recipient, _imageID, \"Enjoy!\");\n        } else {\n            recipient = payable(msg.sender);\n            value = bids[msg.sender];\n\n            recipient.transfer(value);\n        }\n    }\n\n    function min(uint256 a, uint256 b) internal pure returns (uint256) {\n        if (a <= b) {\n            return a;\n        } else {\n            return b;\n        }\n    }\n}\n",
  "sourcePath": "/Users/samuel/Documents/Projet_Job/Candidatures/RarePorn/contracts/ImageNFT.sol",
  "compiler": {
    "name": "solc",
    "version": "0.8.4+commit.c7e474f2.Emscripten.clang"
  },
  "schemaVersion": "3.3.4",
  "updatedAt": "2021-06-18T17:06:41.780Z",
  "networkType": "ethereum",
  "devdoc": {
    "kind": "dev",
    "methods": {
      "approve(address,uint256)": {
        "details": "See {IERC721-approve}."
      },
      "balanceOf(address)": {
        "details": "See {IERC721-balanceOf}."
      },
      "getApproved(uint256)": {
        "details": "See {IERC721-getApproved}."
      },
      "isApprovedForAll(address,address)": {
        "details": "See {IERC721-isApprovedForAll}."
      },
      "name()": {
        "details": "See {IERC721Metadata-name}."
      },
      "ownerOf(uint256)": {
        "details": "See {IERC721-ownerOf}."
      },
      "safeTransferFrom(address,address,uint256)": {
        "details": "See {IERC721-safeTransferFrom}."
      },
      "safeTransferFrom(address,address,uint256,bytes)": {
        "details": "See {IERC721-safeTransferFrom}."
      },
      "setApprovalForAll(address,bool)": {
        "details": "See {IERC721-setApprovalForAll}."
      },
      "supportsInterface(bytes4)": {
        "details": "See {IERC165-supportsInterface}."
      },
      "symbol()": {
        "details": "See {IERC721Metadata-symbol}."
      },
      "tokenURI(uint256)": {
        "details": "See {IERC721Metadata-tokenURI}."
      },
      "transferFrom(address,address,uint256)": {
        "details": "See {IERC721-transferFrom}."
      }
    },
    "version": 1
  },
  "userdoc": {
    "kind": "user",
    "methods": {},
    "version": 1
  }
}