{
  "contractName": "ImageNFT",
  "abi": [
    {
      "inputs": [],
      "stateMutability": "nonpayable",
      "type": "constructor"
    },
    {
      "anonymous": false,
      "inputs": [
        {
          "indexed": true,
          "internalType": "address",
          "name": "owner",
          "type": "address"
        },
        {
          "indexed": true,
          "internalType": "address",
          "name": "approved",
          "type": "address"
        },
        {
          "indexed": true,
          "internalType": "uint256",
          "name": "tokenId",
          "type": "uint256"
        }
      ],
      "name": "Approval",
      "type": "event"
    },
    {
      "anonymous": false,
      "inputs": [
        {
          "indexed": true,
          "internalType": "address",
          "name": "owner",
          "type": "address"
        },
        {
          "indexed": true,
          "internalType": "address",
          "name": "operator",
          "type": "address"
        },
        {
          "indexed": false,
          "internalType": "bool",
          "name": "approved",
          "type": "bool"
        }
      ],
      "name": "ApprovalForAll",
      "type": "event"
    },
    {
      "anonymous": false,
      "inputs": [
        {
          "indexed": true,
          "internalType": "address",
          "name": "from",
          "type": "address"
        },
        {
          "indexed": true,
          "internalType": "address",
          "name": "to",
          "type": "address"
        },
        {
          "indexed": true,
          "internalType": "uint256",
          "name": "tokenId",
          "type": "uint256"
        }
      ],
      "name": "Transfer",
      "type": "event"
    },
    {
      "inputs": [
        {
          "internalType": "address",
          "name": "to",
          "type": "address"
        },
        {
          "internalType": "uint256",
          "name": "tokenId",
          "type": "uint256"
        }
      ],
      "name": "approve",
      "outputs": [],
      "stateMutability": "nonpayable",
      "type": "function"
    },
    {
      "inputs": [
        {
          "internalType": "address",
          "name": "owner",
          "type": "address"
        }
      ],
      "name": "balanceOf",
      "outputs": [
        {
          "internalType": "uint256",
          "name": "",
          "type": "uint256"
        }
      ],
      "stateMutability": "view",
      "type": "function",
      "constant": true
    },
    {
      "inputs": [],
      "name": "counter",
      "outputs": [
        {
          "internalType": "uint256",
          "name": "",
          "type": "uint256"
        }
      ],
      "stateMutability": "view",
      "type": "function",
      "constant": true
    },
    {
      "inputs": [
        {
          "internalType": "uint256",
          "name": "tokenId",
          "type": "uint256"
        }
      ],
      "name": "getApproved",
      "outputs": [
        {
          "internalType": "address",
          "name": "",
          "type": "address"
        }
      ],
      "stateMutability": "view",
      "type": "function",
      "constant": true
    },
    {
      "inputs": [
        {
          "internalType": "string",
          "name": "",
          "type": "string"
        }
      ],
      "name": "imageIDs",
      "outputs": [
        {
          "internalType": "uint256",
          "name": "",
          "type": "uint256"
        }
      ],
      "stateMutability": "view",
      "type": "function",
      "constant": true
    },
    {
      "inputs": [
        {
          "internalType": "uint256",
          "name": "",
          "type": "uint256"
        }
      ],
      "name": "images",
      "outputs": [
        {
          "internalType": "string",
          "name": "",
          "type": "string"
        }
      ],
      "stateMutability": "view",
      "type": "function",
      "constant": true
    },
    {
      "inputs": [
        {
          "internalType": "address",
          "name": "owner",
          "type": "address"
        },
        {
          "internalType": "address",
          "name": "operator",
          "type": "address"
        }
      ],
      "name": "isApprovedForAll",
      "outputs": [
        {
          "internalType": "bool",
          "name": "",
          "type": "bool"
        }
      ],
      "stateMutability": "view",
      "type": "function",
      "constant": true
    },
    {
      "inputs": [],
      "name": "name",
      "outputs": [
        {
          "internalType": "string",
          "name": "",
          "type": "string"
        }
      ],
      "stateMutability": "view",
      "type": "function",
      "constant": true
    },
    {
      "inputs": [
        {
          "internalType": "uint256",
          "name": "tokenId",
          "type": "uint256"
        }
      ],
      "name": "ownerOf",
      "outputs": [
        {
          "internalType": "address",
          "name": "",
          "type": "address"
        }
      ],
      "stateMutability": "view",
      "type": "function",
      "constant": true
    },
    {
      "inputs": [
        {
          "internalType": "address",
          "name": "from",
          "type": "address"
        },
        {
          "internalType": "address",
          "name": "to",
          "type": "address"
        },
        {
          "internalType": "uint256",
          "name": "tokenId",
          "type": "uint256"
        }
      ],
      "name": "safeTransferFrom",
      "outputs": [],
      "stateMutability": "nonpayable",
      "type": "function"
    },
    {
      "inputs": [
        {
          "internalType": "address",
          "name": "from",
          "type": "address"
        },
        {
          "internalType": "address",
          "name": "to",
          "type": "address"
        },
        {
          "internalType": "uint256",
          "name": "tokenId",
          "type": "uint256"
        },
        {
          "internalType": "bytes",
          "name": "_data",
          "type": "bytes"
        }
      ],
      "name": "safeTransferFrom",
      "outputs": [],
      "stateMutability": "nonpayable",
      "type": "function"
    },
    {
      "inputs": [
        {
          "internalType": "address",
          "name": "operator",
          "type": "address"
        },
        {
          "internalType": "bool",
          "name": "approved",
          "type": "bool"
        }
      ],
      "name": "setApprovalForAll",
      "outputs": [],
      "stateMutability": "nonpayable",
      "type": "function"
    },
    {
      "inputs": [
        {
          "internalType": "bytes4",
          "name": "interfaceId",
          "type": "bytes4"
        }
      ],
      "name": "supportsInterface",
      "outputs": [
        {
          "internalType": "bool",
          "name": "",
          "type": "bool"
        }
      ],
      "stateMutability": "view",
      "type": "function",
      "constant": true
    },
    {
      "inputs": [],
      "name": "symbol",
      "outputs": [
        {
          "internalType": "string",
          "name": "",
          "type": "string"
        }
      ],
      "stateMutability": "view",
      "type": "function",
      "constant": true
    },
    {
      "inputs": [
        {
          "internalType": "uint256",
          "name": "tokenId",
          "type": "uint256"
        }
      ],
      "name": "tokenURI",
      "outputs": [
        {
          "internalType": "string",
          "name": "",
          "type": "string"
        }
      ],
      "stateMutability": "view",
      "type": "function",
      "constant": true
    },
    {
      "inputs": [
        {
          "internalType": "address",
          "name": "from",
          "type": "address"
        },
        {
          "internalType": "address",
          "name": "to",
          "type": "address"
        },
        {
          "internalType": "uint256",
          "name": "tokenId",
          "type": "uint256"
        }
      ],
      "name": "transferFrom",
      "outputs": [],
      "stateMutability": "nonpayable",
      "type": "function"
    },
    {
      "inputs": [
        {
          "internalType": "string",
          "name": "_imageCID",
          "type": "string"
        }
      ],
      "name": "createImage",
      "outputs": [],
      "stateMutability": "nonpayable",
      "type": "function"
    },
    {
      "inputs": [
        {
          "internalType": "uint256",
          "name": "_imageID",
          "type": "uint256"
        }
      ],
      "name": "buyImage",
      "outputs": [
        {
          "internalType": "bool",
          "name": "",
          "type": "bool"
        }
      ],
      "stateMutability": "payable",
      "type": "function",
      "payable": true
    }
  ],
  "bytecode": "0x60806040523480156200001157600080fd5b506040518060400160405280600f81526020017f4e4654204d61726b6574706c61636500000000000000000000000000000000008152506040518060400160405280600581526020017f52504e4654000000000000000000000000000000000000000000000000000000815250816000908051906020019062000096929190620000b8565b508060019080519060200190620000af929190620000b8565b505050620001cd565b828054620000c69062000168565b90600052602060002090601f016020900481019282620000ea576000855562000136565b82601f106200010557805160ff191683800117855562000136565b8280016001018555821562000136579182015b828111156200013557825182559160200191906001019062000118565b5b50905062000145919062000149565b5090565b5b80821115620001645760008160009055506001016200014a565b5090565b600060028204905060018216806200018157607f821691505b602082108114156200019857620001976200019e565b5b50919050565b7f4e487b7100000000000000000000000000000000000000000000000000000000600052602260045260246000fd5b612fb780620001dd6000396000f3fe6080604052600436106101095760003560e01c80636b08239b11610095578063a22cb46511610064578063a22cb46514610394578063b88d4fde146103bd578063c87b56dd146103e6578063e985e9c514610423578063fad862b41461046057610109565b80636b08239b146102c657806370a08231146102ef578063848564821461032c57806395d89b411461036957610109565b8063095ea7b3116100dc578063095ea7b3146101e357806323b872dd1461020c57806342842e0e1461023557806361bc221a1461025e5780636352211e1461028957610109565b806301ffc9a71461010e57806303e6af2e1461014b57806306fdde031461017b578063081812fc146101a6575b600080fd5b34801561011a57600080fd5b5061013560048036038101906101309190611f80565b61049d565b6040516101429190612424565b60405180910390f35b61016560048036038101906101609190612013565b61057f565b6040516101729190612424565b60405180910390f35b34801561018757600080fd5b5061019061073e565b60405161019d919061243f565b60405180910390f35b3480156101b257600080fd5b506101cd60048036038101906101c89190612013565b6107d0565b6040516101da91906123bd565b60405180910390f35b3480156101ef57600080fd5b5061020a60048036038101906102059190611f44565b610855565b005b34801561021857600080fd5b50610233600480360381019061022e9190611e3e565b61096d565b005b34801561024157600080fd5b5061025c60048036038101906102579190611e3e565b6109cd565b005b34801561026a57600080fd5b506102736109ed565b60405161028091906126a1565b60405180910390f35b34801561029557600080fd5b506102b060048036038101906102ab9190612013565b6109f3565b6040516102bd91906123bd565b60405180910390f35b3480156102d257600080fd5b506102ed60048036038101906102e89190611fd2565b610aa5565b005b3480156102fb57600080fd5b5061031660048036038101906103119190611dd9565b610bd4565b60405161032391906126a1565b60405180910390f35b34801561033857600080fd5b50610353600480360381019061034e9190612013565b610c8c565b604051610360919061243f565b60405180910390f35b34801561037557600080fd5b5061037e610d38565b60405161038b919061243f565b60405180910390f35b3480156103a057600080fd5b506103bb60048036038101906103b69190611f08565b610dca565b005b3480156103c957600080fd5b506103e460048036038101906103df9190611e8d565b610f4b565b005b3480156103f257600080fd5b5061040d60048036038101906104089190612013565b610fad565b60405161041a919061243f565b60405180910390f35b34801561042f57600080fd5b5061044a60048036038101906104459190611e02565b611054565b6040516104579190612424565b60405180910390f35b34801561046c57600080fd5b5061048760048036038101906104829190611fd2565b6110e8565b60405161049491906126a1565b60405180910390f35b60007f80ac58cd000000000000000000000000000000000000000000000000000000007bffffffffffffffffffffffffffffffffffffffffffffffffffffffff1916827bffffffffffffffffffffffffffffffffffffffffffffffffffffffff1916148061056857507f5b5e139f000000000000000000000000000000000000000000000000000000007bffffffffffffffffffffffffffffffffffffffffffffffffffffffff1916827bffffffffffffffffffffffffffffffffffffffffffffffffffffffff1916145b80610578575061057782611116565b5b9050919050565b60008061058b836109f3565b90508073ffffffffffffffffffffffffffffffffffffffff163373ffffffffffffffffffffffffffffffffffffffff1614156105fc576040517f08c379a00000000000000000000000000000000000000000000000000000000081526004016105f390612461565b60405180910390fd5b6000341415801561062357503373ffffffffffffffffffffffffffffffffffffffff163134105b610662576040517f08c379a000000000000000000000000000000000000000000000000000000000815260040161065990612561565b60405180910390fd5b8073ffffffffffffffffffffffffffffffffffffffff166108fc349081150290604051600060405180830381858888f193505050501580156106a8573d6000803e3d6000fd5b50670de0b6b3a764000034146106f3576040517f08c379a00000000000000000000000000000000000000000000000000000000081526004016106ea906125c1565b60405180910390fd5b6107348133856040518060400160405280600681526020017f456e6a6f79210000000000000000000000000000000000000000000000000000815250611180565b6001915050919050565b60606000805461074d906128f7565b80601f0160208091040260200160405190810160405280929190818152602001828054610779906128f7565b80156107c65780601f1061079b576101008083540402835291602001916107c6565b820191906000526020600020905b8154815290600101906020018083116107a957829003601f168201915b5050505050905090565b60006107db826111dc565b61081a576040517f08c379a000000000000000000000000000000000000000000000000000000000815260040161081190612601565b60405180910390fd5b6004600083815260200190815260200160002060009054906101000a900473ffffffffffffffffffffffffffffffffffffffff169050919050565b6000610860826109f3565b90508073ffffffffffffffffffffffffffffffffffffffff168373ffffffffffffffffffffffffffffffffffffffff1614156108d1576040517f08c379a00000000000000000000000000000000000000000000000000000000081526004016108c890612661565b60405180910390fd5b8073ffffffffffffffffffffffffffffffffffffffff166108f0611248565b73ffffffffffffffffffffffffffffffffffffffff16148061091f575061091e81610919611248565b611054565b5b61095e576040517f08c379a000000000000000000000000000000000000000000000000000000000815260040161095590612521565b60405180910390fd5b6109688383611250565b505050565b61097e610978611248565b82611309565b6109bd576040517f08c379a00000000000000000000000000000000000000000000000000000000081526004016109b490612681565b60405180910390fd5b6109c88383836113e7565b505050565b6109e883838360405180602001604052806000815250610f4b565b505050565b60065481565b6000806002600084815260200190815260200160002060009054906101000a900473ffffffffffffffffffffffffffffffffffffffff169050600073ffffffffffffffffffffffffffffffffffffffff168173ffffffffffffffffffffffffffffffffffffffff161415610a9c576040517f08c379a0000000000000000000000000000000000000000000000000000000008152600401610a93906125a1565b60405180910390fd5b80915050919050565b600881604051610ab59190612382565b908152602001604051809103902060009054906101000a900460ff1615610b11576040517f08c379a0000000000000000000000000000000000000000000000000000000008152600401610b0890612541565b60405180910390fd5b60006006549050600782908060018154018082558091505060019003906000526020600020016000909190919091509080519060200190610b53929190611bfd565b50610b5e3382611643565b6001600883604051610b709190612382565b908152602001604051809103902060006101000a81548160ff02191690831515021790555080600983604051610ba69190612382565b90815260200160405180910390208190555060066000815480929190610bcb9061295a565b91905055505050565b60008073ffffffffffffffffffffffffffffffffffffffff168273ffffffffffffffffffffffffffffffffffffffff161415610c45576040517f08c379a0000000000000000000000000000000000000000000000000000000008152600401610c3c90612581565b60405180910390fd5b600360008373ffffffffffffffffffffffffffffffffffffffff1673ffffffffffffffffffffffffffffffffffffffff168152602001908152602001600020549050919050565b60078181548110610c9c57600080fd5b906000526020600020016000915090508054610cb7906128f7565b80601f0160208091040260200160405190810160405280929190818152602001828054610ce3906128f7565b8015610d305780601f10610d0557610100808354040283529160200191610d30565b820191906000526020600020905b815481529060010190602001808311610d1357829003601f168201915b505050505081565b606060018054610d47906128f7565b80601f0160208091040260200160405190810160405280929190818152602001828054610d73906128f7565b8015610dc05780601f10610d9557610100808354040283529160200191610dc0565b820191906000526020600020905b815481529060010190602001808311610da357829003601f168201915b5050505050905090565b610dd2611248565b73ffffffffffffffffffffffffffffffffffffffff168273ffffffffffffffffffffffffffffffffffffffff161415610e40576040517f08c379a0000000000000000000000000000000000000000000000000000000008152600401610e37906124e1565b60405180910390fd5b8060056000610e4d611248565b73ffffffffffffffffffffffffffffffffffffffff1673ffffffffffffffffffffffffffffffffffffffff16815260200190815260200160002060008473ffffffffffffffffffffffffffffffffffffffff1673ffffffffffffffffffffffffffffffffffffffff16815260200190815260200160002060006101000a81548160ff0219169083151502179055508173ffffffffffffffffffffffffffffffffffffffff16610efa611248565b73ffffffffffffffffffffffffffffffffffffffff167f17307eab39ab6107e8899845ad3d59bd9653f200f220920489ca2b5937696c3183604051610f3f9190612424565b60405180910390a35050565b610f5c610f56611248565b83611309565b610f9b576040517f08c379a0000000000000000000000000000000000000000000000000000000008152600401610f9290612681565b60405180910390fd5b610fa784848484611180565b50505050565b6060610fb8826111dc565b610ff7576040517f08c379a0000000000000000000000000000000000000000000000000000000008152600401610fee90612641565b60405180910390fd5b6000611001611661565b90506000815111611021576040518060200160405280600081525061104c565b8061102b84611678565b60405160200161103c929190612399565b6040516020818303038152906040525b915050919050565b6000600560008473ffffffffffffffffffffffffffffffffffffffff1673ffffffffffffffffffffffffffffffffffffffff16815260200190815260200160002060008373ffffffffffffffffffffffffffffffffffffffff1673ffffffffffffffffffffffffffffffffffffffff16815260200190815260200160002060009054906101000a900460ff16905092915050565b6009818051602081018201805184825260208301602085012081835280955050505050506000915090505481565b60007f01ffc9a7000000000000000000000000000000000000000000000000000000007bffffffffffffffffffffffffffffffffffffffffffffffffffffffff1916827bffffffffffffffffffffffffffffffffffffffffffffffffffffffff1916149050919050565b61118b8484846113e7565b61119784848484611825565b6111d6576040517f08c379a00000000000000000000000000000000000000000000000000000000081526004016111cd90612481565b60405180910390fd5b50505050565b60008073ffffffffffffffffffffffffffffffffffffffff166002600084815260200190815260200160002060009054906101000a900473ffffffffffffffffffffffffffffffffffffffff1673ffffffffffffffffffffffffffffffffffffffff1614159050919050565b600033905090565b816004600083815260200190815260200160002060006101000a81548173ffffffffffffffffffffffffffffffffffffffff021916908373ffffffffffffffffffffffffffffffffffffffff160217905550808273ffffffffffffffffffffffffffffffffffffffff166112c3836109f3565b73ffffffffffffffffffffffffffffffffffffffff167f8c5be1e5ebec7d5bd14f71427d1e84f3dd0314c0f7b2291e5b200ac8c7c3b92560405160405180910390a45050565b6000611314826111dc565b611353576040517f08c379a000000000000000000000000000000000000000000000000000000000815260040161134a90612501565b60405180910390fd5b600061135e836109f3565b90508073ffffffffffffffffffffffffffffffffffffffff168473ffffffffffffffffffffffffffffffffffffffff1614806113cd57508373ffffffffffffffffffffffffffffffffffffffff166113b5846107d0565b73ffffffffffffffffffffffffffffffffffffffff16145b806113de57506113dd8185611054565b5b91505092915050565b8273ffffffffffffffffffffffffffffffffffffffff16611407826109f3565b73ffffffffffffffffffffffffffffffffffffffff161461145d576040517f08c379a000000000000000000000000000000000000000000000000000000000815260040161145490612621565b60405180910390fd5b600073ffffffffffffffffffffffffffffffffffffffff168273ffffffffffffffffffffffffffffffffffffffff1614156114cd576040517f08c379a00000000000000000000000000000000000000000000000000000000081526004016114c4906124c1565b60405180910390fd5b6114d88383836119bc565b6114e3600082611250565b6001600360008573ffffffffffffffffffffffffffffffffffffffff1673ffffffffffffffffffffffffffffffffffffffff1681526020019081526020016000206000828254611533919061280d565b925050819055506001600360008473ffffffffffffffffffffffffffffffffffffffff1673ffffffffffffffffffffffffffffffffffffffff168152602001908152602001600020600082825461158a9190612786565b92505081905550816002600083815260200190815260200160002060006101000a81548173ffffffffffffffffffffffffffffffffffffffff021916908373ffffffffffffffffffffffffffffffffffffffff160217905550808273ffffffffffffffffffffffffffffffffffffffff168473ffffffffffffffffffffffffffffffffffffffff167fddf252ad1be2c89b69c2b068fc378daa952ba7f163c4a11628f55a4df523b3ef60405160405180910390a4505050565b61165d8282604051806020016040528060008152506119c1565b5050565b606060405180602001604052806000815250905090565b606060008214156116c0576040518060400160405280600181526020017f30000000000000000000000000000000000000000000000000000000000000008152509050611820565b600082905060005b600082146116f25780806116db9061295a565b915050600a826116eb91906127dc565b91506116c8565b60008167ffffffffffffffff811115611734577f4e487b7100000000000000000000000000000000000000000000000000000000600052604160045260246000fd5b6040519080825280601f01601f1916602001820160405280156117665781602001600182028036833780820191505090505b5090505b600085146118195760018261177f919061280d565b9150600a8561178e91906129a3565b603061179a9190612786565b60f81b8183815181106117d6577f4e487b7100000000000000000000000000000000000000000000000000000000600052603260045260246000fd5b60200101907effffffffffffffffffffffffffffffffffffffffffffffffffffffffffffff1916908160001a905350600a8561181291906127dc565b945061176a565b8093505050505b919050565b60006118468473ffffffffffffffffffffffffffffffffffffffff16611a1c565b156119af578373ffffffffffffffffffffffffffffffffffffffff1663150b7a0261186f611248565b8786866040518563ffffffff1660e01b815260040161189194939291906123d8565b602060405180830381600087803b1580156118ab57600080fd5b505af19250505080156118dc57506040513d601f19601f820116820180604052508101906118d99190611fa9565b60015b61195f573d806000811461190c576040519150601f19603f3d011682016040523d82523d6000602084013e611911565b606091505b50600081511415611957576040517f08c379a000000000000000000000000000000000000000000000000000000000815260040161194e90612481565b60405180910390fd5b805181602001fd5b63150b7a0260e01b7bffffffffffffffffffffffffffffffffffffffffffffffffffffffff1916817bffffffffffffffffffffffffffffffffffffffffffffffffffffffff1916149150506119b4565b600190505b949350505050565b505050565b6119cb8383611a2f565b6119d86000848484611825565b611a17576040517f08c379a0000000000000000000000000000000000000000000000000000000008152600401611a0e90612481565b60405180910390fd5b505050565b600080823b905060008111915050919050565b600073ffffffffffffffffffffffffffffffffffffffff168273ffffffffffffffffffffffffffffffffffffffff161415611a9f576040517f08c379a0000000000000000000000000000000000000000000000000000000008152600401611a96906125e1565b60405180910390fd5b611aa8816111dc565b15611ae8576040517f08c379a0000000000000000000000000000000000000000000000000000000008152600401611adf906124a1565b60405180910390fd5b611af4600083836119bc565b6001600360008473ffffffffffffffffffffffffffffffffffffffff1673ffffffffffffffffffffffffffffffffffffffff1681526020019081526020016000206000828254611b449190612786565b92505081905550816002600083815260200190815260200160002060006101000a81548173ffffffffffffffffffffffffffffffffffffffff021916908373ffffffffffffffffffffffffffffffffffffffff160217905550808273ffffffffffffffffffffffffffffffffffffffff16600073ffffffffffffffffffffffffffffffffffffffff167fddf252ad1be2c89b69c2b068fc378daa952ba7f163c4a11628f55a4df523b3ef60405160405180910390a45050565b828054611c09906128f7565b90600052602060002090601f016020900481019282611c2b5760008555611c72565b82601f10611c4457805160ff1916838001178555611c72565b82800160010185558215611c72579182015b82811115611c71578251825591602001919060010190611c56565b5b509050611c7f9190611c83565b5090565b5b80821115611c9c576000816000905550600101611c84565b5090565b6000611cb3611cae846126e1565b6126bc565b905082815260208101848484011115611ccb57600080fd5b611cd68482856128b5565b509392505050565b6000611cf1611cec84612712565b6126bc565b905082815260208101848484011115611d0957600080fd5b611d148482856128b5565b509392505050565b600081359050611d2b81612f25565b92915050565b600081359050611d4081612f3c565b92915050565b600081359050611d5581612f53565b92915050565b600081519050611d6a81612f53565b92915050565b600082601f830112611d8157600080fd5b8135611d91848260208601611ca0565b91505092915050565b600082601f830112611dab57600080fd5b8135611dbb848260208601611cde565b91505092915050565b600081359050611dd381612f6a565b92915050565b600060208284031215611deb57600080fd5b6000611df984828501611d1c565b91505092915050565b60008060408385031215611e1557600080fd5b6000611e2385828601611d1c565b9250506020611e3485828601611d1c565b9150509250929050565b600080600060608486031215611e5357600080fd5b6000611e6186828701611d1c565b9350506020611e7286828701611d1c565b9250506040611e8386828701611dc4565b9150509250925092565b60008060008060808587031215611ea357600080fd5b6000611eb187828801611d1c565b9450506020611ec287828801611d1c565b9350506040611ed387828801611dc4565b925050606085013567ffffffffffffffff811115611ef057600080fd5b611efc87828801611d70565b91505092959194509250565b60008060408385031215611f1b57600080fd5b6000611f2985828601611d1c565b9250506020611f3a85828601611d31565b9150509250929050565b60008060408385031215611f5757600080fd5b6000611f6585828601611d1c565b9250506020611f7685828601611dc4565b9150509250929050565b600060208284031215611f9257600080fd5b6000611fa084828501611d46565b91505092915050565b600060208284031215611fbb57600080fd5b6000611fc984828501611d5b565b91505092915050565b600060208284031215611fe457600080fd5b600082013567ffffffffffffffff811115611ffe57600080fd5b61200a84828501611d9a565b91505092915050565b60006020828403121561202557600080fd5b600061203384828501611dc4565b91505092915050565b61204581612841565b82525050565b61205481612853565b82525050565b600061206582612743565b61206f8185612759565b935061207f8185602086016128c4565b61208881612a90565b840191505092915050565b600061209e8261274e565b6120a8818561276a565b93506120b88185602086016128c4565b6120c181612a90565b840191505092915050565b60006120d78261274e565b6120e1818561277b565b93506120f18185602086016128c4565b80840191505092915050565b600061210a60168361276a565b915061211582612aa1565b602082019050919050565b600061212d60328361276a565b915061213882612aca565b604082019050919050565b6000612150601c8361276a565b915061215b82612b19565b602082019050919050565b600061217360248361276a565b915061217e82612b42565b604082019050919050565b600061219660198361276a565b91506121a182612b91565b602082019050919050565b60006121b9602c8361276a565b91506121c482612bba565b604082019050919050565b60006121dc60388361276a565b91506121e782612c09565b604082019050919050565b60006121ff60148361276a565b915061220a82612c58565b602082019050919050565b600061222260188361276a565b915061222d82612c81565b602082019050919050565b6000612245602a8361276a565b915061225082612caa565b604082019050919050565b600061226860298361276a565b915061227382612cf9565b604082019050919050565b600061228b60138361276a565b915061229682612d48565b602082019050919050565b60006122ae60208361276a565b91506122b982612d71565b602082019050919050565b60006122d1602c8361276a565b91506122dc82612d9a565b604082019050919050565b60006122f460298361276a565b91506122ff82612de9565b604082019050919050565b6000612317602f8361276a565b915061232282612e38565b604082019050919050565b600061233a60218361276a565b915061234582612e87565b604082019050919050565b600061235d60318361276a565b915061236882612ed6565b604082019050919050565b61237c816128ab565b82525050565b600061238e82846120cc565b915081905092915050565b60006123a582856120cc565b91506123b182846120cc565b91508190509392505050565b60006020820190506123d2600083018461203c565b92915050565b60006080820190506123ed600083018761203c565b6123fa602083018661203c565b6124076040830185612373565b8181036060830152612419818461205a565b905095945050505050565b6000602082019050612439600083018461204b565b92915050565b600060208201905081810360008301526124598184612093565b905092915050565b6000602082019050818103600083015261247a816120fd565b9050919050565b6000602082019050818103600083015261249a81612120565b9050919050565b600060208201905081810360008301526124ba81612143565b9050919050565b600060208201905081810360008301526124da81612166565b9050919050565b600060208201905081810360008301526124fa81612189565b9050919050565b6000602082019050818103600083015261251a816121ac565b9050919050565b6000602082019050818103600083015261253a816121cf565b9050919050565b6000602082019050818103600083015261255a816121f2565b9050919050565b6000602082019050818103600083015261257a81612215565b9050919050565b6000602082019050818103600083015261259a81612238565b9050919050565b600060208201905081810360008301526125ba8161225b565b9050919050565b600060208201905081810360008301526125da8161227e565b9050919050565b600060208201905081810360008301526125fa816122a1565b9050919050565b6000602082019050818103600083015261261a816122c4565b9050919050565b6000602082019050818103600083015261263a816122e7565b9050919050565b6000602082019050818103600083015261265a8161230a565b9050919050565b6000602082019050818103600083015261267a8161232d565b9050919050565b6000602082019050818103600083015261269a81612350565b9050919050565b60006020820190506126b66000830184612373565b92915050565b60006126c66126d7565b90506126d28282612929565b919050565b6000604051905090565b600067ffffffffffffffff8211156126fc576126fb612a61565b5b61270582612a90565b9050602081019050919050565b600067ffffffffffffffff82111561272d5761272c612a61565b5b61273682612a90565b9050602081019050919050565b600081519050919050565b600081519050919050565b600082825260208201905092915050565b600082825260208201905092915050565b600081905092915050565b6000612791826128ab565b915061279c836128ab565b9250827fffffffffffffffffffffffffffffffffffffffffffffffffffffffffffffffff038211156127d1576127d06129d4565b5b828201905092915050565b60006127e7826128ab565b91506127f2836128ab565b92508261280257612801612a03565b5b828204905092915050565b6000612818826128ab565b9150612823836128ab565b925082821015612836576128356129d4565b5b828203905092915050565b600061284c8261288b565b9050919050565b60008115159050919050565b60007fffffffff0000000000000000000000000000000000000000000000000000000082169050919050565b600073ffffffffffffffffffffffffffffffffffffffff82169050919050565b6000819050919050565b82818337600083830152505050565b60005b838110156128e25780820151818401526020810190506128c7565b838111156128f1576000848401525b50505050565b6000600282049050600182168061290f57607f821691505b6020821081141561292357612922612a32565b5b50919050565b61293282612a90565b810181811067ffffffffffffffff8211171561295157612950612a61565b5b80604052505050565b6000612965826128ab565b91507fffffffffffffffffffffffffffffffffffffffffffffffffffffffffffffffff821415612998576129976129d4565b5b600182019050919050565b60006129ae826128ab565b91506129b9836128ab565b9250826129c9576129c8612a03565b5b828206905092915050565b7f4e487b7100000000000000000000000000000000000000000000000000000000600052601160045260246000fd5b7f4e487b7100000000000000000000000000000000000000000000000000000000600052601260045260246000fd5b7f4e487b7100000000000000000000000000000000000000000000000000000000600052602260045260246000fd5b7f4e487b7100000000000000000000000000000000000000000000000000000000600052604160045260246000fd5b6000601f19601f8301169050919050565b7f496d6167654e46543a20627579206279206f776e657200000000000000000000600082015250565b7f4552433732313a207472616e7366657220746f206e6f6e20455243373231526560008201527f63656976657220696d706c656d656e7465720000000000000000000000000000602082015250565b7f4552433732313a20746f6b656e20616c7265616479206d696e74656400000000600082015250565b7f4552433732313a207472616e7366657220746f20746865207a65726f2061646460008201527f7265737300000000000000000000000000000000000000000000000000000000602082015250565b7f4552433732313a20617070726f766520746f2063616c6c657200000000000000600082015250565b7f4552433732313a206f70657261746f7220717565727920666f72206e6f6e657860008201527f697374656e7420746f6b656e0000000000000000000000000000000000000000602082015250565b7f4552433732313a20617070726f76652063616c6c6572206973206e6f74206f7760008201527f6e6572206e6f7220617070726f76656420666f7220616c6c0000000000000000602082015250565b7f696d61676520616c7265616479206d696e746564000000000000000000000000600082015250565b7f496d6167654e46543a206e6f7420656e6f756768206574680000000000000000600082015250565b7f4552433732313a2062616c616e636520717565727920666f7220746865207a6560008201527f726f206164647265737300000000000000000000000000000000000000000000602082015250565b7f4552433732313a206f776e657220717565727920666f72206e6f6e657869737460008201527f656e7420746f6b656e0000000000000000000000000000000000000000000000602082015250565b7f496d6167654e46543a2070617920312045544800000000000000000000000000600082015250565b7f4552433732313a206d696e7420746f20746865207a65726f2061646472657373600082015250565b7f4552433732313a20617070726f76656420717565727920666f72206e6f6e657860008201527f697374656e7420746f6b656e0000000000000000000000000000000000000000602082015250565b7f4552433732313a207472616e73666572206f6620746f6b656e2074686174206960008201527f73206e6f74206f776e0000000000000000000000000000000000000000000000602082015250565b7f4552433732314d657461646174613a2055524920717565727920666f72206e6f60008201527f6e6578697374656e7420746f6b656e0000000000000000000000000000000000602082015250565b7f4552433732313a20617070726f76616c20746f2063757272656e74206f776e6560008201527f7200000000000000000000000000000000000000000000000000000000000000602082015250565b7f4552433732313a207472616e736665722063616c6c6572206973206e6f74206f60008201527f776e6572206e6f7220617070726f766564000000000000000000000000000000602082015250565b612f2e81612841565b8114612f3957600080fd5b50565b612f4581612853565b8114612f5057600080fd5b50565b612f5c8161285f565b8114612f6757600080fd5b50565b612f73816128ab565b8114612f7e57600080fd5b5056fea26469706673582212201c0cb026245c0a5a54a984c3b83087f0b82e0eaacc97d036e10b8c1babc7355b64736f6c63430008040033",
  "immutableReferences": {},
  "source": "// SPDX-License-Identifier: MIT\npragma solidity 0.8.4;\n\nimport \"../client/node_modules/@openzeppelin/contracts/token/ERC721/ERC721.sol\";\n\ncontract ImageNFT is ERC721(\"NFT Marketplace\", \"RPNFT\") {\n    uint256 public counter;\n    string[] public images;\n    mapping(string => bool) imageAlreadyMinted;\n    mapping(string => uint256) public imageIDs;\n\n    constructor() {}\n\n    function createImage(string memory _imageCID) public {\n        // cannot mint the same image twice.\n        // IPFS will be used to store images returning a unique CID (image URI).\n        // Since CIDs are based on the image content, same image will always\n        // return same CID.\n        require(!imageAlreadyMinted[_imageCID], \"image already minted\");\n        uint256 newImageId = counter;\n\n        // store the image URI on the Blockchain\n        images.push(_imageCID);\n\n        // mint the image\n        _safeMint(msg.sender, newImageId);\n\n        // store the information that the image has been minted\n        imageAlreadyMinted[_imageCID] = true;\n\n        // store the image ID of the image CID in a mapping\n        imageIDs[_imageCID] = newImageId;\n\n        counter++;\n    }\n\n    function buyImage(uint256 _imageID) public payable returns (bool) {\n        // ERC721 contract defines requires needed\n        // Double checking would not be optimal since it cost gas\n\n        // get the owner of the image\n        address owner = ownerOf(_imageID);\n        require(msg.sender != owner, \"ImageNFT: buy by owner\");\n\n        // cash out ETH\n        require(\n            msg.value != 0 && msg.value < msg.sender.balance,\n            \"ImageNFT: not enough eth\"\n        );\n        payable(owner).transfer(msg.value);\n\n        // transfer the token CID from the owner to the buyer\n        // images cost 1 ETH\n        require(msg.value == 1 ether, \"ImageNFT: pay 1 ETH\");\n        _safeTransfer(owner, msg.sender, _imageID, \"Enjoy!\");\n\n        // creturn the address of the new image's owner\n        return true;\n    }\n}\n",
  "sourcePath": "/Users/samuel/Documents/Projet_Job/Candidatures/RarePorn/contracts/ImageNFT.sol",
  "compiler": {
    "name": "solc",
    "version": "0.8.4+commit.c7e474f2.Emscripten.clang"
  },
  "schemaVersion": "3.3.4",
  "updatedAt": "2021-06-13T14:29:52.013Z",
  "networkType": "ethereum",
  "devdoc": {
    "kind": "dev",
    "methods": {
      "approve(address,uint256)": {
        "details": "See {IERC721-approve}."
      },
      "balanceOf(address)": {
        "details": "See {IERC721-balanceOf}."
      },
      "getApproved(uint256)": {
        "details": "See {IERC721-getApproved}."
      },
      "isApprovedForAll(address,address)": {
        "details": "See {IERC721-isApprovedForAll}."
      },
      "name()": {
        "details": "See {IERC721Metadata-name}."
      },
      "ownerOf(uint256)": {
        "details": "See {IERC721-ownerOf}."
      },
      "safeTransferFrom(address,address,uint256)": {
        "details": "See {IERC721-safeTransferFrom}."
      },
      "safeTransferFrom(address,address,uint256,bytes)": {
        "details": "See {IERC721-safeTransferFrom}."
      },
      "setApprovalForAll(address,bool)": {
        "details": "See {IERC721-setApprovalForAll}."
      },
      "supportsInterface(bytes4)": {
        "details": "See {IERC165-supportsInterface}."
      },
      "symbol()": {
        "details": "See {IERC721Metadata-symbol}."
      },
      "tokenURI(uint256)": {
        "details": "See {IERC721Metadata-tokenURI}."
      },
      "transferFrom(address,address,uint256)": {
        "details": "See {IERC721-transferFrom}."
      }
    },
    "version": 1
  },
  "userdoc": {
    "kind": "user",
    "methods": {},
    "version": 1
  }
}