{
  "contractName": "ImageNFT",
  "abi": [
    {
      "inputs": [],
      "stateMutability": "nonpayable",
      "type": "constructor"
    },
    {
      "anonymous": false,
      "inputs": [
        {
          "indexed": true,
          "internalType": "address",
          "name": "owner",
          "type": "address"
        },
        {
          "indexed": true,
          "internalType": "address",
          "name": "approved",
          "type": "address"
        },
        {
          "indexed": true,
          "internalType": "uint256",
          "name": "tokenId",
          "type": "uint256"
        }
      ],
      "name": "Approval",
      "type": "event"
    },
    {
      "anonymous": false,
      "inputs": [
        {
          "indexed": true,
          "internalType": "address",
          "name": "owner",
          "type": "address"
        },
        {
          "indexed": true,
          "internalType": "address",
          "name": "operator",
          "type": "address"
        },
        {
          "indexed": false,
          "internalType": "bool",
          "name": "approved",
          "type": "bool"
        }
      ],
      "name": "ApprovalForAll",
      "type": "event"
    },
    {
      "anonymous": false,
      "inputs": [
        {
          "indexed": true,
          "internalType": "address",
          "name": "from",
          "type": "address"
        },
        {
          "indexed": true,
          "internalType": "address",
          "name": "to",
          "type": "address"
        },
        {
          "indexed": true,
          "internalType": "uint256",
          "name": "tokenId",
          "type": "uint256"
        }
      ],
      "name": "Transfer",
      "type": "event"
    },
    {
      "inputs": [
        {
          "internalType": "address",
          "name": "to",
          "type": "address"
        },
        {
          "internalType": "uint256",
          "name": "tokenId",
          "type": "uint256"
        }
      ],
      "name": "approve",
      "outputs": [],
      "stateMutability": "nonpayable",
      "type": "function"
    },
    {
      "inputs": [],
      "name": "auctionState",
      "outputs": [
        {
          "internalType": "enum ImageNFT.State",
          "name": "",
          "type": "uint8"
        }
      ],
      "stateMutability": "view",
      "type": "function",
      "constant": true
    },
    {
      "inputs": [
        {
          "internalType": "address",
          "name": "owner",
          "type": "address"
        }
      ],
      "name": "balanceOf",
      "outputs": [
        {
          "internalType": "uint256",
          "name": "",
          "type": "uint256"
        }
      ],
      "stateMutability": "view",
      "type": "function",
      "constant": true
    },
    {
      "inputs": [
        {
          "internalType": "address",
          "name": "",
          "type": "address"
        }
      ],
      "name": "bids",
      "outputs": [
        {
          "internalType": "uint256",
          "name": "",
          "type": "uint256"
        }
      ],
      "stateMutability": "view",
      "type": "function",
      "constant": true
    },
    {
      "inputs": [],
      "name": "counter",
      "outputs": [
        {
          "internalType": "uint256",
          "name": "",
          "type": "uint256"
        }
      ],
      "stateMutability": "view",
      "type": "function",
      "constant": true
    },
    {
      "inputs": [],
      "name": "endBlock",
      "outputs": [
        {
          "internalType": "uint256",
          "name": "",
          "type": "uint256"
        }
      ],
      "stateMutability": "view",
      "type": "function",
      "constant": true
    },
    {
      "inputs": [
        {
          "internalType": "uint256",
          "name": "tokenId",
          "type": "uint256"
        }
      ],
      "name": "getApproved",
      "outputs": [
        {
          "internalType": "address",
          "name": "",
          "type": "address"
        }
      ],
      "stateMutability": "view",
      "type": "function",
      "constant": true
    },
    {
      "inputs": [],
      "name": "highestBidder",
      "outputs": [
        {
          "internalType": "address payable",
          "name": "",
          "type": "address"
        }
      ],
      "stateMutability": "view",
      "type": "function",
      "constant": true
    },
    {
      "inputs": [],
      "name": "highestBindingBid",
      "outputs": [
        {
          "internalType": "uint256",
          "name": "",
          "type": "uint256"
        }
      ],
      "stateMutability": "view",
      "type": "function",
      "constant": true
    },
    {
      "inputs": [
        {
          "internalType": "string",
          "name": "",
          "type": "string"
        }
      ],
      "name": "imageIDs",
      "outputs": [
        {
          "internalType": "uint256",
          "name": "",
          "type": "uint256"
        }
      ],
      "stateMutability": "view",
      "type": "function",
      "constant": true
    },
    {
      "inputs": [
        {
          "internalType": "uint256",
          "name": "",
          "type": "uint256"
        }
      ],
      "name": "images",
      "outputs": [
        {
          "internalType": "string",
          "name": "",
          "type": "string"
        }
      ],
      "stateMutability": "view",
      "type": "function",
      "constant": true
    },
    {
      "inputs": [],
      "name": "ipfsHash",
      "outputs": [
        {
          "internalType": "uint256",
          "name": "",
          "type": "uint256"
        }
      ],
      "stateMutability": "view",
      "type": "function",
      "constant": true
    },
    {
      "inputs": [
        {
          "internalType": "address",
          "name": "owner",
          "type": "address"
        },
        {
          "internalType": "address",
          "name": "operator",
          "type": "address"
        }
      ],
      "name": "isApprovedForAll",
      "outputs": [
        {
          "internalType": "bool",
          "name": "",
          "type": "bool"
        }
      ],
      "stateMutability": "view",
      "type": "function",
      "constant": true
    },
    {
      "inputs": [],
      "name": "name",
      "outputs": [
        {
          "internalType": "string",
          "name": "",
          "type": "string"
        }
      ],
      "stateMutability": "view",
      "type": "function",
      "constant": true
    },
    {
      "inputs": [],
      "name": "owner",
      "outputs": [
        {
          "internalType": "address payable",
          "name": "",
          "type": "address"
        }
      ],
      "stateMutability": "view",
      "type": "function",
      "constant": true
    },
    {
      "inputs": [
        {
          "internalType": "uint256",
          "name": "tokenId",
          "type": "uint256"
        }
      ],
      "name": "ownerOf",
      "outputs": [
        {
          "internalType": "address",
          "name": "",
          "type": "address"
        }
      ],
      "stateMutability": "view",
      "type": "function",
      "constant": true
    },
    {
      "inputs": [
        {
          "internalType": "address",
          "name": "from",
          "type": "address"
        },
        {
          "internalType": "address",
          "name": "to",
          "type": "address"
        },
        {
          "internalType": "uint256",
          "name": "tokenId",
          "type": "uint256"
        }
      ],
      "name": "safeTransferFrom",
      "outputs": [],
      "stateMutability": "nonpayable",
      "type": "function"
    },
    {
      "inputs": [
        {
          "internalType": "address",
          "name": "from",
          "type": "address"
        },
        {
          "internalType": "address",
          "name": "to",
          "type": "address"
        },
        {
          "internalType": "uint256",
          "name": "tokenId",
          "type": "uint256"
        },
        {
          "internalType": "bytes",
          "name": "_data",
          "type": "bytes"
        }
      ],
      "name": "safeTransferFrom",
      "outputs": [],
      "stateMutability": "nonpayable",
      "type": "function"
    },
    {
      "inputs": [
        {
          "internalType": "address",
          "name": "operator",
          "type": "address"
        },
        {
          "internalType": "bool",
          "name": "approved",
          "type": "bool"
        }
      ],
      "name": "setApprovalForAll",
      "outputs": [],
      "stateMutability": "nonpayable",
      "type": "function"
    },
    {
      "inputs": [],
      "name": "startBlock",
      "outputs": [
        {
          "internalType": "uint256",
          "name": "",
          "type": "uint256"
        }
      ],
      "stateMutability": "view",
      "type": "function",
      "constant": true
    },
    {
      "inputs": [
        {
          "internalType": "bytes4",
          "name": "interfaceId",
          "type": "bytes4"
        }
      ],
      "name": "supportsInterface",
      "outputs": [
        {
          "internalType": "bool",
          "name": "",
          "type": "bool"
        }
      ],
      "stateMutability": "view",
      "type": "function",
      "constant": true
    },
    {
      "inputs": [],
      "name": "symbol",
      "outputs": [
        {
          "internalType": "string",
          "name": "",
          "type": "string"
        }
      ],
      "stateMutability": "view",
      "type": "function",
      "constant": true
    },
    {
      "inputs": [
        {
          "internalType": "uint256",
          "name": "tokenId",
          "type": "uint256"
        }
      ],
      "name": "tokenURI",
      "outputs": [
        {
          "internalType": "string",
          "name": "",
          "type": "string"
        }
      ],
      "stateMutability": "view",
      "type": "function",
      "constant": true
    },
    {
      "inputs": [
        {
          "internalType": "address",
          "name": "from",
          "type": "address"
        },
        {
          "internalType": "address",
          "name": "to",
          "type": "address"
        },
        {
          "internalType": "uint256",
          "name": "tokenId",
          "type": "uint256"
        }
      ],
      "name": "transferFrom",
      "outputs": [],
      "stateMutability": "nonpayable",
      "type": "function"
    },
    {
      "inputs": [
        {
          "internalType": "string",
          "name": "_imageCID",
          "type": "string"
        }
      ],
      "name": "createImage",
      "outputs": [],
      "stateMutability": "nonpayable",
      "type": "function"
    },
    {
      "inputs": [
        {
          "internalType": "uint256",
          "name": "_imageID",
          "type": "uint256"
        }
      ],
      "name": "buyImage",
      "outputs": [
        {
          "internalType": "bool",
          "name": "",
          "type": "bool"
        }
      ],
      "stateMutability": "payable",
      "type": "function",
      "payable": true
    },
    {
      "inputs": [],
      "name": "placeBid",
      "outputs": [],
      "stateMutability": "payable",
      "type": "function",
      "payable": true
    },
    {
      "inputs": [],
      "name": "cancelAuction",
      "outputs": [],
      "stateMutability": "nonpayable",
      "type": "function"
    },
    {
      "inputs": [
        {
          "internalType": "uint256",
          "name": "_imageID",
          "type": "uint256"
        }
      ],
      "name": "finalizeAuction",
      "outputs": [],
      "stateMutability": "nonpayable",
      "type": "function"
    }
  ],
  "bytecode": "0x60806040523480156200001157600080fd5b506040518060400160405280600f81526020017f4e4654204d61726b6574706c61636500000000000000000000000000000000008152506040518060400160405280600581526020017f52504e465400000000000000000000000000000000000000000000000000000081525081600090805190602001906200009692919062000136565b508060019080519060200190620000af92919062000136565b5050506706f05b59d3b20000600b819055504360088190555060088054620000d89190620001e6565b6009819055506001600e60146101000a81548160ff021916908360038111156200012b577f4e487b7100000000000000000000000000000000000000000000000000000000600052602160045260246000fd5b0217905550620002e1565b82805462000144906200024d565b90600052602060002090601f016020900481019282620001685760008555620001b4565b82601f106200018357805160ff1916838001178555620001b4565b82800160010185558215620001b4579182015b82811115620001b357825182559160200191906001019062000196565b5b509050620001c39190620001c7565b5090565b5b80821115620001e2576000816000905550600101620001c8565b5090565b6000620001f38262000243565b9150620002008362000243565b9250827fffffffffffffffffffffffffffffffffffffffffffffffffffffffffffffffff0382111562000238576200023762000283565b5b828201905092915050565b6000819050919050565b600060028204905060018216806200026657607f821691505b602082108114156200027d576200027c620002b2565b5b50919050565b7f4e487b7100000000000000000000000000000000000000000000000000000000600052601160045260246000fd5b7f4e487b7100000000000000000000000000000000000000000000000000000000600052602260045260246000fd5b613e8a80620002f16000396000f3fe6080604052600436106101c25760003560e01c80637fb45099116100f7578063b88d4fde11610095578063e985e9c511610064578063e985e9c51461065b578063ecfc7ecc14610698578063f5b56c56146106a2578063fad862b4146106cd576101c2565b8063b88d4fde146105a1578063c623674f146105ca578063c87b56dd146105f5578063e808386314610632576101c2565b80638fa8b790116100d15780638fa8b7901461050b57806391f901571461052257806395d89b411461054d578063a22cb46514610578576101c2565b80637fb450991461047857806384856482146104a35780638da5cb5b146104e0576101c2565b806342842e0e1161016457806362ea82db1161013e57806362ea82db146103985780636352211e146103d55780636b08239b1461041257806370a082311461043b576101c2565b806342842e0e1461031957806348cd4cb11461034257806361bc221a1461036d576101c2565b8063081812fc116101a0578063081812fc1461025f578063083c63231461029c578063095ea7b3146102c757806323b872dd146102f0576101c2565b806301ffc9a7146101c757806303e6af2e1461020457806306fdde0314610234575b600080fd5b3480156101d357600080fd5b506101ee60048036038101906101e99190612c41565b61070a565b6040516101fb9190613187565b60405180910390f35b61021e60048036038101906102199190612cd4565b6107ec565b60405161022b9190613187565b60405180910390f35b34801561024057600080fd5b506102496109ab565b60405161025691906131bd565b60405180910390f35b34801561026b57600080fd5b5061028660048036038101906102819190612cd4565b610a3d565b6040516102939190613105565b60405180910390f35b3480156102a857600080fd5b506102b1610ac2565b6040516102be919061347f565b60405180910390f35b3480156102d357600080fd5b506102ee60048036038101906102e99190612c05565b610ac8565b005b3480156102fc57600080fd5b5061031760048036038101906103129190612aff565b610be0565b005b34801561032557600080fd5b50610340600480360381019061033b9190612aff565b610c40565b005b34801561034e57600080fd5b50610357610c60565b604051610364919061347f565b60405180910390f35b34801561037957600080fd5b50610382610c66565b60405161038f919061347f565b60405180910390f35b3480156103a457600080fd5b506103bf60048036038101906103ba9190612a9a565b610c6c565b6040516103cc919061347f565b60405180910390f35b3480156103e157600080fd5b506103fc60048036038101906103f79190612cd4565b610c84565b6040516104099190613105565b60405180910390f35b34801561041e57600080fd5b5061043960048036038101906104349190612c93565b610d36565b005b34801561044757600080fd5b50610462600480360381019061045d9190612a9a565b610eae565b60405161046f919061347f565b60405180910390f35b34801561048457600080fd5b5061048d610f66565b60405161049a91906131a2565b60405180910390f35b3480156104af57600080fd5b506104ca60048036038101906104c59190612cd4565b610f79565b6040516104d791906131bd565b60405180910390f35b3480156104ec57600080fd5b506104f5611025565b6040516105029190613120565b60405180910390f35b34801561051757600080fd5b5061052061104b565b005b34801561052e57600080fd5b5061053761112e565b6040516105449190613120565b60405180910390f35b34801561055957600080fd5b50610562611154565b60405161056f91906131bd565b60405180910390f35b34801561058457600080fd5b5061059f600480360381019061059a9190612bc9565b6111e6565b005b3480156105ad57600080fd5b506105c860048036038101906105c39190612b4e565b611367565b005b3480156105d657600080fd5b506105df6113c9565b6040516105ec919061347f565b60405180910390f35b34801561060157600080fd5b5061061c60048036038101906106179190612cd4565b6113cf565b60405161062991906131bd565b60405180910390f35b34801561063e57600080fd5b5061065960048036038101906106549190612cd4565b611476565b005b34801561066757600080fd5b50610682600480360381019061067d9190612ac3565b61191e565b60405161068f9190613187565b60405180910390f35b6106a06119b2565b005b3480156106ae57600080fd5b506106b7611d88565b6040516106c4919061347f565b60405180910390f35b3480156106d957600080fd5b506106f460048036038101906106ef9190612c93565b611d8e565b604051610701919061347f565b60405180910390f35b60007f80ac58cd000000000000000000000000000000000000000000000000000000007bffffffffffffffffffffffffffffffffffffffffffffffffffffffff1916827bffffffffffffffffffffffffffffffffffffffffffffffffffffffff191614806107d557507f5b5e139f000000000000000000000000000000000000000000000000000000007bffffffffffffffffffffffffffffffffffffffffffffffffffffffff1916827bffffffffffffffffffffffffffffffffffffffffffffffffffffffff1916145b806107e557506107e482611dbc565b5b9050919050565b6000806107f883610c84565b90508073ffffffffffffffffffffffffffffffffffffffff163373ffffffffffffffffffffffffffffffffffffffff161415610869576040517f08c379a0000000000000000000000000000000000000000000000000000000008152600401610860906131df565b60405180910390fd5b6000341415801561089057503373ffffffffffffffffffffffffffffffffffffffff163134105b6108cf576040517f08c379a00000000000000000000000000000000000000000000000000000000081526004016108c69061331f565b60405180910390fd5b8073ffffffffffffffffffffffffffffffffffffffff166108fc349081150290604051600060405180830381858888f19350505050158015610915573d6000803e3d6000fd5b50670de0b6b3a76400003414610960576040517f08c379a00000000000000000000000000000000000000000000000000000000081526004016109579061337f565b60405180910390fd5b6109a18133856040518060400160405280600681526020017f456e6a6f79210000000000000000000000000000000000000000000000000000815250611e26565b6001915050919050565b6060600080546109ba9061370c565b80601f01602080910402602001604051908101604052809291908181526020018280546109e69061370c565b8015610a335780601f10610a0857610100808354040283529160200191610a33565b820191906000526020600020905b815481529060010190602001808311610a1657829003601f168201915b5050505050905090565b6000610a4882611e82565b610a87576040517f08c379a0000000000000000000000000000000000000000000000000000000008152600401610a7e906133bf565b60405180910390fd5b6004600083815260200190815260200160002060009054906101000a900473ffffffffffffffffffffffffffffffffffffffff169050919050565b60095481565b6000610ad382610c84565b90508073ffffffffffffffffffffffffffffffffffffffff168373ffffffffffffffffffffffffffffffffffffffff161415610b44576040517f08c379a0000000000000000000000000000000000000000000000000000000008152600401610b3b9061341f565b60405180910390fd5b8073ffffffffffffffffffffffffffffffffffffffff16610b63611eee565b73ffffffffffffffffffffffffffffffffffffffff161480610b925750610b9181610b8c611eee565b61191e565b5b610bd1576040517f08c379a0000000000000000000000000000000000000000000000000000000008152600401610bc8906132df565b60405180910390fd5b610bdb8383611ef6565b505050565b610bf1610beb611eee565b82611faf565b610c30576040517f08c379a0000000000000000000000000000000000000000000000000000000008152600401610c279061343f565b60405180910390fd5b610c3b83838361208d565b505050565b610c5b83838360405180602001604052806000815250611367565b505050565b60085481565b60075481565b600f6020528060005260406000206000915090505481565b6000806002600084815260200190815260200160002060009054906101000a900473ffffffffffffffffffffffffffffffffffffffff169050600073ffffffffffffffffffffffffffffffffffffffff168173ffffffffffffffffffffffffffffffffffffffff161415610d2d576040517f08c379a0000000000000000000000000000000000000000000000000000000008152600401610d249061335f565b60405180910390fd5b80915050919050565b601081604051610d4691906130ca565b908152602001604051809103902060009054906101000a900460ff1615610da2576040517f08c379a0000000000000000000000000000000000000000000000000000000008152600401610d99906132ff565b60405180910390fd5b60006007549050600682908060018154018082558091505060019003906000526020600020016000909190919091509080519060200190610de49291906128be565b50610def33826122e9565b6001601083604051610e0191906130ca565b908152602001604051809103902060006101000a81548160ff02191690831515021790555080601183604051610e3791906130ca565b908152602001604051809103902081905550610e5281610c84565b600d60006101000a81548173ffffffffffffffffffffffffffffffffffffffff021916908373ffffffffffffffffffffffffffffffffffffffff16021790555060076000815480929190610ea59061376f565b91905055505050565b60008073ffffffffffffffffffffffffffffffffffffffff168273ffffffffffffffffffffffffffffffffffffffff161415610f1f576040517f08c379a0000000000000000000000000000000000000000000000000000000008152600401610f169061333f565b60405180910390fd5b600360008373ffffffffffffffffffffffffffffffffffffffff1673ffffffffffffffffffffffffffffffffffffffff168152602001908152602001600020549050919050565b600e60149054906101000a900460ff1681565b60068181548110610f8957600080fd5b906000526020600020016000915090508054610fa49061370c565b80601f0160208091040260200160405190810160405280929190818152602001828054610fd09061370c565b801561101d5780601f10610ff25761010080835404028352916020019161101d565b820191906000526020600020905b81548152906001019060200180831161100057829003601f168201915b505050505081565b600d60009054906101000a900473ffffffffffffffffffffffffffffffffffffffff1681565b600d60009054906101000a900473ffffffffffffffffffffffffffffffffffffffff1673ffffffffffffffffffffffffffffffffffffffff163373ffffffffffffffffffffffffffffffffffffffff16146110db576040517f08c379a00000000000000000000000000000000000000000000000000000000081526004016110d29061329f565b60405180910390fd5b6003600e60146101000a81548160ff02191690836003811115611127577f4e487b7100000000000000000000000000000000000000000000000000000000600052602160045260246000fd5b0217905550565b600e60009054906101000a900473ffffffffffffffffffffffffffffffffffffffff1681565b6060600180546111639061370c565b80601f016020809104026020016040519081016040528092919081815260200182805461118f9061370c565b80156111dc5780601f106111b1576101008083540402835291602001916111dc565b820191906000526020600020905b8154815290600101906020018083116111bf57829003601f168201915b5050505050905090565b6111ee611eee565b73ffffffffffffffffffffffffffffffffffffffff168273ffffffffffffffffffffffffffffffffffffffff16141561125c576040517f08c379a00000000000000000000000000000000000000000000000000000000081526004016112539061327f565b60405180910390fd5b8060056000611269611eee565b73ffffffffffffffffffffffffffffffffffffffff1673ffffffffffffffffffffffffffffffffffffffff16815260200190815260200160002060008473ffffffffffffffffffffffffffffffffffffffff1673ffffffffffffffffffffffffffffffffffffffff16815260200190815260200160002060006101000a81548160ff0219169083151502179055508173ffffffffffffffffffffffffffffffffffffffff16611316611eee565b73ffffffffffffffffffffffffffffffffffffffff167f17307eab39ab6107e8899845ad3d59bd9653f200f220920489ca2b5937696c318360405161135b9190613187565b60405180910390a35050565b611378611372611eee565b83611faf565b6113b7576040517f08c379a00000000000000000000000000000000000000000000000000000000081526004016113ae9061343f565b60405180910390fd5b6113c384848484611e26565b50505050565b600a5481565b60606113da82611e82565b611419576040517f08c379a0000000000000000000000000000000000000000000000000000000008152600401611410906133ff565b60405180910390fd5b6000611423612307565b90506000815111611443576040518060200160405280600081525061146e565b8061144d8461231e565b60405160200161145e9291906130e1565b6040516020818303038152906040525b915050919050565b6003808111156114af577f4e487b7100000000000000000000000000000000000000000000000000000000600052602160045260246000fd5b600e60149054906101000a900460ff1660038111156114f7577f4e487b7100000000000000000000000000000000000000000000000000000000600052602160045260246000fd5b1480611504575060095443115b61150d57600080fd5b600d60009054906101000a900473ffffffffffffffffffffffffffffffffffffffff1673ffffffffffffffffffffffffffffffffffffffff163373ffffffffffffffffffffffffffffffffffffffff16141580156115aa57506000600f60003373ffffffffffffffffffffffffffffffffffffffff1673ffffffffffffffffffffffffffffffffffffffff16815260200190815260200160002054115b6115b357600080fd5b6000806003808111156115ef577f4e487b7100000000000000000000000000000000000000000000000000000000600052602160045260246000fd5b600e60149054906101000a900460ff166003811115611637577f4e487b7100000000000000000000000000000000000000000000000000000000600052602160045260246000fd5b14156116ce57339150600f60003373ffffffffffffffffffffffffffffffffffffffff1673ffffffffffffffffffffffffffffffffffffffff1681526020019081526020016000205490508173ffffffffffffffffffffffffffffffffffffffff166108fc829081150290604051600060405180830381858888f193505050501580156116c8573d6000803e3d6000fd5b50611919565b600e60009054906101000a900473ffffffffffffffffffffffffffffffffffffffff1673ffffffffffffffffffffffffffffffffffffffff163373ffffffffffffffffffffffffffffffffffffffff16141561188b57600e60009054906101000a900473ffffffffffffffffffffffffffffffffffffffff169150600c54600f6000600e60009054906101000a900473ffffffffffffffffffffffffffffffffffffffff1673ffffffffffffffffffffffffffffffffffffffff1673ffffffffffffffffffffffffffffffffffffffff168152602001908152602001600020546117b891906135eb565b9050600d60009054906101000a900473ffffffffffffffffffffffffffffffffffffffff1673ffffffffffffffffffffffffffffffffffffffff166108fc829081150290604051600060405180830381858888f19350505050158015611822573d6000803e3d6000fd5b50611886600d60009054906101000a900473ffffffffffffffffffffffffffffffffffffffff1683856040518060400160405280600681526020017f456e6a6f79210000000000000000000000000000000000000000000000000000815250611e26565b611918565b339150600f60003373ffffffffffffffffffffffffffffffffffffffff1673ffffffffffffffffffffffffffffffffffffffff1681526020019081526020016000205490508173ffffffffffffffffffffffffffffffffffffffff166108fc829081150290604051600060405180830381858888f19350505050158015611916573d6000803e3d6000fd5b505b5b505050565b6000600560008473ffffffffffffffffffffffffffffffffffffffff1673ffffffffffffffffffffffffffffffffffffffff16815260200190815260200160002060008373ffffffffffffffffffffffffffffffffffffffff1673ffffffffffffffffffffffffffffffffffffffff16815260200190815260200160002060009054906101000a900460ff16905092915050565b6008544310156119c157600080fd5b6009544311156119d057600080fd5b600d60009054906101000a900473ffffffffffffffffffffffffffffffffffffffff1673ffffffffffffffffffffffffffffffffffffffff163373ffffffffffffffffffffffffffffffffffffffff161415611a61576040517f08c379a0000000000000000000000000000000000000000000000000000000008152600401611a589061345f565b60405180910390fd5b60016003811115611a9b577f4e487b7100000000000000000000000000000000000000000000000000000000600052602160045260246000fd5b600e60149054906101000a900460ff166003811115611ae3577f4e487b7100000000000000000000000000000000000000000000000000000000600052602160045260246000fd5b14611aed57600080fd5b670de0b6b3a7640000341015611b38576040517f08c379a0000000000000000000000000000000000000000000000000000000008152600401611b2f9061323f565b60405180910390fd5b600034600f60003373ffffffffffffffffffffffffffffffffffffffff1673ffffffffffffffffffffffffffffffffffffffff16815260200190815260200160002054611b859190613564565b9050600c548111611b9557600080fd5b80600f60003373ffffffffffffffffffffffffffffffffffffffff1673ffffffffffffffffffffffffffffffffffffffff16815260200190815260200160002081905550600f6000600e60009054906101000a900473ffffffffffffffffffffffffffffffffffffffff1673ffffffffffffffffffffffffffffffffffffffff1673ffffffffffffffffffffffffffffffffffffffff16815260200190815260200160002054811015611cc557611cba600b5482611c539190613564565b600f6000600e60009054906101000a900473ffffffffffffffffffffffffffffffffffffffff1673ffffffffffffffffffffffffffffffffffffffff1673ffffffffffffffffffffffffffffffffffffffff168152602001908152602001600020546124cb565b600c81905550611d85565b611d3d81600b54600f6000600e60009054906101000a900473ffffffffffffffffffffffffffffffffffffffff1673ffffffffffffffffffffffffffffffffffffffff1673ffffffffffffffffffffffffffffffffffffffff16815260200190815260200160002054611d389190613564565b6124cb565b600c8190555033600e60006101000a81548173ffffffffffffffffffffffffffffffffffffffff021916908373ffffffffffffffffffffffffffffffffffffffff1602179055505b50565b600c5481565b6011818051602081018201805184825260208301602085012081835280955050505050506000915090505481565b60007f01ffc9a7000000000000000000000000000000000000000000000000000000007bffffffffffffffffffffffffffffffffffffffffffffffffffffffff1916827bffffffffffffffffffffffffffffffffffffffffffffffffffffffff1916149050919050565b611e3184848461208d565b611e3d848484846124e6565b611e7c576040517f08c379a0000000000000000000000000000000000000000000000000000000008152600401611e73906131ff565b60405180910390fd5b50505050565b60008073ffffffffffffffffffffffffffffffffffffffff166002600084815260200190815260200160002060009054906101000a900473ffffffffffffffffffffffffffffffffffffffff1673ffffffffffffffffffffffffffffffffffffffff1614159050919050565b600033905090565b816004600083815260200190815260200160002060006101000a81548173ffffffffffffffffffffffffffffffffffffffff021916908373ffffffffffffffffffffffffffffffffffffffff160217905550808273ffffffffffffffffffffffffffffffffffffffff16611f6983610c84565b73ffffffffffffffffffffffffffffffffffffffff167f8c5be1e5ebec7d5bd14f71427d1e84f3dd0314c0f7b2291e5b200ac8c7c3b92560405160405180910390a45050565b6000611fba82611e82565b611ff9576040517f08c379a0000000000000000000000000000000000000000000000000000000008152600401611ff0906132bf565b60405180910390fd5b600061200483610c84565b90508073ffffffffffffffffffffffffffffffffffffffff168473ffffffffffffffffffffffffffffffffffffffff16148061207357508373ffffffffffffffffffffffffffffffffffffffff1661205b84610a3d565b73ffffffffffffffffffffffffffffffffffffffff16145b806120845750612083818561191e565b5b91505092915050565b8273ffffffffffffffffffffffffffffffffffffffff166120ad82610c84565b73ffffffffffffffffffffffffffffffffffffffff1614612103576040517f08c379a00000000000000000000000000000000000000000000000000000000081526004016120fa906133df565b60405180910390fd5b600073ffffffffffffffffffffffffffffffffffffffff168273ffffffffffffffffffffffffffffffffffffffff161415612173576040517f08c379a000000000000000000000000000000000000000000000000000000000815260040161216a9061325f565b60405180910390fd5b61217e83838361267d565b612189600082611ef6565b6001600360008573ffffffffffffffffffffffffffffffffffffffff1673ffffffffffffffffffffffffffffffffffffffff16815260200190815260200160002060008282546121d991906135eb565b925050819055506001600360008473ffffffffffffffffffffffffffffffffffffffff1673ffffffffffffffffffffffffffffffffffffffff16815260200190815260200160002060008282546122309190613564565b92505081905550816002600083815260200190815260200160002060006101000a81548173ffffffffffffffffffffffffffffffffffffffff021916908373ffffffffffffffffffffffffffffffffffffffff160217905550808273ffffffffffffffffffffffffffffffffffffffff168473ffffffffffffffffffffffffffffffffffffffff167fddf252ad1be2c89b69c2b068fc378daa952ba7f163c4a11628f55a4df523b3ef60405160405180910390a4505050565b612303828260405180602001604052806000815250612682565b5050565b606060405180602001604052806000815250905090565b60606000821415612366576040518060400160405280600181526020017f300000000000000000000000000000000000000000000000000000000000000081525090506124c6565b600082905060005b600082146123985780806123819061376f565b915050600a8261239191906135ba565b915061236e565b60008167ffffffffffffffff8111156123da577f4e487b7100000000000000000000000000000000000000000000000000000000600052604160045260246000fd5b6040519080825280601f01601f19166020018201604052801561240c5781602001600182028036833780820191505090505b5090505b600085146124bf5760018261242591906135eb565b9150600a8561243491906137b8565b60306124409190613564565b60f81b81838151811061247c577f4e487b7100000000000000000000000000000000000000000000000000000000600052603260045260246000fd5b60200101907effffffffffffffffffffffffffffffffffffffffffffffffffffffffffffff1916908160001a905350600a856124b891906135ba565b9450612410565b8093505050505b919050565b60008183116124dc578290506124e0565b8190505b92915050565b60006125078473ffffffffffffffffffffffffffffffffffffffff166126dd565b15612670578373ffffffffffffffffffffffffffffffffffffffff1663150b7a02612530611eee565b8786866040518563ffffffff1660e01b8152600401612552949392919061313b565b602060405180830381600087803b15801561256c57600080fd5b505af192505050801561259d57506040513d601f19601f8201168201806040525081019061259a9190612c6a565b60015b612620573d80600081146125cd576040519150601f19603f3d011682016040523d82523d6000602084013e6125d2565b606091505b50600081511415612618576040517f08c379a000000000000000000000000000000000000000000000000000000000815260040161260f906131ff565b60405180910390fd5b805181602001fd5b63150b7a0260e01b7bffffffffffffffffffffffffffffffffffffffffffffffffffffffff1916817bffffffffffffffffffffffffffffffffffffffffffffffffffffffff191614915050612675565b600190505b949350505050565b505050565b61268c83836126f0565b61269960008484846124e6565b6126d8576040517f08c379a00000000000000000000000000000000000000000000000000000000081526004016126cf906131ff565b60405180910390fd5b505050565b600080823b905060008111915050919050565b600073ffffffffffffffffffffffffffffffffffffffff168273ffffffffffffffffffffffffffffffffffffffff161415612760576040517f08c379a00000000000000000000000000000000000000000000000000000000081526004016127579061339f565b60405180910390fd5b61276981611e82565b156127a9576040517f08c379a00000000000000000000000000000000000000000000000000000000081526004016127a09061321f565b60405180910390fd5b6127b56000838361267d565b6001600360008473ffffffffffffffffffffffffffffffffffffffff1673ffffffffffffffffffffffffffffffffffffffff16815260200190815260200160002060008282546128059190613564565b92505081905550816002600083815260200190815260200160002060006101000a81548173ffffffffffffffffffffffffffffffffffffffff021916908373ffffffffffffffffffffffffffffffffffffffff160217905550808273ffffffffffffffffffffffffffffffffffffffff16600073ffffffffffffffffffffffffffffffffffffffff167fddf252ad1be2c89b69c2b068fc378daa952ba7f163c4a11628f55a4df523b3ef60405160405180910390a45050565b8280546128ca9061370c565b90600052602060002090601f0160209004810192826128ec5760008555612933565b82601f1061290557805160ff1916838001178555612933565b82800160010185558215612933579182015b82811115612932578251825591602001919060010190612917565b5b5090506129409190612944565b5090565b5b8082111561295d576000816000905550600101612945565b5090565b600061297461296f846134bf565b61349a565b90508281526020810184848401111561298c57600080fd5b6129978482856136ca565b509392505050565b60006129b26129ad846134f0565b61349a565b9050828152602081018484840111156129ca57600080fd5b6129d58482856136ca565b509392505050565b6000813590506129ec81613df8565b92915050565b600081359050612a0181613e0f565b92915050565b600081359050612a1681613e26565b92915050565b600081519050612a2b81613e26565b92915050565b600082601f830112612a4257600080fd5b8135612a52848260208601612961565b91505092915050565b600082601f830112612a6c57600080fd5b8135612a7c84826020860161299f565b91505092915050565b600081359050612a9481613e3d565b92915050565b600060208284031215612aac57600080fd5b6000612aba848285016129dd565b91505092915050565b60008060408385031215612ad657600080fd5b6000612ae4858286016129dd565b9250506020612af5858286016129dd565b9150509250929050565b600080600060608486031215612b1457600080fd5b6000612b22868287016129dd565b9350506020612b33868287016129dd565b9250506040612b4486828701612a85565b9150509250925092565b60008060008060808587031215612b6457600080fd5b6000612b72878288016129dd565b9450506020612b83878288016129dd565b9350506040612b9487828801612a85565b925050606085013567ffffffffffffffff811115612bb157600080fd5b612bbd87828801612a31565b91505092959194509250565b60008060408385031215612bdc57600080fd5b6000612bea858286016129dd565b9250506020612bfb858286016129f2565b9150509250929050565b60008060408385031215612c1857600080fd5b6000612c26858286016129dd565b9250506020612c3785828601612a85565b9150509250929050565b600060208284031215612c5357600080fd5b6000612c6184828501612a07565b91505092915050565b600060208284031215612c7c57600080fd5b6000612c8a84828501612a1c565b91505092915050565b600060208284031215612ca557600080fd5b600082013567ffffffffffffffff811115612cbf57600080fd5b612ccb84828501612a5b565b91505092915050565b600060208284031215612ce657600080fd5b6000612cf484828501612a85565b91505092915050565b612d0681613631565b82525050565b612d158161361f565b82525050565b612d2481613643565b82525050565b6000612d3582613521565b612d3f8185613537565b9350612d4f8185602086016136d9565b612d58816138d4565b840191505092915050565b612d6c816136b8565b82525050565b6000612d7d8261352c565b612d878185613548565b9350612d978185602086016136d9565b612da0816138d4565b840191505092915050565b6000612db68261352c565b612dc08185613559565b9350612dd08185602086016136d9565b80840191505092915050565b6000612de9601683613548565b9150612df4826138e5565b602082019050919050565b6000612e0c603283613548565b9150612e178261390e565b604082019050919050565b6000612e2f601c83613548565b9150612e3a8261395d565b602082019050919050565b6000612e52600a83613548565b9150612e5d82613986565b602082019050919050565b6000612e75602483613548565b9150612e80826139af565b604082019050919050565b6000612e98601983613548565b9150612ea3826139fe565b602082019050919050565b6000612ebb600983613548565b9150612ec682613a27565b602082019050919050565b6000612ede602c83613548565b9150612ee982613a50565b604082019050919050565b6000612f01603883613548565b9150612f0c82613a9f565b604082019050919050565b6000612f24601483613548565b9150612f2f82613aee565b602082019050919050565b6000612f47601883613548565b9150612f5282613b17565b602082019050919050565b6000612f6a602a83613548565b9150612f7582613b40565b604082019050919050565b6000612f8d602983613548565b9150612f9882613b8f565b604082019050919050565b6000612fb0601383613548565b9150612fbb82613bde565b602082019050919050565b6000612fd3602083613548565b9150612fde82613c07565b602082019050919050565b6000612ff6602c83613548565b915061300182613c30565b604082019050919050565b6000613019602983613548565b915061302482613c7f565b604082019050919050565b600061303c602f83613548565b915061304782613cce565b604082019050919050565b600061305f602183613548565b915061306a82613d1d565b604082019050919050565b6000613082603183613548565b915061308d82613d6c565b604082019050919050565b60006130a5600c83613548565b91506130b082613dbb565b602082019050919050565b6130c4816136ae565b82525050565b60006130d68284612dab565b915081905092915050565b60006130ed8285612dab565b91506130f98284612dab565b91508190509392505050565b600060208201905061311a6000830184612d0c565b92915050565b60006020820190506131356000830184612cfd565b92915050565b60006080820190506131506000830187612d0c565b61315d6020830186612d0c565b61316a60408301856130bb565b818103606083015261317c8184612d2a565b905095945050505050565b600060208201905061319c6000830184612d1b565b92915050565b60006020820190506131b76000830184612d63565b92915050565b600060208201905081810360008301526131d78184612d72565b905092915050565b600060208201905081810360008301526131f881612ddc565b9050919050565b6000602082019050818103600083015261321881612dff565b9050919050565b6000602082019050818103600083015261323881612e22565b9050919050565b6000602082019050818103600083015261325881612e45565b9050919050565b6000602082019050818103600083015261327881612e68565b9050919050565b6000602082019050818103600083015261329881612e8b565b9050919050565b600060208201905081810360008301526132b881612eae565b9050919050565b600060208201905081810360008301526132d881612ed1565b9050919050565b600060208201905081810360008301526132f881612ef4565b9050919050565b6000602082019050818103600083015261331881612f17565b9050919050565b6000602082019050818103600083015261333881612f3a565b9050919050565b6000602082019050818103600083015261335881612f5d565b9050919050565b6000602082019050818103600083015261337881612f80565b9050919050565b6000602082019050818103600083015261339881612fa3565b9050919050565b600060208201905081810360008301526133b881612fc6565b9050919050565b600060208201905081810360008301526133d881612fe9565b9050919050565b600060208201905081810360008301526133f88161300c565b9050919050565b600060208201905081810360008301526134188161302f565b9050919050565b6000602082019050818103600083015261343881613052565b9050919050565b6000602082019050818103600083015261345881613075565b9050919050565b6000602082019050818103600083015261347881613098565b9050919050565b600060208201905061349460008301846130bb565b92915050565b60006134a46134b5565b90506134b0828261373e565b919050565b6000604051905090565b600067ffffffffffffffff8211156134da576134d96138a5565b5b6134e3826138d4565b9050602081019050919050565b600067ffffffffffffffff82111561350b5761350a6138a5565b5b613514826138d4565b9050602081019050919050565b600081519050919050565b600081519050919050565b600082825260208201905092915050565b600082825260208201905092915050565b600081905092915050565b600061356f826136ae565b915061357a836136ae565b9250827fffffffffffffffffffffffffffffffffffffffffffffffffffffffffffffffff038211156135af576135ae6137e9565b5b828201905092915050565b60006135c5826136ae565b91506135d0836136ae565b9250826135e0576135df613818565b5b828204905092915050565b60006135f6826136ae565b9150613601836136ae565b925082821015613614576136136137e9565b5b828203905092915050565b600061362a8261368e565b9050919050565b600061363c8261368e565b9050919050565b60008115159050919050565b60007fffffffff0000000000000000000000000000000000000000000000000000000082169050919050565b600081905061368982613de4565b919050565b600073ffffffffffffffffffffffffffffffffffffffff82169050919050565b6000819050919050565b60006136c38261367b565b9050919050565b82818337600083830152505050565b60005b838110156136f75780820151818401526020810190506136dc565b83811115613706576000848401525b50505050565b6000600282049050600182168061372457607f821691505b6020821081141561373857613737613876565b5b50919050565b613747826138d4565b810181811067ffffffffffffffff82111715613766576137656138a5565b5b80604052505050565b600061377a826136ae565b91507fffffffffffffffffffffffffffffffffffffffffffffffffffffffffffffffff8214156137ad576137ac6137e9565b5b600182019050919050565b60006137c3826136ae565b91506137ce836136ae565b9250826137de576137dd613818565b5b828206905092915050565b7f4e487b7100000000000000000000000000000000000000000000000000000000600052601160045260246000fd5b7f4e487b7100000000000000000000000000000000000000000000000000000000600052601260045260246000fd5b7f4e487b7100000000000000000000000000000000000000000000000000000000600052602160045260246000fd5b7f4e487b7100000000000000000000000000000000000000000000000000000000600052602260045260246000fd5b7f4e487b7100000000000000000000000000000000000000000000000000000000600052604160045260246000fd5b6000601f19601f8301169050919050565b7f496d6167654e46543a20627579206279206f776e657200000000000000000000600082015250565b7f4552433732313a207472616e7366657220746f206e6f6e20455243373231526560008201527f63656976657220696d706c656d656e7465720000000000000000000000000000602082015250565b7f4552433732313a20746f6b656e20616c7265616479206d696e74656400000000600082015250565b7f6d696e3a20312045544800000000000000000000000000000000000000000000600082015250565b7f4552433732313a207472616e7366657220746f20746865207a65726f2061646460008201527f7265737300000000000000000000000000000000000000000000000000000000602082015250565b7f4552433732313a20617070726f766520746f2063616c6c657200000000000000600082015250565b7f4e6f74204f776e65720000000000000000000000000000000000000000000000600082015250565b7f4552433732313a206f70657261746f7220717565727920666f72206e6f6e657860008201527f697374656e7420746f6b656e0000000000000000000000000000000000000000602082015250565b7f4552433732313a20617070726f76652063616c6c6572206973206e6f74206f7760008201527f6e6572206e6f7220617070726f76656420666f7220616c6c0000000000000000602082015250565b7f696d61676520616c7265616479206d696e746564000000000000000000000000600082015250565b7f496d6167654e46543a206e6f7420656e6f756768206574680000000000000000600082015250565b7f4552433732313a2062616c616e636520717565727920666f7220746865207a6560008201527f726f206164647265737300000000000000000000000000000000000000000000602082015250565b7f4552433732313a206f776e657220717565727920666f72206e6f6e657869737460008201527f656e7420746f6b656e0000000000000000000000000000000000000000000000602082015250565b7f496d6167654e46543a2070617920312045544800000000000000000000000000600082015250565b7f4552433732313a206d696e7420746f20746865207a65726f2061646472657373600082015250565b7f4552433732313a20617070726f76656420717565727920666f72206e6f6e657860008201527f697374656e7420746f6b656e0000000000000000000000000000000000000000602082015250565b7f4552433732313a207472616e73666572206f6620746f6b656e2074686174206960008201527f73206e6f74206f776e0000000000000000000000000000000000000000000000602082015250565b7f4552433732314d657461646174613a2055524920717565727920666f72206e6f60008201527f6e6578697374656e7420746f6b656e0000000000000000000000000000000000602082015250565b7f4552433732313a20617070726f76616c20746f2063757272656e74206f776e6560008201527f7200000000000000000000000000000000000000000000000000000000000000602082015250565b7f4552433732313a207472616e736665722063616c6c6572206973206e6f74206f60008201527f776e6572206e6f7220617070726f766564000000000000000000000000000000602082015250565b7f596f75277265204f776e65720000000000000000000000000000000000000000600082015250565b60048110613df557613df4613847565b5b50565b613e018161361f565b8114613e0c57600080fd5b50565b613e1881613643565b8114613e2357600080fd5b50565b613e2f8161364f565b8114613e3a57600080fd5b50565b613e46816136ae565b8114613e5157600080fd5b5056fea2646970667358221220d9460b9072db9e37b3f2da542e4102793597d5a4f2c94138679ea5846e8a31f664736f6c63430008040033",
  "immutableReferences": {},
  "source": "// SPDX-License-Identifier: MIT\npragma solidity 0.8.4;\n\nimport \"../client/node_modules/@openzeppelin/contracts/token/ERC721/ERC721.sol\";\n\ncontract ImageNFT is ERC721(\"NFT Marketplace\", \"RPNFT\") {\n    string[] public images;\n\n    uint256 public counter;\n    uint256 public startBlock;\n    uint256 public endBlock;\n    uint256 public ipfsHash;\n    uint256 bidIncrement;\n    uint256 public highestBindingBid;\n\n    address payable public owner;\n    address payable public highestBidder;\n\n    enum State {Started, Running, Ended, Canceled}\n    State public auctionState;\n\n    mapping(address => uint256) public bids;\n    mapping(string => bool) imageAlreadyMinted;\n    mapping(string => uint256) public imageIDs;\n\n    //====\n\n    constructor() {\n        // Initialize the bid incrment to 0.5 ETH\n        bidIncrement = 500000000000000000;\n\n        // Define stating and ending time to prevent the owner to chose when\n        // he should end the auction.\n        // using block number is safer than using block.timestamp since miners\n        // can change the later. Auction can be finalized only after endBlock\n\n        startBlock = block.number;\n        endBlock = startBlock + 8;\n\n        // The auction starts when the contract is deployed\n        auctionState = State.Running;\n    }\n\n    function createImage(string memory _imageCID) public {\n        // cannot mint the same image twice.\n        // IPFS will be used to store images returning a unique CID (image URI).\n        // Since CIDs are based on the image content, same image will always\n        // return same CID.\n        require(!imageAlreadyMinted[_imageCID], \"image already minted\");\n        uint256 newImageId = counter;\n\n        // store the image URI on the Blockchain\n        images.push(_imageCID);\n\n        // mint the image\n        _safeMint(msg.sender, newImageId);\n\n        // store the information that the image has been minted\n        imageAlreadyMinted[_imageCID] = true;\n\n        // store the image ID of the image CID in a mapping\n        imageIDs[_imageCID] = newImageId;\n\n        owner = payable(ownerOf(newImageId));\n\n        counter++;\n    }\n\n    function buyImage(uint256 _imageID) public payable returns (bool) {\n        // ERC721 contract defines requires needed\n        // Double checking would not be optimal since it cost gas\n\n        // get the owner of the image. Always work with local variable\n        // not state variable.\n        address payable ownerAddress = payable(ownerOf(_imageID));\n\n        require(msg.sender != ownerAddress, \"ImageNFT: buy by owner\");\n\n        // cash out ETH\n        require(\n            msg.value != 0 && msg.value < msg.sender.balance,\n            \"ImageNFT: not enough eth\"\n        );\n        payable(ownerAddress).transfer(msg.value);\n\n        // transfer the token CID from the owner to the buyer\n        // images cost 1 ETH\n        require(msg.value == 1 ether, \"ImageNFT: pay 1 ETH\");\n        _safeTransfer(ownerAddress, msg.sender, _imageID, \"Enjoy!\");\n\n        // creturn the address of the new image's owner\n        return true;\n    }\n\n    //=== Auction\n    function placeBid() public payable afterStart beforeEnd {\n        require(msg.sender != owner, \"You're Owner\");\n        require(auctionState == State.Running);\n        require(msg.value >= 1 ether, \"min: 1 ETH\");\n\n        uint256 currentBid = bids[msg.sender] + msg.value;\n        require(currentBid > highestBindingBid);\n        bids[msg.sender] = currentBid;\n\n        if (currentBid < bids[highestBidder]) {\n            highestBindingBid = min(\n                currentBid + bidIncrement,\n                bids[highestBidder]\n            );\n        } else {\n            highestBindingBid = min(\n                currentBid,\n                bids[highestBidder] + bidIncrement\n            );\n            highestBidder = payable(msg.sender);\n        }\n    }\n\n    function cancelAuction() public {\n        require(msg.sender == owner, \"Not Owner\");\n        auctionState = State.Canceled;\n    }\n\n    // Withdrawal pattern to avoid re-entrance attacks\n    // refund the losser and transfer the image to the highestBidder\n    function finalizeAuction(uint256 _imageID) public {\n        // Auction need to be cancelled or ended.\n        // only the owner or a bidder can finalize the auction\n        require(auctionState == State.Canceled || block.number > endBlock);\n        require(msg.sender != owner && bids[msg.sender] > 0);\n\n        address payable recipient;\n        uint256 value;\n\n        // treat both auction cancelled or ended\n        if (auctionState == State.Canceled) {\n            recipient = payable(msg.sender);\n            value = bids[msg.sender];\n\n            recipient.transfer(value);\n        } else {\n            // if the owner makes the call, else if a bidder makes it.\n            if (msg.sender == highestBidder) {\n                recipient = highestBidder;\n                value = bids[highestBidder] - highestBindingBid;\n\n                // send the amount of ETH to the owner\n                owner.transfer(value);\n\n                // transfer the NFT image to the highestBidder\n                _safeTransfer(owner, recipient, _imageID, \"Enjoy!\");\n            } else {\n                recipient = payable(msg.sender);\n                value = bids[msg.sender];\n\n                recipient.transfer(value);\n            }\n        }\n    }\n\n    function min(uint256 a, uint256 b) internal pure returns (uint256) {\n        if (a <= b) {\n            return a;\n        } else {\n            return b;\n        }\n    }\n\n    modifier afterStart() {\n        require(block.number >= startBlock);\n        _;\n    }\n\n    modifier beforeEnd() {\n        require(block.number <= endBlock);\n        _;\n    }\n}\n",
  "sourcePath": "/Users/samuel/Documents/Projet_Job/Candidatures/RarePorn/contracts/ImageNFT.sol",
  "compiler": {
    "name": "solc",
    "version": "0.8.4+commit.c7e474f2.Emscripten.clang"
  },
  "schemaVersion": "3.3.4",
  "updatedAt": "2021-06-14T05:35:18.742Z",
  "networkType": "ethereum",
  "devdoc": {
    "kind": "dev",
    "methods": {
      "approve(address,uint256)": {
        "details": "See {IERC721-approve}."
      },
      "balanceOf(address)": {
        "details": "See {IERC721-balanceOf}."
      },
      "getApproved(uint256)": {
        "details": "See {IERC721-getApproved}."
      },
      "isApprovedForAll(address,address)": {
        "details": "See {IERC721-isApprovedForAll}."
      },
      "name()": {
        "details": "See {IERC721Metadata-name}."
      },
      "ownerOf(uint256)": {
        "details": "See {IERC721-ownerOf}."
      },
      "safeTransferFrom(address,address,uint256)": {
        "details": "See {IERC721-safeTransferFrom}."
      },
      "safeTransferFrom(address,address,uint256,bytes)": {
        "details": "See {IERC721-safeTransferFrom}."
      },
      "setApprovalForAll(address,bool)": {
        "details": "See {IERC721-setApprovalForAll}."
      },
      "supportsInterface(bytes4)": {
        "details": "See {IERC165-supportsInterface}."
      },
      "symbol()": {
        "details": "See {IERC721Metadata-symbol}."
      },
      "tokenURI(uint256)": {
        "details": "See {IERC721Metadata-tokenURI}."
      },
      "transferFrom(address,address,uint256)": {
        "details": "See {IERC721-transferFrom}."
      }
    },
    "version": 1
  },
  "userdoc": {
    "kind": "user",
    "methods": {},
    "version": 1
  }
}